:0247CD00470C97
:0247CF0048C5DB
:0247D1003B8526
:0247D30048C6D6
:0247D50048C7D3
:0247DB0044ECAC
:10470C00123C427F02121DF97F07121DF9E4FF02D1
:02471C001E82FB
:0148C50022D0
:103B8500E4FF12471E7F011244D1E4FF1244D19095
:103B95000315120EB942C80000E4FF124256D20BBB
:103BA5001232C4900315120EADE4FF1241D2E4FFA8
:103BB50012199AE4FF124506C004C005C006C007E5
:103BC500E4FF1245A2D003D002D001D000120807AD
:0F3BD5001230C5E4FBFA7D0A7F80121F0B80BF00
:0148C60022CF
:0148C70022CE
:1044EC00D20B1232C490033D7401F0123F42E4FB34
:0A44FC00FA7D197F80121F0B80E685
:1030C500900314120EAD7F667EE67D337C4390033C
:1030D50014E0F8A3E0F9A3E0FAA3E0FB120A9E408E
:1030E5000A900314120EB94333E6667FCD7ECC7D7C
:1030F500CC7C3D900314E0F8A3E0F9A3E0FAA3E04B
:10310500FB120A9E6002500A900314120EB93DCCC0
:10311500CCCDE4FBFA79347843900314E0FCA3E0CA
:10312500FDA3E0FEA3E0FF120A01900319120EAD04
:103135007F0112368EE4FBFA79347843900314E06C
:10314500FCA3E0FDA3E0FEA3E0FF120A01A804A989
:1031550005AA06AB07E4FFFE7D807C3F12080390BD
:0C3165000319120EADE4FF12368ED322C7
:10427700535443313577346B3538733427732055AE
:1042870041525431206973206F70656E200D0A000A
:103F7B009002FE7440F0A37402F0A3120EAD9003F6
:103F8B00057401F0E4A3F0A304F0A3F0E4A3F0A301
:103F9B00F07B017A0279FE7F01120F207BFF7A42C0
:053FAB0079770246BC1D
:103C42007F007EC27D017C00123F7B124337E4FD80
:103C52007F01124461123A409002FF120EB94040B5
:103C62000000900303120EB93CA3D70A9003071277
:103C72000EB93F800000E4FF122A7B9002FF120E71
:103C8200B900000000E4FF1241909002FF120EB949
:093C920043480000E4FF0241B1C7
:1040D6007374657033206973206F6B0A007374659F
:1040E6007032206973206F6B0A007374657031201B
:0740F6006973206F6B0A00E3
:06341000C104C105C10664
:102DD10030046D30051F300607C204C205C2062249
:102DE1007F011245D6E4FF1245D6D2067BFF7A4019
:102DF10079D6022E9C7D887C137F011241497F0187
:102E01001243755032900319120EB93C23D70A7F31
:102E11000112368E900319120EB93F7D70A4E4FFA2
:102E210012368EE4FF1245D67F011245D6D2057BBC
:102E3100FF7A4079E380647F01124394506C80658E
:102E4100900315120EB942C80000E4FF1242567DEC
:102E5100887C137F011241497F011244D1E4FF12A2
:102E610044D1E4FF12471EE4FF124520120B491220
:102E71004842AC06AD07EC120B10E4FBFAF97840BE
:102E8100120A9E602540237F0112437550107F0175
:102E910012468BD2047BFF7A4079F00246BC7F0157
:0A2EA10012439450057F011242F71E
:012EAB002204
:0148C80022CD
:0148C90022CC
:0148CA0022CB
:0148CB0022CA
:03000B00021C8C48
:101C8700C2AF80FE32121C8B85D00B75D008AAE03C
:101C9700C28CE58A243DF58AE58C34F7F58CD28C25
:101CA700EC2423F8E6BC070274FFC39581B4140043
:101CB70040CE7908780E16E608700BC2AFE630E121
:101CC700034418F6D2AF08D9EDEA8BD0300C0122C5
:101CD700D50DFCC0E0C0D0C0F0C083C082C000C03A
:101CE70001C002C003C004C005C006C007E50C233D
:101CF700240FF87440C2AF46F6D2AFD20CE50CFF02
:101D070023240FF80F0808BF08047F00780FE63078
:101D1700E4F200E50CC39F5020050C7422250CF853
:101D2700E6FDA68108E6AE0CBE070274FFCDF8E813
:101D37006D60E008E6C0E080F6E50CD39F4027E53C
:101D47000C2423F8E6AE0CBE070274FFFD18E6CD9F
:101D5700F8E5816D6006D0E0F61880F5E50C2422E1
:101D6700C8F6150C80D3750D0AE50C23240FF87FF0
:101D770004C2AFE610E61E30E00310E20C7F00302D
:101D8700E10730E3047F0854F4547CC6D2AF548093
:101D97004207C20C22F6D2AFD007D006D005D00436
:101DA700D003D002D001D000D082D083D0F0D0D0E1
:0E1DB700D0E0C20C227822A68174076006FFDD
:101DC5000876FFDFFB7F08E4780EF608F608DFFAF1
:101DD500780F76309047CD740193C0E0E493C0E06E
:101DE500750D0A438901758A36758CF7D28CD2AF89
:041DF500D2A9220746
:102A7B00AB07EB75F039A42494F582E43402F583AB
:102A8B00120EB900000000EB75F039A42498F58202
:102A9B00E43402F583120EB900000000EB75F03937
:102AAB00A424ACF582E43402F583120EB9000000C5
:102ABB0000EB75F039A424A8F582E43402F58312F7
:102ACB000EB9000000009002FFE0FCA3E0FDA3E0C4
:102ADB00FEA3E0FFEB75F039A4249CF582E43402ED
:102AEB00F583120EAD900303E0FCA3E0FDA3E0FE23
:102AFB00A3E0FFEB75F039A424A0F582E43402F5D2
:102B0B0083120EAD900307E0FCA3E0FDA3E0FEA350
:102B1B00E0FFEB75F039A424A4F582E43402F583CD
:102B2B00120EADEB75F039A4249CF582E43402F55A
:102B3B0083E0FCA3E0FDA3E0FEA3E0FFEB75F0391F
:102B4B00A424B4F582E43402F583120EADEB75F0D8
:102B5B0039A424A0F582E43402F583E0FCA3E0FD64
:102B6B00A3E0FEA3E0FFEB75F039A424B0F582E4FB
:102B7B003402F583120EADEB75F039A424A4F58263
:102B8B00E43402F583E0FCA3E0FDA3E0FEA3E0FF49
:102B9B00EB75F039A424B8F582E43402F583020E08
:012BAB00AD7C
:10471E00EF75F039A424C4F582E43402F5837401F4
:02472E00F02277
:10477800EF75F039A424C4F582E43402F583E4F03B
:01478800220E
:10199A00900314EFF0E0FF75F039A42490F582E487
:1019AA003402F583E0F8A3E0F9A3E0FAA3E0FBEF41
:1019BA0075F039A4248CF582E43402F583E0FCA3A3
:1019CA00E0FDA3E0FEA3E0FF120803900314E0FB8E
:1019DA0075F039A42494F582E43402F583120EAD2D
:1019EA00EB75F039A42494F582E43402F583E0FC23
:1019FA00A3E0FDA3E0FEA3E0FF120B49124842ACAC
:101A0A0006AD07EC120B10E4FBFA79707841120A62
:101A1A009E90031460025003021AF2E0FB75F0393B
:101A2A00A424B0F582E43402F583E0FCA3E0FDA32C
:101A3A00E0FEA3E0FFEB75F039A424A0F582E434BC
:101A4A0002F583120EAD900314E075F039A424A8B0
:101A5A00F582E43402F583C083C082E0FCA3E0FD92
:101A6A00A3E0FEA3E0FF900314E075F039A42494E8
:101A7A00F582E43402F583E0F8A3E0F9A3E0FAA3DF
:101A8A00E0FB120807D082D083120EAD900314E057
:101A9A0075F039A424B4F582E43402F583E0FCA39A
:101AAA00E0FDA3E0FEA3E0FF7433FBFAF978BF126E
:101ABA000807900314E0FB75F039A4249CF582E42E
:101ACA003402F583120EADEB75F039A424B8F58211
:101ADA00E43402F583E0FCA3E0FDA3E0FEA3E0FF0B
:101AEA00E4FBFAF978BF804DE0FB75F039A424A035
:101AFA00F582E43402F583120EB900000000EB759A
:101B0A00F039A424A8F582E43402F583120EB90050
:101B1A00000000900314E075F039A424B8F582E4BB
:101B2A003402F583E0FCA3E0FDA3E0FEA3E0FFE4BA
:101B3A00FBFAF9783F120807900314E075F039A40C
:101B4A0024A4F582E43402F583120EAD900314E066
:101B5A00FF75F039A424A8F582E43402F583E0F88D
:101B6A00A3E0F9A3E0FAA3E0FBEF75F039A424A0FF
:101B7A00F582E43402F583E0FCA3E0FDA3E0FEA3D2
:101B8A00E0FF1208F8C004C005C006C0079003149D
:101B9A00E0FF75F039A42494F582E43402F583E079
:101BAA00F8A3E0F9A3E0FAA3E0FBEF75F039A42467
:101BBA009CF582E43402F583E0FCA3E0FDA3E0FE99
:101BCA00A3E0FF1208F8D003D002D001D000120817
:101BDA0007C004C005C006C007900314E0FF75F0F3
:101BEA0039A42498F582E43402F583E0F8A3E0F9F5
:101BFA00A3E0FAA3E0FBEF75F039A42494F582E49C
:101C0A003402F583E0FCA3E0FDA3E0FEA3E0FF12AB
:101C1A000803900314E075F039A424A4F582E4348F
:101C2A0002F583E0F8A3E0F9A3E0FAA3E0FB1208C7
:101C3A00F8D003D002D001D000120807900314E0B4
:101C4A00FB75F039A424ACF582E43402F583120E54
:101C5A00ADEB75F039A42494F582E43402F583E0FF
:101C6A00FCA3E0FDA3E0FEA3E0FFEB75F039A4249A
:0D1C7A0098F582E43402F583120EADD322FA
:10419000AB079002FFE0FCA3E0FDA3E0FEA3E0FF7D
:1041A000EB75F039A424C0F582E43402F583020EE5
:0141B000AD61
:1041B100AB079002FFE0FCA3E0FDA3E0FEA3E0FF5C
:1041C100EB75F039A424BCF582E43402F583020EC8
:0141D100AD40
:1041D200AB07900315E0FCA3E0FDA3E0FEA3E0FF24
:1041E200EB75F039A42490F582E43402F583020ED3
:0141F200AD1F
:1041F300AB079004EDE0FCA3E0FDA3E0FEA3E0FF2A
:10420300EB75F039A424A0F582E43402F583020EA1
:01421300ADFD
:10421400AB079004F2E0FCA3E0FDA3E0FEA3E0FF03
:10422400EB75F039A4249CF582E43402F583020E84
:01423400ADDC
:10423500AB079004F7E0FCA3E0FDA3E0FEA3E0FFDD
:10424500EB75F039A424A4F582E43402F583020E5B
:01425500ADBB
:10425600AB07900315E0FCA3E0FDA3E0FEA3E0FF9F
:10426600EB75F039A4248CF582E43402F583020E52
:01427600AD9A
:10450600EF75F039A4248CF582E43402F583E0FCDF
:0A451600A3E0FDA3E0FEA3E0FF22F6
:10452000EF75F039A42494F582E43402F583E0FCBD
:0A453000A3E0FDA3E0FEA3E0FF22DC
:10453A00EF75F039A42498F582E43402F583E0FC9F
:0A454A00A3E0FDA3E0FEA3E0FF22C2
:10455400EF75F039A4249CF582E43402F583E0FC81
:0A456400A3E0FDA3E0FEA3E0FF22A8
:10456E00EF75F039A424A0F582E43402F583E0FC63
:0A457E00A3E0FDA3E0FEA3E0FF228E
:10458800EF75F039A424A4F582E43402F583E0FC45
:0A459800A3E0FDA3E0FEA3E0FF2274
:1045A200EF75F039A424ACF582E43402F583E0FC23
:0A45B200A3E0FDA3E0FEA3E0FF225A
:1045BC00EF75F039A424A8F582E43402F583E0FC0D
:0A45CC00A3E0FDA3E0FEA3E0FF2240
:10473000EF75F039A424C4F582E43402F583E02453
:02474000FF2256
:05281100900351EDF001
:10281600E4900358F0A3F0900354E0FFA3E0900384
:102826005ACFF0A3EFF0900352E0FFA3E090035CD1
:10283600CFF0A3EFF0E4900356F0A3F0900351E03D
:10284600FF900356E0FCA3E0FDC39F7480F8EC64A0
:102856008098400302290BED25E0FFEC338F82F5CB
:1028660083120CC1FFC390035BE09F90035AE0956F
:10287600F0501D900357E025E0FF900356E0338F9C
:1028860082F583120CC1FF90035AE5F0F0A3EFF036
:10289600900357E025E0FF900356E0338F82F583DF
:1028A600120CC1FFD390035DE09F90035CE095F0AE
:1028B600401D900357E025E0FF900356E0338F82DA
:1028C600F583120CC1FF90035CE5F0F0A3EFF090E6
:1028D6000357E025E0FF900356E0338F82F583121D
:1028E6000CC1FFAEF0900359E02FF0900358E03E84
:1028F600F0900357E004F06003022842900356E08C
:1029060004F002284290035CE0FEA3E0FF90035B24
:10291600E02FFF90035AE03EFEC3900359E09FFF6D
:10292600900358E09EFEF0A3EFF0900351E024FEE2
:10293600FDE434FFFC120C56900358EEF0A3EFF0C2
:01294600226E
:10341600602A03E400000000000000000000000035
:103426000000000000000000000000000000000096
:0E343600000000000000000000000000000088
:1031710090034BEBF0A3EAF0A3E9F0900003120BEC
:10318100E3FF900347E0FBA3E0FAA3E0F9A3E0FE2D
:10319100F582758300EF120C2290034BE0FBA3E054
:1031A100FAA3E0F9900002120BE3FFEE2401FDE423
:1031B10033FC900347E0FBA3E0FAA3E0F98D828C96
:1031C10083EF120C2290034BE0FBA3E0FAA3E0F99A
:1031D100900001120BE3FFEE2402FDE433FC9003A7
:1031E10047E0FBA3E0FAA3E0F98D828C83EF120C98
:1031F1002290034BE0FBA3E0FAA3E0F9120BCAFF14
:10320100EE2403FDE433FC900347E0FBA3E0FAA3C3
:0A321100E0F98D828C83EF020C229D
:103F420090033DE0900343F0122947E490033EF0D2
:103F520090033DE0FF12336B90033EE0FEC39F509F
:103F62001774E42EF582E43403F583E0FF1240FD7A
:083F720090033EE004F080D84A
:013F7A002224
:1029470090033F120EAD900343E0FFD3940A400378
:10295700022A7AEF7003022A7AEF14B40A004003BE
:10296700022A7A90297875F003A4C58325F0C583D8
:10297700730229960229AC0229C30229DA0229F136
:10298700022A07022A1D022A33022A49022A5F90D5
:1029970003477401F0A37403F0A374E4F0A3740174
:1029A700F0FB022A739003477401F0A37403F0A3AA
:1029B70074E4F0A37405F07B01022A739003477453
:1029C70001F0A37403F0A374E4F0A37409F07B018E
:1029D700022A739003477401F0A37403F0A374E40D
:1029E700F0A3740DF07B01022A739003477401F082
:1029F700A37403F0A374E4F0A37411F07B01806C5B
:102A07009003477401F0A37403F0A374E4F0A37474
:102A170015F07B0180569003477401F0A37403F00F
:102A2700A374E4F0A37419F07B018040900347740A
:102A370001F0A37403F0A374E4F0A3741DF07B0109
:102A4700802A9003477401F0A37403F0A374E4F0A1
:102A5700A37421F07B0180149003477401F0A374E1
:102A670003F0A374E4F0A37425F07B017A03793FA4
:042A77001231712285
:10336B00EFD3940A5003EF70037F00229003E474B1
:10337B0024F0EF14B40A00400302340D903395751A
:10338B00F003A4C58325F0C583730233B30233BCAA
:10339B000233C50233CE0233D70233E00233E902E4
:1033AB0033F20233FB0234049003E97405F07F0619
:1033BB00229003ED7409F07F0A229003F1740DF053
:1033CB007F0E229003F57411F07F12229003F97493
:1033DB0015F07F16229003FD7419F07F1A229004CA
:1033EB0001741DF07F1E229004057421F07F2222B0
:1033FB009004097425F07F262290040D7429F07F28
:05340B002A227F0022CF
:104742009004FBEEF0A3EFF0A3EBF0A3EAF0A3E9F1
:02475200F02253
:08344400C100C101C102C10376
:104337009002FF7478F0E49002FEF07B017A027934
:0E434700FE7F02122371D2A3D2A4D2A5D2A669
:014355002245
:0A484E00EF4E7005EE4F24FFB32279
:1043D100EF24F0600F24F0600E24E0600D243870AB
:0D43E1000BA20022A20122A20222A20322AE
:103CF300A2A3E4FE33FF12484E500EA2A3E433FF07
:103D030012484E5006D2008002C200A2A4E4FE3341
:103D1300FF12484E5007200106D2018002C201A2C1
:103D2300A5E4FE33FF12484E5007200206D202805C
:103D330002C202A2A6E4FE33FF12484E500620033D
:073D430005D20322C2032296
:02344C00C10DB0
:10400E009005157405F0E4900514F07B017A05799E
:10401E00147F051223711248B17FC81247ED124862
:07402E00B67FC81247EDD375
:014035002268
:0548B100C2CDD20D2272
:0548B600D2CDC20D226D
:10416E00900516EFF0900516E0FF14F0EF601212B6
:10417E0048B17FC81247ED1248B67FC81247ED808E
:02418E00E42229
:0348BF00A20D2225
:06489300900517EFF02272
:10368E00900318EFF07F337E337D737C3FA3E0F819
:10369E00A3E0F9A3E0FAA3E0FB120A9E600C400A35
:1036AE00900319120EB93F7333337FCD7ECC7D4C10
:1036BE007C3D900319E0F8A3E0F9A3E0FAA3E0FB48
:1036CE00120A9E500A900319120EB93D4CCCCD90A1
:1036DE000319E0FCA3E0FDA3E0FEA3E0FF90031EB0
:1036EE00120EAD900318E0FF122CC2900319E0FCED
:1036FE00A3E0FDA3E0FEA3E0FF120B49900318E048
:0E370E0025E02401F582E43405F583EFF02276
:1044D100900314EFF0124036900314E025E024001D
:0B44E100F582E43405F5837401F0223D
:1045D600900518EFF0124124900518E025E024001C
:0A45E600F582E43405F583E4F022C9
:1047DD00EF25E02400F582E43405F583E024FF2283
:103A4000E49002FEF0A37480F07B017A0279FE7F9D
:103A5000031223719002FF7402F07B017A0279FE57
:103A6000FF122371D2B7D2A143BA80E4900300F0D1
:103A7000A3F0A3F0A304F0E4A3F0A3F0A3F0A3F059
:103A8000A3F0A3F0A3F0A3F0A3F0A3F0A3F0A3F09E
:103A90007B017A037900FF1216007B017A0379001B
:103AA0007F011216007D887C13E4FF123B247D8881
:0A3AB0007C137F01123B2453BA7F00
:013ABA0022E9
:05219D0090040EEFF0BC
:1021A200E490041DF0A37480F07B017A04791D7F12
:1021B20003122371D2B743BA80E490041FF0A3F054
:1021C200A3F0A304F0E4A3F0A3F0A3F0A3F0A3F020
:1021D200A3F0A3740FF0E4A3F0A3F0A3F0A3F0A381
:1021E200F090040EE0FF7B017A04791F121600536F
:1021F200BA7F90040EE0FF7D101247AB90040EE010
:10220200FF7D327C00123B2490040FE0FCA3E0FD32
:10221200A3E0FEA3E0FF90040EE0FB75F025A424EA
:1022220063F582E43403F583120EAD900413E0FCEF
:10223200A3E0FDA3E0FEA3E0FFEB75F025A4246775
:10224200F582E43403F583120EAD900417E0FCA38B
:10225200E0FDA3E0FEA3E0FFEB75F025A42475F5F5
:1022620082E43403F583120EAD90041BE0FEA3E07A
:10227200FFEB75F025A4246FF582E43403F583EEB9
:10228200F0A3EFF0EB75F025A42463F582E43403A8
:10229200F583E0F8A3E0F9A3E0FAA3E0FB90040ED3
:1022A200E075F025A42467F582E43403F583E0FCAD
:1022B200A3E0FDA3E0FEA3E0FF120803C004C005F3
:1022C200C006C00790040EE075F025A4246FF582C5
:1022D200E43403F583E0FCA3E0FDE4120B10A80450
:1022E200A905AA06AB07D007D006D005D004120A6A
:1022F2000190040EE0FB75F025A4246BF582E43412
:1023020003F583120EADEB75F025A4246FF582E47C
:102312003403F583E0FCA3E0FDE4120B10A804A94A
:1023220005AA06AB0790040EE075F025A42475F506
:1023320082E43403F583E0FCA3E0FDA3E0FEA3E026
:10234200FF120A0190040EE0FB75F025A42479F532
:1023520082E43403F583120EADEB75F025A42471EB
:0E236200F582E43403F583120EB9000000008A
:01237000224A
:052BAC009004B8EFF0F9
:102BB100A3E0FCA3E0FDA3E0FEA3E0FF9004B8E0E6
:102BC100FB75F025A4245EF582E43403F583120E2F
:102BD100ADEB75F025A42479F582E43403F583E0A7
:102BE100F8A3E0F9A3E0FAA3E0FB9004B9E0FCA3A9
:102BF100E0FDA3E0FEA3E0FF120A019004B8E07536
:102C0100F025A4246BF582E43403F583E0F8A3E016
:102C1100F9A3E0FAA3E0FB1208F89004B8E075F01C
:102C210025A42463F582E43403F583E0F8A3E0F9F5
:102C3100A3E0FAA3E0FB1208079004B8E0FB75F0EB
:102C410025A4247FF582E43403F583120EADEB75E0
:102C5100F025A4247FF582E43403F583E0FCA3E0AE
:102C6100FDA3E0FEA3E0FFE4FBFA79A07841120A9C
:102C7100019004BD120EAD9004BDE0FCA3E0FDA3E4
:102C8100E0FEA3E0FF90031E120EAD9004B8E0FF3A
:102C9100122CC29004B8E0FB75F025A4245EF582E5
:102CA100E43403F583E0FCA3E0FDA3E0FEA3E0FF31
:102CB100EB75F025A42471F582E43403F583020E4B
:012CC100AD65
:1045F000EF75F025A42471F582E43403F583E0FC23
:0A460000A3E0FDA3E0FEA3E0FF220B
:10429700900519EFF0124036900519E075F025A446
:1042A700247DF582E43403F583E4F0A304F0D322FC
:1043560090051AEFF012412490051AE075F025A495
:0F436600247DF582E43403F583E4F0A3F0D32241
:103556009004E6EFF075F00EA42459F582E43404E5
:10356600F583E0FEA3E0FF7C007D63120C56EF249A
:1035760001FFE43EFE9004EBE0FD7C00120C44AA41
:1035860006AB079004E6E075F00EA42459F582E434
:103596003404F583E0FEA3E0FF7D63120C56C3EB13
:1035A6009FFDEA9EFCC004C005900458E0FCE412AE
:1035B6000B159004E7E0F8A3E0F9A3E0FAA3E0FB1B
:1035C6001208F8900454E0F8A3E0F9A3E0FAA3E0A7
:1035D600FB120A01120B49E4FCFD9004D4120EAD55
:0E35E6009004E6E0FFD005D004123C9BD322F7
:103FB00090051BEBF0C007AE04AF057C017D6812D5
:103FC0000C44AC06AD07E4120B109004E7120EADE2
:0F3FD00090051BE09004EBF0D007123556D3227A
:10478900EF75F00EA42450F582E43404F583E0FFBC
:0147990022FD
:07487E0090051CEFF0D322AE
:1044450090051DEFF01242D790051DE075F00EA402
:0C4455002450F582E43404F583E4F022E6
:1043EE0090051EEFF01242B790051EE075F00EA478
:0D43FE002450F582E43404F5837401F022AC
:0748850090051FEFF0D322A4
:07488C00900520EFF0D3229C
:103D4A00AB079004C2E0FCA3E0FDA3E0FEA3E0FF02
:103D5A00EB75F00EA42454F582E43404F583120EB4
:103D6A00AD9004C6E0FFEB75F00EA42458F582E48A
:103D7A003404F583EFF09004C7E0FEA3E0FFEB758F
:103D8A00F00EA42459F582E43404F583EEF0A3EF8F
:043D9A00F0023ABB3E
:0F47FD0074082FF582E43405F5837401F0D3229C
:0E480C0074082FF582E43405F583E4F0D3221E
:0148CC0022C9
:104461009002FEEFF0A3EDF0A37401F0E4A3F0A33A
:0C447100F0A3F07B017A0279FE023D9E70
:1032C400E490034DF0200B0302335CF0E4FF123B67
:1032D400E490034DE025E02439F582E43403F583DA
:1032E400EEF0A3EFF090034DE004F0E0C3940A4045
:1032F400DB7B017A0379399003527404F0A3E4F080
:10330400A3F0A3F07D0A122811AC06AD07E4120B5A
:10331400109004C9120EAD7F947EF67DA67C3E907B
:1033240004C9E0F8A3E0F9A3E0FAA3E0FB1208F86B
:103334007B487AE1799A78C11208079004C9120E81
:10334400AD9004C9E0FCA3E0FDA3E0FEA3E0FFA36D
:10335400120EAD9004C980039004CDE0FCA3E0FDFF
:06336400A3E0FEA3E0FF60
:01336A002240
:10447D00900521EFF0D2C87F011247ED900521E0A4
:0C448D00F5C0D2CA7F011247EDC2CA225E
:103FDF0090050BEBF0A3EAF0A3E9F090050BE0FBE3
:103FEF00A3E0FAA3E0F9120BCAFFD39400400F121B
:0F3FFF00447D90050CE475F001120CAB80DD22BF
:10440B001243B3D2CCC2CAC2C97F381244997F0CB3
:0D441B001244997F061244997F01024499D2
:10449900900522EFF0C2C87F011247EDD2CA9005FC
:0C44A90022E0F5C07F011247EDC2CA22DC
:1043B30053C9EF43CA1053C9FE53CAFE53C9FD5331
:0E43C300CAFD53C9FB53CAFBE4F5B3F5B4229F
:08467200900504ECF0A3EDF04B
:10467A00E4A3F0A3EFF07B017A057906E4FF0223B5
:01468A0071BE
:05479A00900523EFF083
:0B479F00E4FF00000FEFB408F9000079
:0147AA0022EC
:10344E004404430000000044043F00000000440414
:10345E003B00000000440437000000004404330029
:0A346E0000000044042F00000000DD
:103C9B009004D1EFF0A3ECF0A3EDF09004D2E0FC94
:103CAB00A3E0FD7F05123B249004D2E0FEA3E0FFCE
:103CBB009004D1E0FB75F007A4244BF582E43404A7
:103CCB00F583EEF0A3EFF09004D4E0FCA3E0FDA3AA
:103CDB00E0FEA3E0FFEB75F007A42447F582E43484
:083CEB0004F583120EADD32293
:1042B700900524EFF07F05124036900524E075F055
:1042C70007A4244DF582E43404F5837401F0D32266
:1042D700900525EFF02405FF124124900525E07590
:1042E700F007A4244DF582E43404F583E4F0D322E7
:10475400EF75F007A4244DF582E43404F583E024D6
:02476400FF2232
:103ABB00E4900495F0A37480F07B017A0479957FF0
:103ACB0001122371D29790031E120EB93F00000012
:103ADB007F05122CC243BA80E4900497F0A3F0A3A5
:103AEB00F0A304F0E4A3F0A3F0A3F0A3F0A3F0A3DE
:103AFB00F0A3740FF0E4A3F0A304F0E4A3F0A30489
:103B0B00F0E4A3F07B017A0479977F05121600533A
:093B1B00BA7F7D107F050247AB63
:0300B300022EAC6E
:102EAC00C0E0C0F0C083C082C0D075D000C000C0EC
:102EBC0001C002C003C004C005C006C007E5F6602F
:102ECC002B53F6DF900443120E78900447E0F8A3DE
:102EDC00E0F9A3E0FAA3E0FBD3120E2450619004B6
:102EEC0047120EB9000000007F05802DE5F6602E1C
:102EFC0053F6EF90043F120E7890044EE0F8A3E0E6
:102F0C00F9A3E0FAA3E0FBD3120E24503290044E46
:102F1C00120EB9000000007F041241248021E5F656
:102F2C00600553F6F78018E5F6600553F6FB800F45
:102F3C00E5F6640160028004E5F6600353F6FDD00B
:102F4C0007D006D005D004D003D002D001D000D0D9
:0A2F5C00D0D082D083D0F0D0E03254
:103D9E00120BCAF59D900001120BE3FFE5BC549F78
:103DAE004FF5BC900002120BE3B4010543BC8080BA
:103DBE000353BC7F900003120BE3B401054397201D
:103DCE0080035397DF900005120BE3B40104D2ADCC
:103DDE008002C2AD900004120BE3B40103D2BD22E7
:033DEE00C2BD2231
:0C483600EFB4010443BC802253BC7F227D
:103BE400EFD3940740028051E4F5BDF5BEE5BC5423
:103BF400E044084FF5BC00000000E4FBE5BC30E401
:103C04003353BCEFE59730E509E5BD5403ADBEFC85
:103C1400801DAFBD7C00AD07ED7E007802C333CEBE
:103C240033CED8F9FFE5BE5403FDEEFCEF4DFDAFF6
:0D3C340005AE04220BEBB4FAC37E047F0042
:013C41002260
:03002B000248BBCD
:0448BB0053BCEF32C9
:0F47ED007D367C07ED1D70011C144C70F7DFF159
:0147FC00229A
:0348C200A20E2221
:10237100EFD3940540037F0122120BCAFED39403CD
:1023810040037F0222EF7041EE700B900001120BAF
:10239100E3F452935294120BCAB4010B9000011250
:1023A1000BE34293F45294120BCAFEB4020A90005A
:1023B10001120BE342934294EEB4030D900001121B
:1023C1000BE3FEF45293EE4294EF64017043120B5F
:1023D100CAFE700B900001120BE3F452915292EE7F
:1023E100B4010B900001120BE34291F45292120BD3
:1023F100CAB4020A900001120BE342914292120BFD
:10240100CAB4030D900001120BE3FEF45291EE42A7
:1024110092EF64027043120BCAFE700B900001121E
:102421000BE3F452955296EEB4010B900001120B9E
:10243100E34295F45296120BCAB4020A90000112BB
:102441000BE342954296120BCAB4030D90000112A0
:102451000BE3FEF45295EE4296EF64037043120BC8
:10246100CAFE700B900001120BE3F452B152B2EEAE
:10247100B4010B900001120BE342B1F452B2120B02
:10248100CAB4020A900001120BE342B142B2120B2C
:10249100CAB4030D900001120BE3FEF452B1EE42F7
:1024A100B2EF64047043120BCAFE700B900001126C
:1024B1000BE3F452B352B4EEB4010B900001120BD2
:1024C100E342B3F452B4120BCAB4020A90000112EF
:1024D1000BE342B342B4120BCAB4030D90000112D4
:1024E1000BE3FEF452B3EE42B4EF64057043120BFA
:1024F100CAFF700B900001120BE3F452C952CAEFEC
:10250100B4010B900001120BE342C9F452CA120B41
:10251100CAB4020A900001120BE342C942CA120B6B
:10252100CAB4030D900001120BE3FFF452C9EF424C
:04253100CA7F00223B
:10301700EF7034D3ED9498EC940340047C037D98CF
:10302700C3ED9450EC940050047C007D50C2DE90B8
:103037000489ECF0A3EDF0C374E89D900484F07468
:10304700039C9004838073EF64017034D3ED94681C
:10305700EC940B40047C0B7D68C3ED9450EC94001A
:1030670050047C007D50C2DE90048BECF0A3EDF0A1
:10307700C374B89D900486F0740B9C900485803AC5
:10308700EF64027038D3ED9480EC940740047C071A
:103097007D80C3ED9450EC940050047C007D50C2B9
:1030A700DE90048DECF0A3EDF0AE04FFC374D09F67
:0E30B700900488F074079E900487F0D2DE2209
:1025350090050EEBF0A3EAF0A3E9F0AD07EDD39417
:102545000340030226D3ED6403704CC2DEF5F9F5B2
:10255500E990050EE0FBA3E0FAA3E0F9120BCAFF30
:10256500E5A254CF4FF5A2900001120BE3FFE5D988
:1025750054F14FF5D9900004120BE35401FFE5D94E
:1025850054FE4FF5D9900005120BE3B40104D2BFF8
:102595008002C2BFD2DE2290050EE0FBA3E0FAA3C3
:1025A500E02404F9E43AFA120BCA5431120C1090E3
:1025B500050EE0FBA3E0FAA3E0F9900002120BE39D
:1025C500C39448400FE92404F9E43AFA120BCA54BB
:1025D500CF120C10ED704F90050EE0FBA3E0FAA3AF
:1025E500E0F9900004120BE3FF900002120BE3FEEA
:1025F5004FF5DA900003120BE3FFE5F2543F4FF578
:10260500F2900006120CC1FBAAF0900489EAF0A32F
:10261500EBF0C207900480EEF090048FEAF0A3EB94
:10262500F0F5EAEAF5FAED6401704F90050EE0FB6E
:10263500A3E0FAA3E0F9900004120BE3FF90000277
:10264500120BE3FE4FF5DB900003120BE3FFE5F3FE
:10265500543F4FF5F3900006120CC1FBAAF090040D
:102665008BEAF0A3EBF0C208900481EEF0900491A0
:10267500EAF0A3EBF0F5EBEAF5FBED6402704F90A1
:10268500050EE0FBA3E0FAA3E0F9900004120BE3CA
:10269500FF900002120BE3FE4FF5DC900003120BD6
:1026A500E3FFE5F4543F4FF5F4900006120CC1FD2D
:1026B500ACF090048DECF0A3EDF0C209900482EE2D
:0F26C500F0900493ECF0A3EDF0F5ECECF5FC22B3
:1026D400900512ECF0A3EDF0900511EFF0705ED3CD
:1026E400EB9464EA940040047A007B64C3EB9401A5
:1026F400EA940050047A007B01C2DE900512E0FEE9
:10270400A3E0FFAD03AC02120C447C007D64120C08
:1027140056900489EEF0A3EFF07C007D64AF03AE25
:1027240002120C56C374019FFFE49EFE900512E052
:10273400FCA3E0FD120C44900483022809900511C7
:10274400E06401705DD3EB9464EA940040047A0081
:102754007B64C3EB9401EA940050047A007B01C2C9
:10276400DE7C007D64AF03AE02120C56900512E0CD
:10277400FCA3E0FD120C4490048BEEF0A3EFF07C7C
:10278400007D64AF03AE02120C56C374019FFFE4D4
:102794009EFE900512E0FCA3E0FD120C449004851B
:1027A4008063900511E064027062D3EB9464EA9450
:1027B4000040047A007B64C3EB9401EA9400500463
:1027C4007A007B01C2DE7C007D64AF03AE02120C92
:1027D40056900512E0FCA3E0FD120C4490048DEE2B
:1027E400F0A3EFF0AE02AF037C007D64120C56C37D
:1027F40074019FFFE49EFE900512E0FCA3E0FD122D
:0D2804000C44900487EEF0A3EFF0D2DE222A
:03003B000234B3D9
:1034B300C0E0C083C082C0D075D000C006C0073052
:1034C300D82AC2D830A5059004898003900483E0EC
:1034D300FEA3E0FF900490E02FF090048FE03EF015
:1034E30090048FE0FEA3E0F5EAEEF5FA30D92AC2A4
:1034F300D930A60590048B8003900485E0FEA3E0F9
:10350300FF900492E02FF0900491E03EF09004913C
:10351300E0FEA3E0F5EBEEF5FB30DA2AC2DA30A7E2
:103523000590048D8003900487E0FEA3E0FF9004E0
:1035330094E02FF0900493E03EF0900493E0FEA318
:10354300E0F5ECEEF5FCD007D006D0D0D082D083E6
:03355300D0E03293
:05160000900310EFF063
:10160500E4A3F0900311E0FFC39406505AEF75F080
:101615000AA424A8F582E43403F583120EB9000068
:101625000000900311E0FF75F00AA424ACF582E4F4
:101635003403F583E4F0EF75F00AA424ADF582E4F4
:101645003403F583120EB900000000900311E07514
:10165500F00AA424B1F582E43403F5837401F09013
:101665000311E004F0809C43BA80120BCAB4010553
:1016750043F180800353F17F900001120BE3B40125
:1016850014900310E0FF7401A807088002C333D843
:10169500FC42F18013900310E0FF7401A807088055
:1016A50002C333D8FCF452F1900002120BE3B401EB
:1016B5000543F540800353F5BF900003120BE3B4D7
:1016C5000114900310E0FF7401A807088002C333DA
:1016D500D8FC42F58013900310E0FF7401A80708B9
:1016E5008002C333D8FCF452F5900004120BE3B426
:1016F500010575F720800353F7DF900005120BE312
:10170500B4010575F710800353F7EF900006120B2F
:10171500E3B4010575F708800353F7F79000071246
:101725000BE3B4010575F704800353F7FB9000083C
:10173500120BE3B4010575F702800353F7FD900022
:1017450009120BE390FFF27006E054EFF08004E01D
:101755004410F090FFF2C083C082E0FF90000A12AF
:101765000BE3FEEF4ED082D083F0900310E01460BF
:101775007214700302183B14700302188E14700360
:101785000218E11470030219322405600302198955
:1017950090000B120BE390FF047006E054F7F08005
:1017A50004E04408F090000C120BE390FF04B40130
:1017B50006E04404F08004E054FBF090000D120BA9
:1017C500E390FF04B40106E04402F08004E054FD18
:1017D500F090000E120BE390FF04B4010302197F91
:1017E50002198590000B120BE390FF147006E0546C
:1017F500F7F08004E04408F090000C120BE390FF32
:1018050014B40106E04404F08004E054FBF09000B9
:101815000D120BE390FF14B40106E04402F08004BE
:10182500E054FDF090000E120BE390FF14B4010399
:1018350002197F02198590000B120BE390FF2470AB
:1018450006E054F7F08004E04408F090000C120B19
:10185500E390FF24B40106E04404F08004E054FB67
:10186500F090000D120BE390FF24B40106E0440252
:10187500F08004E054FDF090000E120BE390FF247D
:10188500B4010302197F02198590000B120BE39036
:10189500FF347006E054F7F08004E04408F090004F
:1018A5000C120BE390FF34B40106E04404F080040D
:1018B500E054FBF090000D120BE390FF34B40106E9
:1018C500E04402F08004E054FDF090000E120BE3BA
:1018D50090FF34B4010302197F02198590000B12A1
:1018E5000BE390FF447006E054F7F08004E04408F1
:1018F500F090000C120BE390FF44B40106E04404A1
:10190500F08004E054FBF090000D120BE390FF44CF
:10191500B40106E04402F08004E054FDF090000EAE
:10192500120BE390FF44B40102804F805390000BEB
:10193500120BE390FF547006E054F7F08004E04486
:1019450008F090000C120BE390FF54B40106E0443C
:1019550004F08004E054FBF090000D120BE390FFBF
:1019650054B40106E04402F08004E054FDF0900018
:101975000E120BE390FF54B40106E04401F080041D
:10198500E054FEF090000F120BE3B4010443F58020
:041995002253F57F65
:01199900222B
:10460A00EF75F00AA424A8F582E43403F583E0FCEC
:0A461A00A3E0FDA3E0FEA3E0FF22F1
:10462400EF75F00AA424ADF582E43403F583E0FCCD
:0A463400A3E0FDA3E0FEA3E0FF22D7
:103B2400900310ECF0A3EDF0AB07900310E0FEA3BC
:103B3400E0FFE4FCFDEB75F00AA424A8F582E4346C
:103B440003F583120EAD43BA8053F57FEB75F00A8B
:103B5400A424B1F582E43403F583E0FF7E009003EE
:103B640010E0FCA3E0FD120C44AB07AA06E4F9F84C
:103B7400FF7E367D6E7C01123E801246A453BA7FCE
:013B8400221E
:102CC20090031DEFF07F337E337D737C3FA3E0F8EA
:102CD200A3E0F9A3E0FAA3E0FB120A9E600C400A0B
:102CE20090031E120EB93F7333337FCD7ECC7DCC61
:102CF2007C3C90031EE0F8A3E0F9A3E0FAA3E0FB1A
:102D0200120A9E500A90031E120EB93CCCCCCD90F2
:102D1200031EE0FCA3E0FDA3E0FEA3E0FF90031D81
:102D2200E0FB75F00AA424ADF582E43403F58312C6
:102D32000EAD43BA80EB75F00AA424B1F582E434F7
:102D420003F583E0FFE4FCFDFEEB75F00AA424A882
:102D5200F582E43403F583E0F8A3E0F9A3E0FAA3F3
:102D6200E0FB120CF9A804A905AA06AB077F007EB6
:102D7200367D6E7C01120D84E4120B0B90031DE074
:102D820075F00AA424ADF582E43403F583E0F8A3D8
:102D9200E0F9A3E0FAA3E0FB1208F8E4FBFA7920D9
:102DA20078411208F8E4FBFA79A07840120807E4A7
:102DB200FBFA79207841120A01120B49AB07AA06E5
:0F2DC20090031DE0FFE4FDFC1235F453BA7F22AD
:1047AB00EF75F00AA424B1F582E43403F583EDF040
:0147BB0022DB
:1047BC00EF75F00AA424B1F582E43403F583E0FF2D
:0147CC0022CA
:0A48580043BA8043F58053BA7F2273
:0A48620043BA8053F57F53BA7F225A
:1040360043BA807401A807088002C333D8FC42F54E
:10404600EF75F00AA424ACF582E43403F583740119
:08405600F043F58053BA7F220C
:1041240043BA807401A807088002C333D8FCF45250
:10413400F5EF75F00AA424ACF582E43403F583E4C6
:05414400F053BA7F22D8
:10476600EF75F00AA424ACF582E43403F583E02463
:02477600FF2220
:1046A400D3E49F74809E400D90FFF1EFF0EE90FFF5
:0846B400F0F07F00227F0122DB
:1035F400EF14602814603A14604C14605E14607018
:103604002405600302368B90FF01EDF0EC90FF007F
:10361400F090FF03EBF0EA90FF02806790FF11ED5A
:10362400F0EC90FF10F090FF13EBF0EA90FF1280A3
:103634005290FF21EDF0EC90FF20F090FF23EBF08F
:10364400EA90FF22803D90FF31EDF0EC90FF30F0E6
:1036540090FF33EBF0EA90FF32802890FF41EDF0C9
:10366400EC90FF40F090FF43EBF0EA90FF428013B0
:1036740090FF51EDF0EC90FF50F090FF53EBF0EA27
:0A36840090FF52F07F00227F012228
:102F660054696D65723120696E697469616C697A3C
:102F7600696E672073756363656564200A0054692A
:102F86006D65723120696E697469616C697A696E02
:102F960067206661696C6564200A0054696D657214
:102FA6003320696E697469616C697A696E6720732A
:102FB600756363656564200A0054696D6572332024
:102FC600696E697469616C697A696E6720666169A0
:102FD6006C6564200A0054696D65723420696E69F7
:102FE6007469616C697A696E672073756363656578
:102FF60064200A0054696D65723420696E697469CB
:10300600616C697A696E67206661696C6564200A1D
:0130160000B9
:10347800410471024104720242047300004204755F
:10348800000042046D000042046B000041047F000C
:1034980041046A004104700041046F00440477004D
:0A34A80000000044047B0000000057
:10321B00E49004B7F09004A7F0A3F0A304F0E4A3A8
:10322B00F0A3F09004AEF09004AC74A2F0A3744041
:10323B00F0E49004AFF0A3F0A304F0E4A3F0A3F048
:10324B009004B604F09004B474FFF0A37410F07FF4
:10325B0001121F6A9004B7EFF070087BFF7A2F7989
:10326B0066800A9004B7E07BFF7A2F79841246BC04
:10327B007F03121F6A9004B7EFF070087BFF7A2F61
:10328B0079A1800A9004B7E07BFF7A2F79BF1246B1
:10329B00BC7B017A0479AF7F04121F709004B7EFE7
:1032AB00F070087BFF7A2F79DC800A9004B7E07B03
:0832BB00FF7A2F79FA1246BCDC
:0132C30022E8
:10414900900471E0601EA3E0601AEF24FE600B0486
:104159007012900477ECF0A3EDF0AF0590047BECBE
:05416900F0A3EFF022BD
:10463E00EF24FE600804700E900477800390047BD4
:0A464E00E0FEA3E0FF22E4FEFF22DD
:1044B500EF24FE600C047013900479ECF0A3EDF08A
:0C44C50022AF0590047DECF0A3EFF02284
:10465800EF24FE600804700E900479800390047DB6
:0A466800E0FEA3E0FF22E4FEFF22C3
:10468B00EF24FE600A047010C28E900471800653F2
:09469B00D1F79004727402F022C0
:10442800EF24FE600D047014900471E07002D32232
:0D443800C322900472E07003D38001C32200
:10437500EF24FE600E047016900471E0B40102D3C0
:0F43850022C322900472E0B40103D38001C3224B
:10439400EF24FE600E047016900471E0B40202D3A0
:0F43A40022C322900472E0B40203D38001C3222B
:1042F700AE071244284018EF24FE600B047010D25A
:104307008EE4900471F02243D108E4900472F02205
:0E481A00AE0712437550051242F7D322C32297
:09486C0090046DE0FEA3E0FF22C0
:0948750090046BE0FEA3E0FF22B9
:0648990090047FE0FF2205
:06489F0090046AE0FF2214
:0648A500900470E0FF2208
:0648AB0090046FE0FF2203
:03001B00023E3969
:103E3900C0E0C0F0C083C082C0D075D000C000C04F
:103E490006900473E475F001120CABFED39004786C
:103E5900E095F0900477E09E500EC28E900473E4D2
:103E6900F0A3F090047104F0D006D000D0D0D08235
:073E7900D083D0F0D0E0324D
:03009B00023DF132
:103DF100C0E0C0F0C083C082C0D075D000C000C098
:103E010006900475E475F001120CABFED390047CAE
:103E1100E095F090047BE09E500F53D1F79004752C
:103E2100E4F0A3F090047204F0D006D000D0D0D01A
:083E310082D083D0F0D0E03212
:0300A3000237A879
:1037A800C0E0C0F0C083C082C0D075D000C000C0E7
:1037B80006C2AF90046DE475F00A120CABFEC3E5C7
:1037C800F094E8EE9403405190046DE4F0A3F09077
:1037D800046B75F001120CABFEC3E5F094E8EE94AF
:1037E80003403690046BE4F0A3F090047FE004F00B
:1037F800943C4025E4F090046AE004F0943C4019BD
:10380800E4F0900470E004F09418400DE4F09004A3
:103818006FE004F0B4FF02E4F0D2AFD006D000D0DD
:0A382800D0D082D083D0F0D0E0327F
:061F6A007B017A0479A757
:101F7000AD07EDD3940440037F0122ED7073120B83
:101F8000CAFED3940340037F0222C28CC2A9C2B905
:101F90005389F0538E7F538FFE900002120BE3B4EF
:101FA0000102D2A9900001120BE3B40102D2B9EEF2
:101FB0004289900003120BE3FF7003438E80EFB45D
:101FC0000203438904900004120BE3B40103438F1E
:101FD00001900005120CC1E5F0F58C900005120C83
:101FE000C1F58A900007120BE3B40102D28C7F0086
:101FF00022ED64017076120BCAFEC3940340037F86
:102000000222C28EC2ABC2BB53890F538EBF538F05
:10201000FD900002120BE3B40102D2AB900001125A
:102020000BE3B40102D2BBEEC454F042899000032A
:10203000120BE3FF7003438E40EFB4020343894069
:10204000900004120BE3B40103438F0290000512C9
:102050000CC1E5F0F58D900005120CC1F58B9000D8
:1020600007120BE3B40102D28E7F0022ED640270EE
:1020700063900003120BE3FED3940240037F02221D
:10208000538EE353AFFB538FFB900002120BE3B46C
:10209000010343AF04EE7003438E04900003120B60
:1020A000E3B40203438E08900004120BE3B401036F
:1020B000438F04900005120CC1E5F0F5D6900005A1
:1020C000120CC1F5D7900007120BE3B40103438E45
:1020D000107F0022ED64037060900003120BE3FE9A
:1020E000D3940240037F022253D1F053AFDF90001C
:1020F00002120BE3B4010343AF20EE700343D1029D
:10210000900003120BE3B4020343D10690000412C3
:102110000BE3B4010343D101900005120CC1E5F0BB
:10212000F5D4900005120CC1F5D5900007120BE311
:10213000B4010343D1087F0022ED6404705C900079
:1021400003120BE3FED3940240037F022253D10F0C
:1021500053AFBF900002120BE3B4010343AF40EE54
:10216000700343D120900003120BE3B4020343D168
:1021700060900004120BE3B4010343D110900005FA
:10218000120CC1FDACF0ECF5D28DD3900007120B10
:0D219000E3B4010343D1807F00227F0222CF
:100F200090030CEBF0A3EAF0A3E9F090030BEFF0D1
:100F30006401600302113290000004F0E4A3F0A306
:100F4000F0A3F0A3F0A3F0A3F090030FF090030F31
:100F5000E0FFC39480501474382FF582E43401F517
:100F600083E4F090030FE004F080E2E490030FF0DC
:100F700090030FE0FFC394805014741C2FF582E49B
:100F80003400F583E4F090030FE004F080E2900376
:100F90000CE0FBA3E0FAA3E0F9120BCAD394C04023
:100FA000037F022290000A120BE3B40104D2BC803A
:100FB00002C2BC120BCAFFE598543F4FF598EF648C
:100FC000C06008EF644060030210AC900002120E93
:100FD000487F807E8D7D5B7C00120D849003101213
:100FE0000EADE4FFFE7D01FC900310E0F8A3E0F9F4
:100FF000A3E0FAA3E0FBC3120E2440037F02229079
:101000000310E0F8A3E0F9A3E0FAA3E0FBC3E49B3C
:10101000FFE49AFE740199FDE498FC900310120E0F
:10102000AD90030CE0FBA3E0FAA3E0F990000112FD
:101030000BE3FB64017038C28E538EFE5389BF539D
:1010400089CF438E40900310E0FCA3E0FDA3E0FEB7
:10105000A3E0FF7808120E358F8D900310A3A3A391
:10106000E0F58BC2AB5389BF538FFDD28E8076EBF8
:1010700064027035538EEF438E01538EF7438E0416
:10108000900310E0FCA3E0FDA3E0FEA3E0FF7808DE
:10109000120E358FD6900310A3A3A3E0F5D753AF5C
:1010A000FB538EF7438E10803C7F022290030CE0AE
:1010B000FBA3E0FAA3E0F9120BCAFF70139000083B
:1010C000120BE3B40105438E20801A538EDF801586
:1010D000EFB48011900008120BE3B4010543878040
:1010E000800353877F90030CE0FBA3E0FAA3E0F9B1
:1010F000900009120BE3B40104D2AC8002C2AC90A0
:101100000007120BE3B40104D29C8002C29C900041
:101110000B120BE354C0FFE5A2543F4FF5A2900021
:101120000C120BE3B4010543971080035397EF7F34
:10113000002290030BE06402600302129490000707
:101140007402F0E4A3F0A3F0A3F0A3F0A3F0A3F0E3
:1011500090030FF090030FE0FFC39480501474D4F9
:101160002FF582E43401F583E4F090030FE004F0FE
:1011700080E2E490030FF090030FE0FFC3948050EF
:1011800014749C2FF582E43400F583E4F090030F8F
:10119000E004F080E290030CE0FBA3E0FAA3E0F9A6
:1011A000120BCAFF64C06008EF644060030212546F
:1011B00090000A120BE3B4010543B501800353B557
:1011C000FE120BCAB4C005439A808003539A7F90E5
:1011D0000002120E487F807E8D7D5B7C00120D84A4
:1011E000900310120EADE4FFFE7D01FC900310E0B1
:1011F000F8A3E0F9A3E0FAA3E0FBC3120E24400336
:101200007F0222900310E0F8A3E0F9A3E0FAA3E044
:10121000FBC3E49BFFE49AFE740199FDE498FC9003
:101220000310120EAD538EEF538EF7438E049003CE
:1012300010E0FCA3E0FDA3E0FEA3E0FF7808120E9F
:10124000358FD6900310A3A3A3E0F5D753AFFB438C
:101250008E1080037F022290030CE0FBA3E0FAA330
:10126000E0F9900009120BE3B4010543AF018003DC
:1012700053AFFE900007120BE3B40105439A1080B0
:1012800003539AEF90000B120BE35401FFE5BA549D
:10129000FE4FF5BA90030BE064036003021447901D
:1012A000000E7402F0E4A3F0A3F0A3F0A3F0A3F007
:1012B000A3F090030FF090030FE0FFC3941C5014B1
:1012C00074542FF582E43402F583E4F090030FE0C8
:1012D00004F080E2E490030FF090030FE0FFC3946A
:1012E0001C5014741C2FF582E43401F583E4F09053
:1012F000030FE004F080E290030CE0FBA3E0FAA30C
:10130000E0F9120BCAFF64C06008EF64406003029A
:10131000140753ACDFEFB4C00543AC80800353AC7B
:101320007F90030CE0FBA3E0FAA3E0F99000021227
:101330000E487F807E8D7D5B7C00120D84900310B3
:10134000120EADE4FFFE7D01FC900310E0F8A3E077
:10135000F9A3E0FAA3E0FBC3120E2440037F0222AC
:10136000900310E0F8A3E0F9A3E0FAA3E0FBC3E4E4
:101370009BFFE49AFE740199FDE498FC900310121F
:101380000EAD90030CE0FBA3E0FAA3E0F99000019E
:10139000120BE3FB6402703253ACBF538EEF538EDB
:1013A000F7438E04900310E0FCA3E0FDA3E0FEA34E
:1013B000E0FF7808120E358FD6900310A3A3A3E0A8
:1013C000F5D753AFFB438E108040EB64017035437B
:1013D000AC4053D1F053AFDF43D10253D1FB53D1D3
:1013E000FE900310E0FCA3E0FDA3E0FEA3E0FF7885
:1013F00008120E358FD4900310A3A3A3E0F5D543B4
:10140000D10880067F02227F022290030CE0FBA31A
:10141000E0FAA3E0F9900009120BE3B4010543AF31
:1014200008800353AFF7900007120BE3B4010543A4
:10143000AC10800353ACEF90000B120BE35402FF8F
:10144000E5BA54FD0215F790030BE0640460030253
:1014500015FD9000157402F0E4A3F0A3F0A3F0A32F
:10146000F0A3F0A3F090030FF090030FE0FFC394FC
:101470001C501474702FF582E43402F583E4F0906C
:10148000030FE004F080E2E490030FF090030FE01C
:10149000FFC3941C501474B82FF582E43401F58313
:1014A000E4F090030FE004F080E290030CE0FBA373
:1014B000E0FAA3E0F9120BCAFF64C06008EF6440D1
:1014C00060030215BA5384DFEFB4C0054384808003
:1014D0000353847F90030CE0FBA3E0FAA3E0F990B0
:1014E0000002120E487F807E8D7D5B7C00120D8491
:1014F000900310120EADE4FFFE7D01FC900310E09E
:10150000F8A3E0F9A3E0FAA3E0FBC3120E24400322
:101510007F0222900310E0F8A3E0F9A3E0FAA3E031
:10152000FBC3E49BFFE49AFE740199FDE498FC90F0
:101530000310120EAD90030CE0FBA3E0FAA3E0F958
:10154000900001120BE3FB640270325384BF538E90
:10155000EF538EF7438E04900310E0FCA3E0FDA34D
:10156000E0FEA3E0FF7808120E358FD6900310A39B
:10157000A3A3E0F5D753AFFB438E108040EB64028A
:10158000703543844053D10F53AFBF43D12053D163
:10159000BF53D1EF900310E0FCA3E0FDA3E0FEA356
:1015A000E0FF7808120E358FD2900310A3A3A3E0BA
:1015B000F5D343D18080067F02227F022290030C64
:1015C000E0FBA3E0FAA3E0F9900009120BE3B401F9
:1015D0000543AF10800353AFEF900007120BE3B445
:1015E000010543841080035384EF90000B120BE33A
:0F15F0005404FFE5BA54FB4FF5BA7F00227F0386
:0115FF0022C9
:1040FD00900002E02438F582E43401F583EFF0906E
:10410D000002E004F0C394804002E4F0900003E06C
:07411D00700404F0D29922A6
:10405E00900009E024D4F582E43401F583EFF0906A
:10406E000009E004F0C394804002E4F090000AE0FE
:08407E00700504F0439A0222D0
:10408600900010E02454F582E43402F583EFF090BA
:104096000010E004F0C3941C4002E4F0900011E02C
:0840A600700504F043AC022296
:1040AE00900017E02470F582E43402F583EFF0906F
:1040BE000017E004F0C3941C4002E4F0900018E0F6
:0840CE00700504F04384022296
:1046BC00C2AF120BCAFF600C1240FD740129F9E461
:0746CC003AFA80EED2AF22A2
:1046D300120BCAFF600C12405E740129F9E43AFA26
:0346E30080EE2244
:1046E600120BCAFF600C124086740129F9E43AFAEB
:0346F60080EE2231
:1046F900120BCAFF600C1240AE740129F9E43AFAB0
:0347090080EE221D
:030023000239C1DE
:1039C100C0E0C083C082C0D075D000C006C007303F
:1039D100982DC298900006E07025900004E0C394F1
:1039E100804002E4F0900004E0FF04F0741C2FF525
:1039F10082E43400F583E599F09000057405F03018
:103A01009930C299900002E0FF900001E0FE6F60E2
:103A11001C74382EF582E43401F583E0F5999000A9
:103A210001E004F0C394804009E4F08005900003B4
:0F3A3100E4F0D007D006D0D0D082D083D0E032DE
:030043000238324E
:10383200C0E0C083C082C0D075D000C006C007E51A
:103842009A30E02E539AFE90000DE0702590000B06
:10385200E0C394804002E4F090000BE0FF04F074B7
:103862009C2FF582E43400F583E59BF090000C7404
:1038720005F0E59A30E131539AFD900009E0FF909E
:103882000008E0FE6F601C74D42EF582E43401F56A
:1038920083E0F59B900008E004F0C394804009E4C3
:1038A200F0800590000AE4F0D007D006D0D0D08294
:0538B200D083D0E032DC
:03008B000238B781
:1038B700C0E0C083C082C0D075D000C006C007E595
:1038C700AC30E02E53ACFE900014E070259000124F
:1038D700E0C3941C4002E4F0900012E0FF04F0748F
:1038E7001C2FF582E43401F583E5ADF090001374E5
:1038F70005F0E5AC30E13153ACFD900010E0FF90EE
:10390700000FE0FE6F601C74542EF582E43402F55C
:1039170083E0F5AD90000FE004F0C3941C4009E488
:10392700F08005900011E4F0D007D006D0D0D08207
:05393700D083D0E03256
:0300930002393CF3
:10393C00C0E0C083C082C0D075D000C006C007E50F
:10394C008430E02E5384FE90001BE070259000190B
:10395C00E0C3941C4002E4F0900019E0FF04F07402
:10396C00B82FF582E43401F583E585F090001A74E4
:10397C0005F0E58430E1315384FD900017E0FF90B1
:10398C000016E0FE6F601C74542EF582E43402F5D0
:10399C0083E0F585900016E004F0C3941C4009E424
:1039AC00F08005900018E4F0D007D006D0D0D0827B
:0539BC00D083D0E032D1
:0E482800E4F5C7F5C5F5C675C3FF75C4FF22DC
:103EC400AD07AC06C2AF75C78075C501ECF5C3AFCD
:103ED400058FC475C65A75C6A500E5C2120C100D2F
:103EE400BD00010C740129F9E43AFA9004DD74FF71
:0F3EF400F5F0120CAB45F070D3124828D2AF2274
:10431700AD07AC06C2AFECF5C3AF058FC475C78058
:1043270075C50375C65A75C6A500124828D2AF22AF
:103F0300AD07AC06C2AF75C78075C502ECF5C3AF8C
:103F1300058FC4120BCAF5C275C65A75C6A5000D26
:103F2300BD00010C740129F9E43AFA9004E474FF2A
:0F3F3300F5F0120CAB45F070D3124828D2AF2234
:101DF900EFD3940740037FFF22740F2F2FF8E620BB
:101E0900E5F4C2AFE64430F6D2AFAE0CEEC39F5054
:101E1900210E74222EF8E6F908E618BE070274FFAF
:101E2900FDED69600909E71919F7090980F3161623
:101E390080DAEED39F400405810581EED39F4022CD
:101E490074222EF808E6F9EEB50C02A981180606E7
:101E5900E6FDED6960091919E70909F71980F31E0B
:101E690080D9EF2422F8E604F8EF2F049047CD93A8
:091E7900F608EF2F93F67F00221A
:101E8200EFD3940740037FFF22EF23240FF8E630BD
:101E9200E5F4C2AFE6548CF6D2AFE50CB5070A748E
:101EA200222FF8E6F581021D02502E74232FF8E648
:101EB200BF070274FFFD18E6F974222FF8FBE6FC57
:101EC200E96C6008A805E7F61D1980F4A803A605C9
:101ED2001FE50CB507E37F002274232FF8E6FD18F7
:101EE20086010F74222FF8A601088604E50CB507B7
:101EF20002AC81ED6C60080D09A805E6F780F4E5F7
:091F02000CB507DE89817F002285
:101F0B008FF0E4FFFEE50C23240EF8C2A930F70D89
:101F1B007F08E6600B2DF660325030800730F106FB
:101F2B00EDF660277E020830F010C2AFE610E72511
:101F3B000E30E20CD2AF7F048014C2AFE610E7156F
:101F4B0054EC4EF6D2AFD2A9021D027F0808EF4423
:0F1F5B0083F4C2AF56C6D2AFD2A954804FFF2233
:10080000020BB5E86480F8E933E83360110460F066
:10081000ED33EC337009E8FCE9FDEAFEEBFF22045E
:1008200060DED3EB9FEA9EE99DE8C2E78CF0C2F759
:1008300095F0400CE8CCF8E9CDF9EACEFAEBCFFB25
:10084000120B8085D0F05804700320D5B3E80470F3
:10085000075002B2D5020BBF92D5EC0460F7E4CC8E
:10086000C0E0C398F8603B94186008400DD0E0FBEE
:10087000020B97E4FBFAC9FC8028E830E406E4C9DF
:10088000FBE4CAFCE830E305E4C9CACBFCE8540742
:100890006010F8C3E913F9EA13FAEB13FBEC13FC4D
:1008A000D8F130F52FC3E49CFCEF9BFFEE9AFEEDF0
:1008B00099FDD0E0FBEF4E4D4C701222DB03020B92
:1008C000BCEC2CFCEF33FFEE33FEED33FDED30E7F7
:1008D000EB020B97EF2BFFEE3AFEED39FDD0E0FB7C
:1008E00050130BBB0003020BBFED13FDEE13FEEF25
:0808F00013FFEC13FC020B974F
:1008F800EC4D6011E8497017ED33EC3304600DE4FA
:10090800FCFFFEFD22E933E8330470F8020BB51250
:100918000B8058046009E4CC248150062850090251
:100928000BBF284003020BBCC0E0EB4A7044B980FF
:1009380006D0E0FB020BABEF4E701CBD8008EBFF4E
:10094800EAFEE9FD80EBE98DF0A4FEE5F00209E19D
:10095800E9CDF9EAFEEBFFEF89F0A4FCE5F0CE89DA
:10096800F0A42EFFE435F0CD89F0A42DFEE435F097
:100978008067EF4E7005BD80D780C3EF8BF0A4ACC5
:10098800F0EE8BF0A42CFCE435F0F8EF8AF0A42C00
:10099800E5F038FCE433CB8DF0A42CFCE5F03BF813
:1009A800EE8AF0A42CFCE5F038F8E433CF89F0A403
:1009B8002CFCE5F038CF3400CE89F0A42FFFE5F009
:1009C8003EFEE433C98DF0A42EFEE5F039CD8AF061
:1009D800A42FFFE5F03EFEE43DFD33D0E0FB5007D9
:1009E8000BBB000F020BBFEC2CFCEF33FFEE33FE0A
:0609F800ED33FD020B9738
:1009FE00020BBFEC5D046005E859047003020BB5F1
:100A0E00120B80580460F6EC4860F2EC7004FDFEA8
:100A1E00FF22C860DB2481C85009C39860025006CB
:100A2E00020BBC9850CAF582E9294B4A7005AB827D
:100A3E00020BAB75F0007C1A7880C3EF9BEE9AED3B
:100A4E0099400DC3EF9BFFEE9AFEED99FDE842F043
:100A5E00DC23ACF0D0E0FFD0E0FED0E0FDAB822096
:100A6E00E7101BEB60BAEC2CFCEF33FFEE33FEED20
:100A7E0033FD020B97E803F830E705C0F075F00080
:100A8E00EF2FFFEE33FEED33FD40B830E7C280AA04
:100A9E0074F8CC6480CCC86480C8F582046043C30B
:100AAE00EB9FF5F0EA9E42F0E99D42F0E89C45F09E
:100ABE0060305018E5825FFFE582F42B5582FB50C3
:100ACE00210ABA001D09B90019088016E5825BFBE0
:100ADE00E582F42F5582FF50090EBE00050DBD00B4
:100AEE00010CC3EB9FF5F0EA9E42F0E99D42F0E85F
:0D0AFE009C45F06007CC4820E701B3EC22D6
:100B0B0075F020800E75F010800575F0087D007E65
:100B1B00007F003392D530D503120E16EC33401004
:100B2B00EF33FFEE33FEED33FDEC33FCD5F0ED226E
:0E0B3B00E5F0247EA2D513CC92E7CDCEFF22AA
:100B4900EDD2E7CD33EC3392D524814006E4FFFEA4
:100B5900FDFC22FCE4CFCECDCC24E0501174FF8003
:100B6900EDC3CC13CCCD13CDCE13CECF13CF0470A0
:070B7900F030D5DE020E167C
:100B8000E9D2E7C933E833F892D5EDD2E7CD33ECBB
:070B900033FC5002B2D52234
:100B9700EC30E7100FBF000C0EBE00080DBD0004BF
:100BA7000BEB6014A2D5EB13FCED92E7FD2274FF6B
:100BB700FCFDFEFF22E480F8A2D574FF13FC7D80C4
:030BC700E480EFD8
:0300000002371CA8
:0C371C00787FE4F6D8FD75812902376340
:100BCA00BB010689828A83E0225002E722BBFE0229
:090BDA00E32289828A83E493225C
:100BE300BB010CE58229F582E5833AF583E02250C7
:100BF30006E92582F8E622BBFE06E92582F8E22211
:0D0C0300E58229F582E5833AF583E493222A
:100C1000BB010689828A83F0225002F722BBFE01C3
:020C2000F322BD
:100C2200F8BB010DE58229F582E5833AF583E8F008
:100C3200225006E92582C8F622BBFE05E92582C8B4
:020C4200F2229C
:100C4400EF8DF0A4A8F0CF8CF0A428CE8DF0A42EC4
:020C5400FE227E
:100C5600BC000BBE0029EF8DF084FFADF022E4CC82
:100C6600F875F008EF2FFFEE33FEEC33FCEE9DEC4B
:100C7600984005FCEE9DFE0FD5F0E9E4CEFD22ED91
:100C8600F8F5F0EE8420D21CFEADF075F008EF2FDB
:100C9600FFED33FD4007985006D5F0F222C398FDCC
:050CA6000FD5F0EA2269
:100CAB00C5F0F8A3E028F0C5F0F8E58215827002D4
:060CBB001583E038F02271
:100CC100BB0110E58229F582E5833AF583E0F5F071
:100CD100A3E0225009E92582F886F008E622BBFE4E
:100CE1000AE92582F8E2F5F008E222E5832AF58394
:080CF100E993F5F0A3E9932259
:100CF900E88FF0A4CC8BF0A42CFCE98EF0A42CFC9A
:100D09008AF0EDA42CFCEA8EF0A4CDA8F08BF0A417
:100D19002DCC3825F0FDE98FF0A42CCD35F0FCEB76
:100D29008EF0A4FEA9F0EB8FF0A4CFC5F02ECD393B
:0F0D3900FEE43CFCEAA42DCE35F0FDE43CFC22A8
:100D480075F008758200EF2FFFEE33FECD33CDCC62
:100D580033CCC58233C5829BED9AEC99E5829840E5
:100D68000CF582EE9BFEED9AFDEC99FC0FD5F0D6C2
:100D7800E4CEFBE4CDFAE4CCF9A88222B800C1B9EC
:100D88000059BA002DEC8BF084CFCECDFCE5F0CB2A
:100D9800F97818EF2FFFEE33FEED33FDEC33FCEB63
:100DA80033FB10D703994004EB99FB0FD8E5E4F91E
:100DB800FA227818EF2FFFEE33FEED33FDEC33FC0B
:100DC800C933C910D7059BE99A4007EC9BFCE99AFF
:100DD800F90FD8E0E4C9FAE4CCFB2275F010EF2F44
:100DE800FFEE33FEED33FDCC33CCC833C810D70744
:100DF8009BEC9AE899400AED9BFDEC9AFCE899F87F
:0E0E08000FD5F0DAE4CDFBE4CCFAE4C8F92211
:103E8000C2D5E830E70FB2D5E4C39BFBE49AFAE46D
:103E900099F9E498F8EC30E717B2D5123EB6120D56
:103EA00084E4C39BFBE49AFAE499F9E498F880036C
:103EB000120D8430D50DE4C39FFFE49EFEE49DFD0A
:043EC000E49CFC2260
:0E0E1600C3E49FFFE49EFEE49DFDE49CFC22ED
:100E2400EB9FF5F0EA9E42F0E99D42F0E89C45F024
:010E3400229B
:100E3500E8600FECC313FCED13FDEE13FEEF13FF9B
:030E4500D8F122BF
:100E4800BB010DE58229F582E5833AF583020EF7A9
:100E58005007E92582F8020EEABBFE07E92582F869
:100E6800020F03E58229F582E5833AF583020F1024
:100E78007401FF3395E0FEFDFCA3A3A3E0CF2FF0A0
:100E8800E582158270021583E0CE3EF0E582158278
:100E980070021583E0CD3DF0E5821582700215835E
:050EA800E0CC3CF0224B
:0C0EAD00ECF0A3EDF0A3EEF0A3EFF022B8
:100EB900A8828583F0D083D082120ED0120ED01270
:100EC9000ED0120ED0E473E493A3C583C5F0C58395
:100ED900C8C582C8F0A3C583C5F0C583C8C582C883
:010EE90022E6
:0C484200EE30E707C3E49FFFE49EFE2277
:10372800021DBCE493A3F8E493A34003F68001F2DE
:1037380008DFF48029E493A3F85407240CC8C333A2
:10374800C4540F4420C8834004F456800146F6DF71
:10375800E4800B0102040810204080903410E47EBD
:10376800019360BCA3FF543F30E509541FFEE49366
:10377800A360010ECF54C025E060A840B8E493A32D
:10378800FAE493A3F8E493A3C8C582C8CAC583CA58
:10379800F0A3C8C582C8CAC583CADFE9DEE780BE10
:0134B2000019
:0D0EEA00E6FB08E6F908E6FA08E6CBF82278
:0C0EF700E0F8A3E0F9A3E0FAA3E0FB227E
:0D0F0300E2FB08E2F908E2FA08E2CBF8226E
:100F1000E493F8740193F9740293FA740393FB2237
:00000001FF
