:0243BA003C7E47
:0243BC00444F6C
:0243BE00459127
:0243C000435D5B
:0243C4004312A2
:0243C80043A40C
:0243CA003D981C
:0243CC0041A608
:0A302A004205BE00004205C0000090
:103C7E00123E297F04123E077F01121B0C7F031296
:103C8E001B0C7F05121B0C7F07121B0C7F08121BCF
:0B3C9E000C7F09121B0CE4FF021B95B9
:10444F00E49002A2F0E4FBFA7D287F80121C1E800C
:01445F00F468
:014591002207
:10435D0090032F740AF090032FE004F0E4FBFA7D34
:08436D00C87F80121C1E80EEC7
:10431200900330120EB90000000012396CE4FBFA6F
:094322007D027F80121C1E80F157
:1043A4007F08124089500312457DE4FBFA7D0A7FA1
:0643B40080121C1E80EACD
:103D9800D208123707E4FBFA79487842120A9E5093
:103DA8000512457D8003124582E4FBFA7D017F8080
:053DB800121C1E80DB5F
:1041A600D20812370790035D7401F0123BBBE4FBA3
:0A41B600FA7D287F80121C1E80E6AF
:103C520090028C7440F0A37402F0A3120EAD900295
:103C6200937401F0E4A3F0A304F0A3F0E4A3F0A39F
:0C3C7200F07B017A02798C7F01020F20A8
:103E29007F007EC27D017C00123C52122F81123C20
:103E3900A9123FD1E4FD7F011241361240E0D2AF11
:013E49002256
:014592002206
:014593002205
:014594002204
:014595002203
:014596002202
:03000B0002199F38
:10199A00C2AF80FE3212199E85D00B75D008AAE01C
:1019AA00C28CE58A2443F58AE58C34F6F58CD28C10
:1019BA00EC240FF8E6BC090274FFC39581B4140045
:1019CA0040CE790A782216E608700BC2AFE630E1FB
:1019DA00034418F6D2AF08D9EDEA8BD030090122B8
:1019EA00D50DFCC0E0C0D0C0F0C083C082C000C02A
:1019FA0001C002C003C004C005C006C007E50C232D
:101A0A002423F87440C2AF46F6D2AFD209E50CFFE0
:101A1A00232423F80F0808BF0A047F007823E6303E
:101A2A00E4F200E50CC39F5020050C740E250CF857
:101A3A00E6FDA68108E6AE0CBE090274FFCDF8E801
:101A4A006D60E008E6C0E080F6E50CD39F4027E52C
:101A5A000C240FF8E6AE0CBE090274FFFD18E6CDA1
:101A6A00F8E5816D6006D0E0F61880F5E50C240EE5
:101A7A00C8F6150C80D3750D0AE50C232423F87FCC
:101A8A0004C2AFE610E61E30E00310E20C7F00301D
:101A9A00E10730E3047F0854F4547CC6D2AF548083
:101AAA004207C20922F6D2AFD007D006D005D00429
:101ABA00D003D002D001D000D082D083D0F0D0D0D1
:0E1ACA00D0E0C20922780EA68174096006FFE2
:101AD8000876FFDFFB7F0AE47822F608F608DFFACB
:101AE800782376309043BA740193C0E0E493C0E061
:101AF800750D0A438901758A3C758CF6D28CD2AF74
:041B0800D2A9220933
:10296800AB07EB75F039A42486F582E43403F583CC
:10297800120EB900000000EB75F039A4248AF58224
:10298800E43403F583120EB900000000EB75F0394A
:10299800A4249EF582E43403F583120EB9000000E6
:1029A80000EB75F039A4249AF582E43403F5831218
:1029B8000EB90000000090054CE0FCA3E0FDA3E088
:1029C800FEA3E0FFEB75F039A4248EF582E434030E
:1029D800F583120EAD900550E0FCA3E0FDA3E0FEE8
:1029E800A3E0FFEB75F039A42492F582E43403F5F3
:1029F80083120EAD900554E0FCA3E0FDA3E0FEA316
:102A0800E0FFEB75F039A42496F582E43403F583EE
:102A1800120EADEB75F039A4248EF582E43403F57B
:102A280083E0FCA3E0FDA3E0FEA3E0FFEB75F03933
:102A3800A424A6F582E43403F583120EADEB75F0F9
:102A480039A42492F582E43403F583E0FCA3E0FD85
:102A5800A3E0FEA3E0FFEB75F039A424A2F582E41D
:102A68003403F583120EADEB75F039A42496F58284
:102A7800E43403F583E0FCA3E0FDA3E0FEA3E0FF5C
:102A8800EB75F039A424AAF582E43403F583020E29
:012A9800AD90
:10440700EF75F039A424B6F582E43403F58374011B
:02441700F02291
:10446000EF75F039A424B6F582E43403F583E4F063
:014470002229
:101EB0009005DAEFF075F039A424B6F582E4340326
:101EC000F583E070030220899005DAE0FF75F039B0
:101ED000A42482F582E43403F583E0F8A3E0F9A3B7
:101EE000E0FAA3E0FBEF75F039A4247EF582E43438
:101EF00003F583E0FCA3E0FDA3E0FEA3E0FF1208EE
:101F0000039005DAE0FB75F039A42486F582E43409
:101F100003F583120EADEB75F039A4249AF582E433
:101F20003403F583C083C082E0FCA3E0FDA3E0FEA0
:101F3000A3E0FF9005DAE075F039A42486F582E489
:101F40003403F583E0F8A3E0F9A3E0FAA3E0FB1281
:101F50000807D082D083120EAD9005DAE0FF75F04D
:101F600039A4249AF582E43403F583E0F8A3E0F978
:101F7000A3E0FAA3E0FBEF75F039A42492F582E424
:101F80003403F583E0FCA3E0FDA3E0FEA3E0FF1231
:101F900008F8C004C005C006C0079005DAE0FF7568
:101FA000F039A42486F582E43403F583E0F8A3E055
:101FB000F9A3E0FAA3E0FBEF75F039A4248EF582D3
:101FC000E43403F583E0FCA3E0FDA3E0FEA3E0FF1F
:101FD0001208F8D003D002D001D000120807C004C4
:101FE000C005C006C0079005DAE0FF75F039A424EB
:101FF0008AF582E43403F583E0F8A3E0F9A3E0FA7C
:10200000A3E0FBEF75F039A42486F582E43403F5F0
:1020100083E0FCA3E0FDA3E0FEA3E0FF1208039031
:1020200005DAE075F039A42496F582E43403F583EB
:10203000E0F8A3E0F9A3E0FAA3E0FB1208F8D0036C
:10204000D002D001D0001208079005DAE0FB75F04D
:1020500039A4249EF582E43403F583120EADEB75AA
:10206000F039A42486F582E43403F583E0FCA3E090
:10207000FDA3E0FEA3E0FFEB75F039A4248AF5820E
:0A208000E43403F583120EADD32201
:103E4A00AB0790058DE0FCA3E0FDA3E0FEA3E0FF35
:103E5A00EB75F039A424B2F582E43403F583020E3B
:013E6A00ADAA
:103E6B00AB07900592E0FCA3E0FDA3E0FEA3E0FF0F
:103E7B00EB75F039A424AEF582E43403F583020E1E
:013E8B00AD89
:103E8C00AB07900597E0FCA3E0FDA3E0FEA3E0FFE9
:103E9C00EB75F039A42482F582E43403F583020E29
:013EAC00AD68
:103EAD00AB0790059CE0FCA3E0FDA3E0FEA3E0FFC3
:103EBD00EB75F039A42492F582E43403F583020EF8
:013ECD00AD47
:103ECE00AB079005A1E0FCA3E0FDA3E0FEA3E0FF9D
:103EDE00EB75F039A4248EF582E43403F583020EDB
:013EEE00AD26
:103EEF00AB079005A6E0FCA3E0FDA3E0FEA3E0FF77
:103EFF00EB75F039A42496F582E43403F583020EB2
:013F0F00AD04
:103F1000AB079005ABE0FCA3E0FDA3E0FEA3E0FF50
:103F2000EB75F039A4247EF582E43403F583020EA8
:013F3000ADE3
:1041C000EF75F039A4247EF582E43403F583E0FC36
:0A41D000A3E0FDA3E0FEA3E0FF2240
:1041DA00EF75F039A42486F582E43403F583E0FC14
:0A41EA00A3E0FDA3E0FEA3E0FF2226
:1041F400EF75F039A4248AF582E43403F583E0FCF6
:0A420400A3E0FDA3E0FEA3E0FF220B
:10420E00EF75F039A4248EF582E43403F583E0FCD7
:0A421E00A3E0FDA3E0FEA3E0FF22F1
:10422800EF75F039A42492F582E43403F583E0FCB9
:0A423800A3E0FDA3E0FEA3E0FF22D7
:10424200EF75F039A42496F582E43403F583E0FC9B
:0A425200A3E0FDA3E0FEA3E0FF22BD
:10425C00EF75F039A4249EF582E43403F583E0FC79
:0A426C00A3E0FDA3E0FEA3E0FF22A3
:10427600EF75F039A4249AF582E43403F583E0FC63
:0A428600A3E0FDA3E0FEA3E0FF2289
:0526FE00900371EDF0F6
:10270300E4900378F0A3F0900374E0FFA3E0900358
:102713007ACFF0A3EFF0900372E0FFA3E090037C85
:10272300CFF0A3EFF0E4900376F0A3F0900371E011
:10273300FF900376E0FCA3E0FDC39F7480F8EC6494
:10274300809840030227F8ED25E0FFEC338F82F5F4
:1027530083120CC1FFC390037BE09F90037AE09543
:10276300F0501D900377E025E0FF900376E0338F70
:1027730082F583120CC1FF90037AE5F0F0A3EFF02A
:10278300900377E025E0FF900376E0338F82F583B3
:10279300120CC1FFD390037DE09F90037CE095F082
:1027A300401D900377E025E0FF900376E0338F82AE
:1027B300F583120CC1FF90037CE5F0F0A3EFF090DA
:1027C3000377E025E0FF900376E0338F82F58312F1
:1027D3000CC1FFAEF0900379E02FF0900378E03E58
:1027E300F0900377E004F0600302272F900376E074
:1027F30004F002272F90037CE0FEA3E0FF90037B0D
:10280300E02FFF90037AE03EFEC3900379E09FFF41
:10281300900378E09EFEF0A3EFF0900371E024FEB6
:10282300FDE434FFFC120C56900378EEF0A3EFF0B6
:012833002282
:10303400602A047600000000000000000000000088
:10304400000000000000000000000000000000007C
:0E30540000000000000000000000000000006E
:102ED70090036BEBF0A3EAF0A3E9F0900003120B69
:102EE700E3FF900367E0FBA3E0FAA3E0F9A3E0FEAA
:102EF700F582758300EF120C2290036BE0FBA3E0D1
:102F0700FAA3E0F9900002120BE3FFEE2401FDE4BF
:102F170033FC900367E0FBA3E0FAA3E0F98D828C12
:102F270083EF120C2290036BE0FBA3E0FAA3E0F916
:102F3700900001120BE3FFEE2402FDE433FC900343
:102F470067E0FBA3E0FAA3E0F98D828C83EF120C14
:102F57002290036BE0FBA3E0FAA3E0F9120BCAFF90
:102F6700EE2403FDE433FC900367E0FBA3E0FAA340
:0A2F7700E0F98D828C83EF020C223A
:103BBB0090035DE0900363F0122834E490035EF011
:103BCB0090035DE0FF1230D190035EE0FEC39F5087
:103BDB001774762EF582E43404F583E0FF123D7101
:083BEB0090035EE004F080D8B5
:013BF30022AF
:1028340090035F120EAD900363E0FFD3940A40034C
:10284400022967EF7003022967EF14B40A004003FA
:1028540002296790286575F003A4C58325F0C58314
:10286400730228830228990228B00228C70228DEAE
:102874000228F402290A02292002293602294C904E
:1028840003677401F0A37404F0A37476F0A37401D5
:10289400F0FB0229609003677401F0A37404F0A3B1
:1028A4007476F0A37405F07B0102296090036774C9
:1028B40001F0A37404F0A37476F0A37409F07B010F
:1028C4000229609003677401F0A37404F0A3747682
:1028D400F0A3740DF07B010229609003677401F08A
:1028E400A37404F0A37476F0A37411F07B01806CDC
:1028F4009003677401F0A37404F0A37476F0A374D6
:1029040015F07B0180569003677401F0A37404F002
:10291400A37476F0A37419F07B018040900367746C
:1029240001F0A37404F0A37476F0A3741DF07B018A
:10293400802A9003677401F0A37404F0A37476F002
:10294400A37421F07B0180149003677401F0A374D5
:1029540004F0A37476F0A37425F07B017A03795F05
:04296400122ED72236
:1030D100EFD3940A5003EF70037F002290047674BB
:1030E10024F0EF14B40A0040030231739030FB75F1
:1030F100F003A4C58325F0C583730231190231227F
:1031010002312B02313402313D02314602314F028C
:10311100315802316102316A90047B7405F07F06F7
:103121002290047F7409F07F0A22900483740DF0C9
:103131007F0E229004877411F07F122290048B7409
:1031410015F07F162290048F7419F07F1A229004D3
:1031510093741DF07F1E229004977421F07F222228
:1031610090049B7425F07F262290049F7429F07FA0
:053171002A227F00226C
:104419009005AFEEF0A3EFF0A3EBF0A3EAF0A3E968
:02442900F0227F
:08306200C100C101C102C1035C
:103FD10090028D7478F0E490028CF07B017A027982
:0E3FE1008C7F0212225ED2A3D2A4D2A5D2A659
:013FEF0022AF
:0A451A00EF4E7005EE4F24FFB322B0
:10408900EF24F0600F24F0600E24E0600D243870F6
:0D4099000BA20022A20122A20222A20322F9
:10396C00A2A3E4FE33FF12451A500EA2A3E433FFC8
:10397C0012451A5006D2008002C200A2A4E4FE3303
:10398C00FF12451A5007200106D2018002C201A283
:10399C00A5E4FE33FF12451A5007200206D202801E
:1039AC0002C202A2A6E4FE33FF12451A50062003FF
:0739BC0005D20322C2032221
:02306A00C10A99
:103CA90090028D7405F0E490028CF07B017A027920
:103CB9008C7F0512225E12457D7FC81244C51245CC
:073CC900827FC81244C5D33D
:013CD00022D1
:05457D00C2CDD20A22AC
:05458200D2CDC20A22A7
:103E070090028CEFF090028CE0FF14F0EF6012123A
:103E1700457D7FC81244C51245827FC81244C580BC
:023E2700E42293
:03458B00A20A225F
:06455F009005DBEFF022E5
:103351009005B4EFF07F337E337D737C3FA3E0F8BB
:10336100A3E0F9A3E0FAA3E0FB120A9E600C400A75
:103371009005B5120EB93F7333337FCD7ECC7D4CB2
:103381007C3D9005B5E0F8A3E0F9A3E0FAA3E0FBEA
:10339100120A9E500A9005B5120EB93D4CCCCD9043
:1033A10005B4E02404FFC007A3E0FCA3E0FDA3E013
:1033B100FEA3E0FF9005BA120EADD007122BAF901D
:1033C10005B5E0FCA3E0FDA3E0FEA3E0FF120B497D
:1033D1009005B4E025E024C3F582E43405F583EFDC
:0233E100F022D8
:10404D009005DCEFF02404FF123CD19005DCE02557
:0E405D00E024C2F582E43405F5837401F022FC
:1040A6009005DDEFF02404FF123DBD9005DDE0250F
:0D40B600E024C2F582E43405F583E4F02235
:1044B500EF25E024C2F582E43405F583E024FF22EC
:10378100E4900527F0A37408F07B017A0579277F7F
:103791000212225E9005287404F07B017A057927D4
:1037A1007F0212225ED2A2D2A343BA80E4900529FD
:1037B100F0A3F0A3F0A304F0E4A3F0A3F0A3F0A31B
:1037C100F0A3F0A3F0A3F0A3F0A3F0A3F0A3F0A360
:1037D100F07B017A0579297F021216007B017A05B7
:0A37E10079297F0312160053BA7F06
:0137EB0022BB
:05208A009004A0EFF03E
:10208F00E49004AFF0A37480F07B017A0479AF7F02
:10209F000312225ED2B743BA80E49004B1F0A3F0EA
:1020AF00A3F0A304F0E4A3F0A3F0A3F0A3F0A3F034
:1020BF00A3F0A3740FF0E4A3F0A3F0A3F0A3F0A395
:1020CF00F09004A0E0FF7B017A0479B1121600535F
:1020DF00BA7F9004A0E0FF7D101244939004A0E01B
:1020EF00FF7D327C001238559004A1E0FCA3E0FD87
:1020FF00A3E0FEA3E0FF9004A0E0FB75F025A4246D
:10210F00F5F582E43403F583120EAD9004A5E0FCDF
:10211F00A3E0FDA3E0FEA3E0FFEB75F025A424F9F7
:10212F00F582E43403F583120EAD9004A9E0FCA30D
:10213F00E0FDA3E0FEA3E0FFEB75F025A42407F577
:10214F0082E43404F583120EAD9004ADE0FEA3E0FB
:10215F00FFEB75F025A42401F582E43404F583EE3A
:10216F00F0A3EFF0EB75F025A424F5F582E434032A
:10217F00F583E0F8A3E0F9A3E0FAA3E0FB9004A055
:10218F00E075F025A424F9F582E43403F583E0FC2F
:10219F00A3E0FDA3E0FEA3E0FF120803C004C00507
:1021AF00C006C0079004A0E075F025A42401F582B5
:1021BF00E43404F583E0FCA3E0FDE4120B10A80463
:1021CF00A905AA06AB07D007D006D005D004120A7E
:1021DF00019004A0E0FB75F025A424FDF582E43402
:1021EF0003F583120EADEB75F025A42401F582E4FF
:1021FF003404F583E0FCA3E0FDE4120B10A804A95E
:10220F0005AA06AB079004A0E075F025A42407F5F6
:10221F0082E43404F583E0FCA3E0FDA3E0FEA3E039
:10222F00FF120A019004A0E0FB75F025A4240BF522
:10223F0082E43404F583120EADEB75F025A424036C
:0E224F00F582E43404F583120EB9000000009D
:01225D00225E
:052A9900900558EFF06C
:102A9E00A3E0FCA3E0FDA3E0FEA3E0FF900558E059
:102AAE00FB75F025A424F0F582E43403F583120EB1
:102ABE00ADEB75F025A4240BF582E43404F583E028
:102ACE00F8A3E0F9A3E0FAA3E0FB900559E0FCA31C
:102ADE00E0FDA3E0FEA3E0FF120A01900558E075A9
:102AEE00F025A424FDF582E43403F583E0F8A3E099
:102AFE00F9A3E0FAA3E0FB1208F8900558E075F090
:102B0E0025A424F5F582E43403F583E0F8A3E0F977
:102B1E00A3E0FAA3E0FB120807900558E0FB75F05E
:102B2E0025A42411F582E43404F583120EADEB7561
:102B3E00F025A42411F582E43404F583E0FCA3E02F
:102B4E00FDA3E0FEA3E0FFE4FBFA79A07841120AB0
:102B5E000190055D120EAD90055DE0FCA3E0FDA3B6
:102B6E00E0FEA3E0FF9005BA120EAD900558E0FF0F
:102B7E00122BAF900558E0FB75F025A424F0F582DA
:102B8E00E43403F583E0FCA3E0FDA3E0FEA3E0FF45
:102B9E00EB75F025A42403F582E43404F583020ECC
:012BAE00AD79
:10429000EF75F025A42403F582E43404F583E0FCF3
:0A42A000A3E0FDA3E0FEA3E0FF226F
:103F31009005DEEFF0123CD19005DEE075F025A48E
:103F4100240FF582E43404F583E4F0A304F0D322D2
:103FF0009005DFEFF0123DBD9005DFE075F025A4E0
:0F400000240FF582E43404F583E4F0A3F0D32217
:10321900900586EFF075F00EA424EBF582E43404F2
:10322900F583E0FEA3E0FF7C007D63120C56EF24DA
:1032390001FFE43EFE90058BE0FD7C00120C44AAE0
:1032490006AB07900586E075F00EA424EBF582E441
:103259003404F583E0FEA3E0FF7D63120C56C3EB53
:103269009FFDEA9EFCC004C0059004EAE0FCE4125C
:103279000B15900587E0F8A3E0F9A3E0FAA3E0FBBA
:103289001208F89004E6E0F8A3E0F9A3E0FAA3E055
:10329900FB120A01120B49E4FCFD900574120EADF4
:0E32A900900586E0FFD005D004123914D32220
:103BF4009005E0EBF0C007AE04AF057C017D6812D0
:103C04000C44AC06AD07E4120B10900587120EAD00
:0F3C14009005E0E090058BF0D007123219D32213
:10447100EF75F00EA424E2F582E43404F583E0FF45
:014481002218
:07454A009005E1EFF0D32220
:10411A009005E2EFF0123F719005E2E075F00EA40F
:0C412A0024E2F582E43404F583E4F02282
:1040C3009005E3EFF0123F519005E3E075F00EA485
:0D40D30024E2F582E43404F5837401F02248
:074551009005E4EFF0D32216
:074558009005E5EFF0D3220E
:1039C300AB07900562E0FCA3E0FDA3E0FEA3E0FFEC
:1039D300EB75F00EA424E6F582E43404F583120EAD
:1039E300AD900566E0FFEB75F00EA424EAF582E4E2
:1039F3003404F583EFF0900567E0FEA3E0FFEB7579
:103A0300F00EA424EBF582E43404F583EEF0A3EF87
:043A1300F00237EC9A
:0F44D50074CA2FF582E43405F5837401F0D32205
:0E44E40074CA2FF582E43405F583E4F0D32288
:014597002201
:1041360090028CEFF0A3EDF0A37401F0E4A3F0A3DA
:0C414600F0A3F07B017A02798C023A179A
:10370700E490036DF0300863F0E4FF1238B69003DD
:103717006DE025E02459F582E43403F583EEF0A348
:10372700EFF090036DE004F0E0C3940A40DB7B0107
:103737007A0379599003727404F0A3E4F0A3F0A319
:10374700F07D0A1226FEAC06AD07E4120B109005B9
:1037570069120EAD900569E0FCA3E0FDA3E0FEA3AE
:10376700E0FFA3120EAD900569800390056DE0FCA4
:09377700A3E0FDA3E0FEA3E0FFC6
:013780002226
:104152009005E6EFF0D2C87F011244C59005E6E073
:0C416200F5C0D2CA7F011244C5C2CA22B7
:103C23009005CDEBF0A3EAF0A3E9F09005CDE0FB1E
:103C3300A3E0FAA3E0F9120BCAFFD39400400F12DA
:0F3C430041529005CEE475F001120CAB80DD22EA
:1040E00012406BD2CCC2CAC2C97F3812416E7F0C5B
:0D40F00012416E7F0612416E7F0102416E8B
:10416E0090028CEFF0C2C87F011244C5D2CA9002F1
:0C417E008CE0F5C07F011244C5C2CA22CB
:10406B0053C9EF43CA1053C9FE53CAFE53C9FD537C
:0E407B00CAFD53C9FB53CAFBE4F5B3F5B422EA
:08432B009005C6ECF0A3EDF0D3
:10433300E4A3F0A3EFF07B017A0579C8E4FF02223E
:014343005E1B
:054482009005E7EFF0DA
:0B448700E4FF00000FEFB408F9000094
:014492002207
:10306C004404D5000000004404D1000000004404D6
:10307C00CD000000004404C9000000004404C50059
:0A308C000000004404C10000000031
:10391400900571EFF0A3ECF0A3EDF0900572E0FCDC
:10392400A3E0FD7F05123855900572E0FEA3E0FF89
:10393400900571E0FB75F007A424DDF582E43404FE
:10394400F583EEF0A3EFF0900574E0FCA3E0FDA393
:10395400E0FEA3E0FFEB75F007A424D9F582E4347C
:0839640004F583120EADD3221D
:103F51009005E8EFF07F05123CD19005E8E075F09F
:103F610007A424DFF582E43404F5837401F0D3223D
:103F71009005E9EFF02405FF123DBD9005E9E075DC
:103F8100F007A424DFF582E43404F583E4F0D322BE
:10442B00EF75F007A424DFF582E43404F583E02470
:02443B00FF225E
:1037EC00E4900539F0A37480F07B017A0579397F78
:1037FC000112225ED2979005BA120EB93F0000005A
:10380C007F05122BAF43BA80E490053BF0A3F0A3E5
:10381C00F0A304F0E4A3F0A3F0A3F0A3F0A3F0A3AF
:10382C00F0A3740FF0E4A3F0A304F0E4A3F0A3045A
:10383C00F0E4A3F07B017A05793B7F051216005367
:09384C00BA7F7D107F0502449350
:0300B300022CBE5E
:102CBE00C0E0C0F0C083C082C0D075D000C000C0DC
:102CCE0001C002C003C004C005C006C007E5F6601F
:102CDE002B53F6DF9004D5120E789004D9E0F8A3AA
:102CEE00E0F9A3E0FAA3E0FBD3120E2450619004A6
:102CFE00D9120EB9000000007F05802DE5F6602E7A
:102D0E0053F6EF9004D1120E789004E0E0F8A3E0B1
:102D1E00F9A3E0FAA3E0FBD3120E2450329004E0A4
:102D2E00120EB9000000007F04123DBD8021E5F6B1
:102D3E00600553F6F78018E5F6600553F6FB800F35
:102D4E00E5F6640160028004E5F6600353F6FDD0FB
:102D5E0007D006D005D004D003D002D001D000D0C9
:0A2D6E00D0D082D083D0F0D0E03244
:103A1700120BCAF59D900001120BE3FFE5BC549F02
:103A27004FF5BC900002120BE3B4010543BC808044
:103A37000353BC7F900003120BE3B40105439720A7
:103A470080035397DF900005120BE3B40104D2AD56
:103A57008002C2AD900004120BE3B40103D2BD2271
:033A6700C2BD22BB
:0C450E00EFB4010443BC802253BC7F22A8
:1038B600EFD3940740028051E4F5BDF5BEE5BC5454
:1038C600E044084FF5BC00000000E4FBE5BC30E432
:1038D6003353BCEFE59730E509E5BD5403ADBEFCB7
:1038E600801DAFBD7C00AD07ED7E007802C333CEF0
:1038F60033CED8F9FFE5BE5403FDEEFCEF4DFDAF28
:0D39060005AE04220BEBB4FAC37E047F0073
:013913002291
:03002B0002458704
:0445870053BCEF3200
:0F44C5007D367C07ED1D70011C144C70F7DFF184
:0144D40022C5
:03458E00A20B225B
:10225E00EFD3940540037F0122120BCAFED39403E1
:10226E0040037F0222EF7041EE700B900001120BC3
:10227E00E3F452935294120BCAB4010B9000011264
:10228E000BE34293F45294120BCAFEB4020A90006E
:10229E0001120BE342934294EEB4030D900001122F
:1022AE000BE3FEF45293EE4294EF64017043120B73
:1022BE00CAFE700B900001120BE3F452915292EE93
:1022CE00B4010B900001120BE34291F45292120BE7
:1022DE00CAB4020A900001120BE342914292120B11
:1022EE00CAB4030D900001120BE3FEF45291EE42BC
:1022FE0092EF64027043120BCAFE700B9000011233
:10230E000BE3F452955296EEB4010B900001120BB2
:10231E00E34295F45296120BCAB4020A90000112CF
:10232E000BE342954296120BCAB4030D90000112B4
:10233E000BE3FEF45295EE4296EF64037043120BDC
:10234E00CAFE700B900001120BE3F452B152B2EEC2
:10235E00B4010B900001120BE342B1F452B2120B16
:10236E00CAB4020A900001120BE342B142B2120B40
:10237E00CAB4030D900001120BE3FEF452B1EE420B
:10238E00B2EF64047043120BCAFE700B9000011280
:10239E000BE3F452B352B4EEB4010B900001120BE6
:1023AE00E342B3F452B4120BCAB4020A9000011203
:1023BE000BE342B342B4120BCAB4030D90000112E8
:1023CE000BE3FEF452B3EE42B4EF64057043120B0E
:1023DE00CAFF700B900001120BE3F452C952CAEF00
:1023EE00B4010B900001120BE342C9F452CA120B56
:1023FE00CAB4020A900001120BE342C942CA120B80
:10240E00CAB4030D900001120BE3FFF452C9EF4260
:04241E00CA7F00224F
:102E2900EF7034D3ED9498EC940340047C037D98BF
:102E3900C3ED9450EC940050047C007D50C2DE90A8
:102E4900051BECF0A3EDF0C374E89D900516F07432
:102E5900039C9005158073EF64017034D3ED946879
:102E6900EC940B40047C0B7D68C3ED9450EC94000A
:102E790050047C007D50C2DE90051DECF0A3EDF0FE
:102E8900C374B89D900518F0740B9C900517803A8F
:102E9900EF64027038D3ED9480EC940740047C070A
:102EA9007D80C3ED9450EC940050047C007D50C2A9
:102EB900DE90051FECF0A3EDF0AE04FFC374D09FC4
:0E2EC90090051AF074079E900519F0D2DE22D3
:102422009005D0EBF0A3EAF0A3E9F0AD07EDD39469
:102432000340030225C0ED6403704CC2DEF5F9F5DA
:10244200E99005D0E0FBA3E0FAA3E0F9120BCAFF82
:10245200E5A254CF4FF5A2900001120BE3FFE5D99C
:1024620054F14FF5D9900004120BE35401FFE5D962
:1024720054FE4FF5D9900005120BE3B40104D2BF0C
:102482008002C2BFD2DE229005D0E0FBA3E0FAA315
:10249200E02404F9E43AFA120BCA5431120C1090F7
:1024A20005D0E0FBA3E0FAA3E0F9900002120BE3EF
:1024B200C39448400FE92404F9E43AFA120BCA54CF
:1024C200CF120C10ED704F9005D0E0FBA3E0FAA301
:1024D200E0F9900004120BE3FF900002120BE3FEFE
:1024E2004FF5DA900003120BE3FFE5F2543F4FF58C
:1024F200F2900006120CC1FBAAF090051BEAF0A3B1
:10250200EBF0C204900512EEF0900521EAF0A3EB85
:10251200F0F5EAEAF5FAED6401704F9005D0E0FBC0
:10252200A3E0FAA3E0F9900004120BE3FF9000028B
:10253200120BE3FE4FF5DB900003120BE3FFE5F312
:10254200543F4FF5F3900006120CC1FBAAF0900520
:102552001DEAF0A3EBF0C205900513EEF0900523FF
:10256200EAF0A3EBF0F5EBEAF5FBED6402704F90B5
:1025720005D0E0FBA3E0FAA3E0F9900004120BE31C
:10258200FF900002120BE3FE4FF5DC900003120BEA
:10259200E3FFE5F4543F4FF5F4900006120CC1FD41
:1025A200ACF090051FECF0A3EDF0C206900514EE1E
:0F25B200F0900525ECF0A3EDF0F5ECECF5FC2234
:1025C1009005D4ECF0A3EDF09005D3EFF0705ED35D
:1025D100EB9464EA940040047A007B64C3EB9401B9
:1025E100EA940050047A007B01C2DE9005D4E0FE3B
:1025F100A3E0FFAD03AC02120C447C007D64120C1D
:102601005690051BEEF0A3EFF07C007D64AF03AEA6
:1026110002120C56C374019FFFE49EFE9005D4E0A4
:10262100FCA3E0FD120C449005150226F69005D39B
:10263100E06401705DD3EB9464EA940040047A0095
:102641007B64C3EB9401EA940050047A007B01C2DD
:10265100DE7C007D64AF03AE02120C569005D4E01F
:10266100FCA3E0FD120C4490051DEEF0A3EFF07CFD
:10267100007D64AF03AE02120C56C374019FFFE4E8
:102681009EFE9005D4E0FCA3E0FD120C44900517DA
:1026910080639005D3E064027062D3EB9464EA94A2
:1026A1000040047A007B64C3EB9401EA9400500477
:1026B1007A007B01C2DE7C007D64AF03AE02120CA6
:1026C100569005D4E0FCA3E0FD120C4490051FEEEA
:1026D100F0A3EFF0AE02AF037C007D64120C56C391
:1026E10074019FFFE49EFE9005D4E0FCA3E0FD127F
:0D26F1000C44900519EEF0A3EFF0D2DE22AC
:03003B0002317619
:10317600C0E0C083C082C0D075D000C006C0073092
:10318600D82AC2D830A50590051B8003900515E006
:10319600FEA3E0FF900522E02FF0900521E03EF02F
:1031A600900521E0FEA3E0F5EAEEF5FA30D92AC251
:1031B600D930A60590051D8003900517E0FEA3E013
:1031C600FF900524E02FF0900523E03EF0900523C4
:1031D600E0FEA3E0F5EBEEF5FB30DA2AC2DA30A723
:1031E6000590051F8003900519E0FEA3E0FF9005FA
:1031F60026E02FF0900525E03EF0900525E0FEA3A1
:10320600E0F5ECEEF5FCD007D006D0D0D082D08326
:03321600D0E032D3
:051600009005D6EFF09B
:10160500E4A3F09005D7E0FFC39406505AEF75F0B8
:101615000AA4243AF582E43404F583120EB90000D5
:1016250000009005D7E0FF75F00AA4243EF582E49A
:101635003404F583E4F0EF75F00AA4243FF582E461
:101645003404F583120EB9000000009005D7E0754B
:10165500F00AA42443F582E43404F5837401F09080
:1016650005D7E004F0809C43BA80120BCAB401058B
:1016750043F180800353F17F900001120BE3B40125
:10168500149005D6E0FF7401A807088002C333D87B
:10169500FC42F180139005D6E0FF7401A80708808D
:1016A50002C333D8FCF452F1900002120BE3B401EB
:1016B5000543F540800353F5BF900003120BE3B4D7
:1016C50001149005D6E0FF7401A807088002C33312
:1016D500D8FC42F580139005D6E0FF7401A80708F1
:1016E5008002C333D8FCF452F5900004120BE3B426
:1016F500010575F720800353F7DF900005120BE312
:10170500B4010575F710800353F7EF900006120B2F
:10171500E3B4010575F708800353F7F79000071246
:101725000BE3B4010575F704800353F7FB9000083C
:10173500120BE3B4010575F702800353F7FD900022
:1017450009120BE390FFF27006E054EFF08004E01D
:101755004410F090FFF2C083C082E0FF90000A12AF
:101765000BE3FEEF4ED082D083F09005D6E01460F7
:101775007214700302183B14700302188E14700360
:101785000218E11470030219322405600302198955
:1017950090000B120BE390FF047006E054F7F08005
:1017A50004E04408F090000C120BE390FF04B40130
:1017B50006E04404F08004E054FBF090000D120BA9
:1017C500E390FF04B40106E04402F08004E054FD18
:1017D500F090000E120BE390FF04B4010302197F91
:1017E50002198590000B120BE390FF147006E0546C
:1017F500F7F08004E04408F090000C120BE390FF32
:1018050014B40106E04404F08004E054FBF09000B9
:101815000D120BE390FF14B40106E04402F08004BE
:10182500E054FDF090000E120BE390FF14B4010399
:1018350002197F02198590000B120BE390FF2470AB
:1018450006E054F7F08004E04408F090000C120B19
:10185500E390FF24B40106E04404F08004E054FB67
:10186500F090000D120BE390FF24B40106E0440252
:10187500F08004E054FDF090000E120BE390FF247D
:10188500B4010302197F02198590000B120BE39036
:10189500FF347006E054F7F08004E04408F090004F
:1018A5000C120BE390FF34B40106E04404F080040D
:1018B500E054FBF090000D120BE390FF34B40106E9
:1018C500E04402F08004E054FDF090000E120BE3BA
:1018D50090FF34B4010302197F02198590000B12A1
:1018E5000BE390FF447006E054F7F08004E04408F1
:1018F500F090000C120BE390FF44B40106E04404A1
:10190500F08004E054FBF090000D120BE390FF44CF
:10191500B40106E04402F08004E054FDF090000EAE
:10192500120BE390FF44B40102804F805390000BEB
:10193500120BE390FF547006E054F7F08004E04486
:1019450008F090000C120BE390FF54B40106E0443C
:1019550004F08004E054FBF090000D120BE390FFBF
:1019650054B40106E04402F08004E054FDF0900018
:101975000E120BE390FF54B40106E04401F080041D
:10198500E054FEF090000F120BE3B4010443F58020
:041995002253F57F65
:01199900222B
:1042AA00EF75F00AA4243AF582E43404F583E0FCBD
:0A42BA00A3E0FDA3E0FEA3E0FF2255
:1042C400EF75F00AA4243FF582E43404F583E0FC9E
:0A42D400A3E0FDA3E0FEA3E0FF223B
:103855009005D8ECF0A3EDF0AB079005D8E0FEA3FA
:10386500E0FFE4FCFDEB75F00AA4243AF582E434AC
:1038750004F583120EAD43BA8053F57FEB75F00A5C
:10388500A42443F582E43404F583E0FF7E0090052B
:10389500D8E0FCA3E0FD120C44AB07AA06E4F9F856
:1038A500FF7E367D6E7C01123AF912437553BA7F5D
:0138B50022F0
:102BAF009005B9EFF07F337E337D737C3FA3E0F860
:102BBF00A3E0F9A3E0FAA3E0FB120A9E600C400A1F
:102BCF009005BA120EB93F7333337FCD7ECC7DCCD7
:102BDF007C3C9005BAE0F8A3E0F9A3E0FAA3E0FB90
:102BEF00120A9E500A9005BA120EB93CCCCCCD9069
:102BFF0005BAE0FCA3E0FDA3E0FEA3E0FF9005B95A
:102C0F00E0FB75F00AA4243FF582E43404F5831247
:102C1F000EAD43BA80EB75F00AA42443F582E43479
:102C2F0004F583E0FFE4FCFDFEEB75F00AA4243A03
:102C3F00F582E43404F583E0F8A3E0F9A3E0FAA306
:102C4F00E0FB120CF9A804A905AA06AB077F007ECA
:102C5F00367D6E7C01120D84E4120B0B9005B9E0EA
:102C6F0075F00AA4243FF582E43404F583E0F8A359
:102C7F00E0F9A3E0FAA3E0FB1208F8E4FBFA7920ED
:102C8F0078411208F8E4FBFA79A07840120807E4BB
:102C9F00FBFA79207841120A01120B49AB07AA06F9
:0F2CAF009005B9E0FFE4FDFC1232B753BA7F2263
:10449300EF75F00AA42443F582E43404F583EDF0C8
:0144A30022F6
:1044A400EF75F00AA42443F582E43404F583E0FFB5
:0144B40022E5
:0A45240043BA8043F58053BA7F22AA
:0A452E0043BA8053F57F53BA7F2291
:103CD10043BA807401A807088002C333D8FC42F5B7
:103CE100EF75F00AA4243EF582E43404F5837401EF
:083CF100F043F58053BA7F2275
:103DBD0043BA807401A807088002C333D8FCF452BB
:103DCD00F5EF75F00AA4243EF582E43404F583E49E
:053DDD00F053BA7F2243
:10443D00EF75F00AA4243EF582E43404F583E024FC
:02444D00FF224C
:10437500D3E49F74809E400D90FFF1EFF0EE90FF27
:08438500F0F07F00227F01220D
:1032B700EF14602814603A14604C14605E14607058
:1032C7002405600302334E90FF01EDF0EC90FF0000
:1032D700F090FF03EBF0EA90FF02806790FF11ED9B
:1032E700F0EC90FF10F090FF13EBF0EA90FF1280E4
:1032F7005290FF21EDF0EC90FF20F090FF23EBF0D0
:10330700EA90FF22803D90FF31EDF0EC90FF30F026
:1033170090FF33EBF0EA90FF32802890FF41EDF009
:10332700EC90FF40F090FF43EBF0EA90FF428013F0
:1033370090FF51EDF0EC90FF50F090FF53EBF0EA67
:0A33470090FF52F07F00227F012268
:102D780054696D65723120696E697469616C697A2C
:102D8800696E672073756363656564200A0054691A
:102D98006D65723120696E697469616C697A696EF2
:102DA80067206661696C6564200A0054696D657204
:102DB8003320696E697469616C697A696E6720731A
:102DC800756363656564200A0054696D6572332014
:102DD800696E697469616C697A696E672066616990
:102DE8006C6564200A0054696D65723420696E69E7
:102DF8007469616C697A696E672073756363656568
:102E080064200A0054696D65723420696E697469BA
:102E1800616C697A696E67206661696C6564200A0D
:012E280000A9
:1030960041050302410504024205050000420507F9
:1030A60000004204FF00004204FD0000410511003B
:1030B6004104FC00410502004105010044050900E8
:0A30C60000000044050D00000000AA
:102F8100E490029CF090028CF0A3F0A304F0E4A37F
:102F9100F0A3F0900293F090029174A2F0A3744018
:102FA100F0E4900294F0A3F0A304F0E4A3F0A3F002
:102FB10090029B04F090029974FFF0A37410F07FCB
:102FC10001121C7D90029CEFF070087BFF7A2D7935
:102FD10078800A90029CE07BFF7A2D799612438DCE
:102FE1007F03121C7D90029CEFF070087BFF7A2D0D
:102FF10079B3800A90029CE07BFF7A2D79D112434C
:103001008D7B017A0279947F04121C8390029CEFDC
:10301100F070087BFF7A2D79EE800A90029CE07BAC
:08302100FF7A2E790C12438D99
:013029002284
:103DE200900503E0601EA3E0601AEF24FE600B045E
:103DF2007012900509ECF0A3EDF0AF0590050DEC03
:053E0200F0A3EFF02227
:1042DE00EF24FE600804700E900509800390050D12
:0A42EE00E0FEA3E0FF22E4FEFF2241
:10418A00EF24FE600C04701390050BECF0A3EDF025
:0C419A0022AF0590050FECF0A3EFF0221F
:1042F800EF24FE600804700E90050B800390050FF4
:0A430800E0FEA3E0FF22E4FEFF2226
:10434400EF24FE600A047010C28E900503800653A9
:09435400D1F79005047402F02277
:1040FD00EF24FE600D047014900503E07002D322CE
:0D410D00C322900504E07003D38001C3229B
:10400F00EF24FE600E047016900503E0B40102D396
:0F401F0022C322900504E0B40103D38001C32221
:10402E00EF24FE600E047016900503E0B40202D376
:0F403E0022C322900504E0B40203D38001C32201
:103F9100AE071240FD4018EF24FE600B047010D2F2
:103FA1008EE4900503F02243D108E4900504F02249
:0E44F200AE0712400F5005123F91D322C32295
:094538009004FFE0FEA3E0FF2265
:094541009004FDE0FEA3E0FF225E
:06456500900511E0FF22A9
:06456B009004FCE0FF22B9
:06457100900502E0FF22AC
:06457700900501E0FF22A7
:03001B00023AB2F4
:103AB200C0E0C0F0C083C082C0D075D000C000C0DA
:103AC20006900505E475F001120CABFED390050AD1
:103AD200E095F0900509E09E500EC28E900505E437
:103AE200F0A3F090050304F0D006D000D0D0D0822D
:073AF200D083D0F0D0E032D8
:03009B00023A6ABC
:103A6A00C0E0C0F0C083C082C0D075D000C000C022
:103A7A0006900507E475F001120CABFED390050E13
:103A8A00E095F090050DE09E500F53D1F790050791
:103A9A00E4F0A3F090050404F0D006D000D0D0D012
:083AAA0082D083D0F0D0E0329D
:0300A30002346FB5
:10346F00C0E0C0F0C083C082C0D075D000C000C023
:10347F0006C2AF9004FFE475F00A120CABFEC3E571
:10348F00F094E8EE940340519004FFE4F0A3F09021
:10349F0004FD75F001120CABFEC3E5F094E8EE9459
:1034AF000340369004FDE4F0A3F0900511E004F022
:1034BF00943C4025E4F09004FCE004F0943C401967
:1034CF00E4F0900502E004F09418400DE4F090054C
:1034DF0001E004F0B4FF02E4F0D2AFD006D000D088
:0A34EF00D0D082D083D0F0D0E032BC
:061C7D007B017A02798C64
:101C8300AD07EDD3940440037F0122ED7073120B73
:101C9300CAFED3940340037F0222C28CC2A9C2B9F5
:101CA3005389F0538E7F538FFE900002120BE3B4DF
:101CB3000102D2A9900001120BE3B40102D2B9EEE2
:101CC3004289900003120BE3FF7003438E80EFB44D
:101CD3000203438904900004120BE3B40103438F0E
:101CE30001900005120CC1E5F0F58C900005120C73
:101CF300C1F58A900007120BE3B40102D28C7F0076
:101D030022ED64017076120BCAFEC3940340037F75
:101D13000222C28EC2ABC2BB53890F538EBF538FF5
:101D2300FD900002120BE3B40102D2AB900001124A
:101D33000BE3B40102D2BBEEC454F042899000031A
:101D4300120BE3FF7003438E40EFB4020343894059
:101D5300900004120BE3B40103438F0290000512B9
:101D63000CC1E5F0F58D900005120CC1F58B9000C8
:101D730007120BE3B40102D28E7F0022ED640270DE
:101D830063900003120BE3FED3940240037F02220D
:101D9300538EE353AFFB538FFB900002120BE3B45C
:101DA300010343AF04EE7003438E04900003120B50
:101DB300E3B40203438E08900004120BE3B401035F
:101DC300438F04900005120CC1E5F0F5D690000591
:101DD300120CC1F5D7900007120BE3B40103438E35
:101DE300107F0022ED64037060900003120BE3FE8A
:101DF300D3940240037F022253D1F053AFDF90000C
:101E030002120BE3B4010343AF20EE700343D1028C
:101E1300900003120BE3B4020343D10690000412B3
:101E23000BE3B4010343D101900005120CC1E5F0AB
:101E3300F5D4900005120CC1F5D5900007120BE301
:101E4300B4010343D1087F0022ED6404705C900069
:101E530003120BE3FED3940240037F022253D10FFC
:101E630053AFBF900002120BE3B4010343AF40EE44
:101E7300700343D120900003120BE3B4020343D158
:101E830060900004120BE3B4010343D110900005EA
:101E9300120CC1FDACF0ECF5D28DD3900007120B00
:0D1EA300E3B4010343D1807F00227F0222BF
:100F200090029AEBF0A3EAF0A3E9F0900299EFF0B7
:100F30006401600302113290000004F0E4A3F0A306
:100F4000F0A3F0A3F0A3F0A3F090029DF090029D17
:100F5000E0FFC39480501474382FF582E43401F517
:100F600083E4F090029DE004F080E2E490029DF0C2
:100F700090029DE0FFC394805014741C2FF582E40E
:100F80003400F583E4F090029DE004F080E29002EA
:100F90009AE0FBA3E0FAA3E0F9120BCAD394C04095
:100FA000037F022290000A120BE3B40104D2BC803A
:100FB00002C2BC120BCAFFE598543F4FF598EF648C
:100FC000C06008EF644060030210AC900002120E93
:100FD000487F807E8D7D5B7C00120D8490029E1286
:100FE0000EADE4FFFE7D01FC90029EE0F8A3E0F967
:100FF000A3E0FAA3E0FBC3120E2440037F02229079
:10100000029EE0F8A3E0F9A3E0FAA3E0FBC3E49BAF
:10101000FFE49AFE740199FDE498FC90029E120E82
:10102000AD90029AE0FBA3E0FAA3E0F99000011270
:101030000BE3FB64017038C28E538EFE5389BF539D
:1010400089CF438E4090029EE0FCA3E0FDA3E0FE2A
:10105000A3E0FF7808120E358F8D90029EA3A3A304
:10106000E0F58BC2AB5389BF538FFDD28E8076EBF8
:1010700064027035538EEF438E01538EF7438E0416
:1010800090029EE0FCA3E0FDA3E0FEA3E0FF780851
:10109000120E358FD690029EA3A3A3E0F5D753AFCF
:1010A000FB538EF7438E10803C7F022290029AE021
:1010B000FBA3E0FAA3E0F9120BCAFF70139000083B
:1010C000120BE3B40105438E20801A538EDF801586
:1010D000EFB48011900008120BE3B4010543878040
:1010E000800353877F90029AE0FBA3E0FAA3E0F924
:1010F000900009120BE3B40104D2AC8002C2AC90A0
:101100000007120BE3B40104D29C8002C29C900041
:101110000B120BE354C0FFE5A2543F4FF5A2900021
:101120000C120BE3B4010543971080035397EF7F34
:101130000022900299E0640260030212949000077A
:101140007402F0E4A3F0A3F0A3F0A3F0A3F0A3F0E3
:1011500090029DF090029DE0FFC39480501474D4DF
:101160002FF582E43401F583E4F090029DE004F071
:1011700080E2E490029DF090029DE0FFC3948050D5
:1011800014749C2FF582E43400F583E4F090029D02
:10119000E004F080E290029AE0FBA3E0FAA3E0F919
:1011A000120BCAFF64C06008EF644060030212546F
:1011B00090000A120BE3B4010543B501800353B557
:1011C000FE120BCAB4C005439A808003539A7F90E5
:1011D0000002120E487F807E8D7D5B7C00120D84A4
:1011E00090029E120EADE4FFFE7D01FC90029EE097
:1011F000F8A3E0F9A3E0FAA3E0FBC3120E24400336
:101200007F022290029EE0F8A3E0F9A3E0FAA3E0B7
:10121000FBC3E49BFFE49AFE740199FDE498FC9003
:10122000029E120EAD538EEF538EF7438E04900242
:101230009EE0FCA3E0FDA3E0FEA3E0FF7808120E11
:10124000358FD690029EA3A3A3E0F5D753AFFB43FF
:101250008E1080037F022290029AE0FBA3E0FAA3A3
:10126000E0F9900009120BE3B4010543AF018003DC
:1012700053AFFE900007120BE3B40105439A1080B0
:1012800003539AEF90000B120BE35401FFE5BA549D
:10129000FE4FF5BA900299E0640360030214479090
:1012A000000E7402F0E4A3F0A3F0A3F0A3F0A3F007
:1012B000A3F090029DF090029DE0FFC3941C501497
:1012C00074542FF582E43402F583E4F090029DE03B
:1012D00004F080E2E490029DF090029DE0FFC39450
:1012E0001C5014741C2FF582E43401F583E4F09053
:1012F000029DE004F080E290029AE0FBA3E0FAA3F2
:10130000E0F9120BCAFF64C06008EF64406003029A
:10131000140753ACDFEFB4C00543AC80800353AC7B
:101320007F90029AE0FBA3E0FAA3E0F9900002129A
:101330000E487F807E8D7D5B7C00120D8490029E26
:10134000120EADE4FFFE7D01FC90029EE0F8A3E0EA
:10135000F9A3E0FAA3E0FBC3120E2440037F0222AC
:1013600090029EE0F8A3E0F9A3E0FAA3E0FBC3E457
:101370009BFFE49AFE740199FDE498FC90029E1292
:101380000EAD90029AE0FBA3E0FAA3E0F990000111
:10139000120BE3FB6402703253ACBF538EEF538EDB
:1013A000F7438E0490029EE0FCA3E0FDA3E0FEA3C1
:1013B000E0FF7808120E358FD690029EA3A3A3E01B
:1013C000F5D753AFFB438E108040EB64017035437B
:1013D000AC4053D1F053AFDF43D10253D1FB53D1D3
:1013E000FE90029EE0FCA3E0FDA3E0FEA3E0FF78F8
:1013F00008120E358FD490029EA3A3A3E0F5D54327
:10140000D10880067F02227F022290029AE0FBA38D
:10141000E0FAA3E0F9900009120BE3B4010543AF31
:1014200008800353AFF7900007120BE3B4010543A4
:10143000AC10800353ACEF90000B120BE35402FF8F
:10144000E5BA54FD0215F7900299E06404600302C6
:1014500015FD9000157402F0E4A3F0A3F0A3F0A32F
:10146000F0A3F0A3F090029DF090029DE0FFC394E2
:101470001C501474702FF582E43402F583E4F0906C
:10148000029DE004F080E2E490029DF090029DE075
:10149000FFC3941C501474B82FF582E43401F58313
:1014A000E4F090029DE004F080E290029AE0FBA359
:1014B000E0FAA3E0F9120BCAFF64C06008EF6440D1
:1014C00060030215BA5384DFEFB4C0054384808003
:1014D0000353847F90029AE0FBA3E0FAA3E0F99023
:1014E0000002120E487F807E8D7D5B7C00120D8491
:1014F00090029E120EADE4FFFE7D01FC90029EE084
:10150000F8A3E0F9A3E0FAA3E0FBC3120E24400322
:101510007F022290029EE0F8A3E0F9A3E0FAA3E0A4
:10152000FBC3E49BFFE49AFE740199FDE498FC90F0
:10153000029E120EAD90029AE0FBA3E0FAA3E0F93E
:10154000900001120BE3FB640270325384BF538E90
:10155000EF538EF7438E0490029EE0FCA3E0FDA3C0
:10156000E0FEA3E0FF7808120E358FD690029EA30E
:10157000A3A3E0F5D753AFFB438E108040EB64028A
:10158000703543844053D10F53AFBF43D12053D163
:10159000BF53D1EF90029EE0FCA3E0FDA3E0FEA3C9
:1015A000E0FF7808120E358FD290029EA3A3A3E02D
:1015B000F5D343D18080067F02227F022290029AD7
:1015C000E0FBA3E0FAA3E0F9900009120BE3B401F9
:1015D0000543AF10800353AFEF900007120BE3B445
:1015E000010543841080035384EF90000B120BE33A
:0F15F0005404FFE5BA54FB4FF5BA7F00227F0386
:0115FF0022C9
:103D7100900002E02438F582E43401F583EFF090FD
:103D81000002E004F0C394804002E4F0900003E0FC
:073D9100700404F0D2992236
:103CF900900009E024D4F582E43401F583EFF090D3
:103D09000009E004F0C394804002E4F090000AE066
:083D1900700504F0439A022238
:103D2100900010E02454F582E43402F583EFF09022
:103D31000010E004F0C3941C4002E4F0900011E094
:083D4100700504F043AC0222FE
:103D4900900017E02470F582E43402F583EFF090D7
:103D59000017E004F0C3941C4002E4F0900018E05E
:083D6900700504F043840222FE
:10438D00C2AF120BCAFF600C123D71740129F9E422
:07439D003AFA80EED2AF22D4
:1043CE00120BCAFF600C123CF9740129F9E43AFA97
:0343DE0080EE224C
:1043E100120BCAFF600C123D21740129F9E43AFA5B
:0343F10080EE2239
:1043F400120BCAFF600C123D49740129F9E43AFA20
:0344040080EE2225
:030023000236881A
:10368800C0E0C083C082C0D075D000C006C007307B
:10369800982DC298900006E07025900004E0C3942D
:1036A800804002E4F0900004E0FF04F0741C2FF561
:1036B80082E43400F583E599F09000057405F03054
:1036C8009930C299900002E0FF900001E0FE6F601F
:1036D8001C74382EF582E43401F583E0F5999000E6
:1036E80001E004F0C394804009E4F08005900003F1
:0F36F800E4F0D007D006D0D0D082D083D0E0321B
:030043000234F98B
:1034F900C0E0C083C082C0D075D000C006C007E557
:103509009A30E02E539AFE90000DE0702590000B42
:10351900E0C394804002E4F090000BE0FF04F074F3
:103529009C2FF582E43400F583E59BF090000C7440
:1035390005F0E59A30E131539AFD900009E0FF90DA
:103549000008E0FE6F601C74D42EF582E43401F5A6
:1035590083E0F59B900008E004F0C394804009E4FF
:10356900F0800590000AE4F0D007D006D0D0D082D0
:05357900D083D0E03218
:03008B0002357EBD
:10357E00C0E0C083C082C0D075D000C006C007E5D1
:10358E00AC30E02E53ACFE900014E070259000128B
:10359E00E0C3941C4002E4F0900012E0FF04F074CB
:1035AE001C2FF582E43401F583E5ADF09000137421
:1035BE0005F0E5AC30E13153ACFD900010E0FF902A
:1035CE00000FE0FE6F601C74542EF582E43402F599
:1035DE0083E0F5AD90000FE004F0C3941C4009E4C5
:1035EE00F08005900011E4F0D007D006D0D0D08244
:0535FE00D083D0E03293
:030093000236032F
:10360300C0E0C083C082C0D075D000C006C007E54B
:103613008430E02E5384FE90001BE0702590001947
:10362300E0C3941C4002E4F0900019E0FF04F0743E
:10363300B82FF582E43401F583E585F090001A7420
:1036430005F0E58430E1315384FD900017E0FF90ED
:103653000016E0FE6F601C74542EF582E43402F50C
:1036630083E0F585900016E004F0C3941C4009E460
:10367300F08005900018E4F0D007D006D0D0D082B7
:05368300D083D0E0320D
:0E450000E4F5C7F5C5F5C675C3FF75C4FF2207
:103B3D00AD07AC06C2AF75C78075C501ECF5C3AF57
:103B4D00058FC475C65A75C6A500E5C2120C100DB9
:103B5D00BD00010C740129F9E43AFA90057D74FF5A
:0F3B6D00F5F0120CAB45F070D3124500D2AF2229
:103FB100AD07AC06C2AFECF5C3AF058FC475C780C2
:103FC10075C50375C65A75C6A500124500D2AF2244
:103B7C00AD07AC06C2AF75C78075C502ECF5C3AF17
:103B8C00058FC4120BCAF5C275C65A75C6A5000DB1
:103B9C00BD00010C740129F9E43AFA90058474FF14
:0F3BAC00F5F0120CAB45F070D3124500D2AF22EA
:101B0C00EFD3940940037FFF2274232F2FF8E62094
:101B1C00E5F4C2AFE64430F6D2AFAE0CEEC39F5044
:101B2C00210E740E2EF8E6F908E618BE090274FFB1
:101B3C00FDED69600909E71919F7090980F3161613
:101B4C0080DAEED39F400405810581EED39F4022BD
:101B5C00740E2EF808E6F9EEB50C02A981180606EB
:101B6C00E6FDED6960091919E70909F71980F31EFB
:101B7C0080D9EF240EF8E604F8EF2F049043BA93C3
:091B8C00F608EF2F93F67F00220A
:101B9500EFD3940940037FFF22EF232423F8E63097
:101BA500E5F4C2AFE6548CF6D2AFE50CB5070A747E
:101BB5000E2FF8E6F581021A15502E740F2FF8E650
:101BC500BF090274FFFD18E6F9740E2FF8FBE6FC59
:101BD500E96C6008A805E7F61D1980F4A803A605B9
:101BE5001FE50CB507E37F0022740F2FF8E6FD18FB
:101BF50086010F740E2FF8A601088604E50CB507BB
:101C050002AC81ED6C60080D09A805E6F780F4E5E6
:091C15000CB507DE89817F002275
:101C1E008FF0E4FFFEE50C232422F8C2A930F70D65
:101C2E007F08E6600B2DF660325030800730F106EB
:101C3E00EDF660277E020830F010C2AFE610E72501
:101C4E000E30E20CD2AF7F048014C2AFE610E7155F
:101C5E0054EC4EF6D2AFD2A9021A157F0808EF4403
:0F1C6E0083F4C2AF56C6D2AFD2A954804FFF2223
:10080000020BB5E86480F8E933E83360110460F066
:10081000ED33EC337009E8FCE9FDEAFEEBFF22045E
:1008200060DED3EB9FEA9EE99DE8C2E78CF0C2F759
:1008300095F0400CE8CCF8E9CDF9EACEFAEBCFFB25
:10084000120B8085D0F05804700320D5B3E80470F3
:10085000075002B2D5020BBF92D5EC0460F7E4CC8E
:10086000C0E0C398F8603B94186008400DD0E0FBEE
:10087000020B97E4FBFAC9FC8028E830E406E4C9DF
:10088000FBE4CAFCE830E305E4C9CACBFCE8540742
:100890006010F8C3E913F9EA13FAEB13FBEC13FC4D
:1008A000D8F130F52FC3E49CFCEF9BFFEE9AFEEDF0
:1008B00099FDD0E0FBEF4E4D4C701222DB03020B92
:1008C000BCEC2CFCEF33FFEE33FEED33FDED30E7F7
:1008D000EB020B97EF2BFFEE3AFEED39FDD0E0FB7C
:1008E00050130BBB0003020BBFED13FDEE13FEEF25
:0808F00013FFEC13FC020B974F
:1008F800EC4D6011E8497017ED33EC3304600DE4FA
:10090800FCFFFEFD22E933E8330470F8020BB51250
:100918000B8058046009E4CC248150062850090251
:100928000BBF284003020BBCC0E0EB4A7044B980FF
:1009380006D0E0FB020BABEF4E701CBD8008EBFF4E
:10094800EAFEE9FD80EBE98DF0A4FEE5F00209E19D
:10095800E9CDF9EAFEEBFFEF89F0A4FCE5F0CE89DA
:10096800F0A42EFFE435F0CD89F0A42DFEE435F097
:100978008067EF4E7005BD80D780C3EF8BF0A4ACC5
:10098800F0EE8BF0A42CFCE435F0F8EF8AF0A42C00
:10099800E5F038FCE433CB8DF0A42CFCE5F03BF813
:1009A800EE8AF0A42CFCE5F038F8E433CF89F0A403
:1009B8002CFCE5F038CF3400CE89F0A42FFFE5F009
:1009C8003EFEE433C98DF0A42EFEE5F039CD8AF061
:1009D800A42FFFE5F03EFEE43DFD33D0E0FB5007D9
:1009E8000BBB000F020BBFEC2CFCEF33FFEE33FE0A
:0609F800ED33FD020B9738
:1009FE00020BBFEC5D046005E859047003020BB5F1
:100A0E00120B80580460F6EC4860F2EC7004FDFEA8
:100A1E00FF22C860DB2481C85009C39860025006CB
:100A2E00020BBC9850CAF582E9294B4A7005AB827D
:100A3E00020BAB75F0007C1A7880C3EF9BEE9AED3B
:100A4E0099400DC3EF9BFFEE9AFEED99FDE842F043
:100A5E00DC23ACF0D0E0FFD0E0FED0E0FDAB822096
:100A6E00E7101BEB60BAEC2CFCEF33FFEE33FEED20
:100A7E0033FD020B97E803F830E705C0F075F00080
:100A8E00EF2FFFEE33FEED33FD40B830E7C280AA04
:100A9E0074F8CC6480CCC86480C8F582046043C30B
:100AAE00EB9FF5F0EA9E42F0E99D42F0E89C45F09E
:100ABE0060305018E5825FFFE582F42B5582FB50C3
:100ACE00210ABA001D09B90019088016E5825BFBE0
:100ADE00E582F42F5582FF50090EBE00050DBD00B4
:100AEE00010CC3EB9FF5F0EA9E42F0E99D42F0E85F
:0D0AFE009C45F06007CC4820E701B3EC22D6
:100B0B0075F020800E75F010800575F0087D007E65
:100B1B00007F003392D530D503120E16EC33401004
:100B2B00EF33FFEE33FEED33FDEC33FCD5F0ED226E
:0E0B3B00E5F0247EA2D513CC92E7CDCEFF22AA
:100B4900EDD2E7CD33EC3392D524814006E4FFFEA4
:100B5900FDFC22FCE4CFCECDCC24E0501174FF8003
:100B6900EDC3CC13CCCD13CDCE13CECF13CF0470A0
:070B7900F030D5DE020E167C
:100B8000E9D2E7C933E833F892D5EDD2E7CD33ECBB
:070B900033FC5002B2D52234
:100B9700EC30E7100FBF000C0EBE00080DBD0004BF
:100BA7000BEB6014A2D5EB13FCED92E7FD2274FF6B
:100BB700FCFDFEFF22E480F8A2D574FF13FC7D80C4
:030BC700E480EFD8
:030000000233E3E5
:0C33E300787FE4F6D8FD75813502342AAD
:100BCA00BB010689828A83E0225002E722BBFE0229
:090BDA00E32289828A83E493225C
:100BE300BB010CE58229F582E5833AF583E02250C7
:100BF30006E92582F8E622BBFE06E92582F8E22211
:0D0C0300E58229F582E5833AF583E493222A
:100C1000BB010689828A83F0225002F722BBFE01C3
:020C2000F322BD
:100C2200F8BB010DE58229F582E5833AF583E8F008
:100C3200225006E92582C8F622BBFE05E92582C8B4
:020C4200F2229C
:100C4400EF8DF0A4A8F0CF8CF0A428CE8DF0A42EC4
:020C5400FE227E
:100C5600BC000BBE0029EF8DF084FFADF022E4CC82
:100C6600F875F008EF2FFFEE33FEEC33FCEE9DEC4B
:100C7600984005FCEE9DFE0FD5F0E9E4CEFD22ED91
:100C8600F8F5F0EE8420D21CFEADF075F008EF2FDB
:100C9600FFED33FD4007985006D5F0F222C398FDCC
:050CA6000FD5F0EA2269
:100CAB00C5F0F8A3E028F0C5F0F8E58215827002D4
:060CBB001583E038F02271
:100CC100BB0110E58229F582E5833AF583E0F5F071
:100CD100A3E0225009E92582F886F008E622BBFE4E
:100CE1000AE92582F8E2F5F008E222E5832AF58394
:080CF100E993F5F0A3E9932259
:100CF900E88FF0A4CC8BF0A42CFCE98EF0A42CFC9A
:100D09008AF0EDA42CFCEA8EF0A4CDA8F08BF0A417
:100D19002DCC3825F0FDE98FF0A42CCD35F0FCEB76
:100D29008EF0A4FEA9F0EB8FF0A4CFC5F02ECD393B
:0F0D3900FEE43CFCEAA42DCE35F0FDE43CFC22A8
:100D480075F008758200EF2FFFEE33FECD33CDCC62
:100D580033CCC58233C5829BED9AEC99E5829840E5
:100D68000CF582EE9BFEED9AFDEC99FC0FD5F0D6C2
:100D7800E4CEFBE4CDFAE4CCF9A88222B800C1B9EC
:100D88000059BA002DEC8BF084CFCECDFCE5F0CB2A
:100D9800F97818EF2FFFEE33FEED33FDEC33FCEB63
:100DA80033FB10D703994004EB99FB0FD8E5E4F91E
:100DB800FA227818EF2FFFEE33FEED33FDEC33FC0B
:100DC800C933C910D7059BE99A4007EC9BFCE99AFF
:100DD800F90FD8E0E4C9FAE4CCFB2275F010EF2F44
:100DE800FFEE33FEED33FDCC33CCC833C810D70744
:100DF8009BEC9AE899400AED9BFDEC9AFCE899F87F
:0E0E08000FD5F0DAE4CDFBE4CCFAE4C8F92211
:103AF900C2D5E830E70FB2D5E4C39BFBE49AFAE4F8
:103B090099F9E498F8EC30E717B2D5123B2F120D6A
:103B190084E4C39BFBE49AFAE499F9E498F88003F6
:103B2900120D8430D50DE4C39FFFE49EFEE49DFD94
:043B3900E49CFC22EA
:0E0E1600C3E49FFFE49EFEE49DFDE49CFC22ED
:100E2400EB9FF5F0EA9E42F0E99D42F0E89C45F024
:010E3400229B
:100E3500E8600FECC313FCED13FDEE13FEEF13FF9B
:030E4500D8F122BF
:100E4800BB010DE58229F582E5833AF583020EF7A9
:100E58005007E92582F8020EEABBFE07E92582F869
:100E6800020F03E58229F582E5833AF583020F1024
:100E78007401FF3395E0FEFDFCA3A3A3E0CF2FF0A0
:100E8800E582158270021583E0CE3EF0E582158278
:100E980070021583E0CD3DF0E5821582700215835E
:050EA800E0CC3CF0224B
:0C0EAD00ECF0A3EDF0A3EEF0A3EFF022B8
:100EB900A8828583F0D083D082120ED0120ED01270
:100EC9000ED0120ED0E473E493A3C583C5F0C58395
:100ED900C8C582C8F0A3C583C5F0C583C8C582C883
:010EE90022E6
:1033EF00021ACFE493A3F8E493A34003F68001F20B
:1033FF0008DFF48029E493A3F85407240CC8C333DF
:10340F00C4540F4420C8834004F456800146F6DFAD
:10341F00E4800B010204081020408090302AE47EE3
:10342F00019360BCA3FF543F30E509541FFEE493A2
:10343F00A360010ECF54C025E060A840B8E493A369
:10344F00FAE493A3F8E493A3C8C582C8CAC583CA94
:10345F00F0A3C8C582C8CAC583CADFE9DEE780BE4C
:0130D00000FF
:0D0EEA00E6FB08E6F908E6FA08E6CBF82278
:0C0EF700E0F8A3E0F9A3E0FAA3E0FB227E
:0D0F0300E2FB08E2F908E2FA08E2CBF8226E
:100F1000E493F8740193F9740293FA740393FB2237
:00000001FF
