:0246A1004722AE
:0246A3004723AB
:0246A5003AF8E1
:0246A7004724A6
:0246A9004725A3
:014722002274
:014723002273
:103AF800E4FF124581D20D1238879003AF120EAD44
:103B0800E4FF124081E4FF12459350337F011246CF
:103B1800304007E4FF1246305025E4FF12199AE4BA
:103B2800FF12437BC004C005C006C007E4FF12446F
:103B380017D003D002D001D000120807122FB3E427
:0B3B4800FBFA7D0A7F8012220080AA99
:014724002272
:014725002271
:102FB3009003AE120EAD7F667EE67D337C439003B5
:102FC300AEE0F8A3E0F9A3E0FAA3E0FB120A9E4007
:102FD3000A9003AE120EB94333E6667FCD7ECC7DF5
:102FE300CC7C3D9003AEE0F8A3E0F9A3E0FAA3E0C4
:102FF300FB120A9E6002500A9003AE120EB93DCC3A
:10300300CCCDE4FBFA793478439003AEE0FCA3E043
:10301300FDA3E0FEA3E0FF120A019003B3120EAD7D
:103023007F011234D5E4FBFA793478439003AEE0A0
:10303300FCA3E0FDA3E0FEA3E0FF120A01A804A99C
:1030430005AA06AB07E4FFFE7D807C3F12080390D0
:0C30530003B3120EADE4FF1234D5D322FB
:103E910090048F7440F0A37402F0A3120EAD90044D
:103EA100967401F0E4A3F0A304F0A3F0E4A3F0A35B
:0C3EB100F07B017A04798F7F01020F2062
:1039D4007F007EC27D017C00123E91123109123EAD
:1039E400BD1241C6E4FD7F011242F01239011242B8
:1039F4009A90049D120EB9404000009004A1120E4A
:103A0400B93CA3D70A9004A5120EB93F800000E484
:103A1400FF1229699004FD120EB900000000E4FFB2
:103A240012403F900502120EB943480000E4FF1211
:053A34004060D2AF224A
:103F85007374657033206973206F6B0A00737465F1
:103F95007032206973206F6B0A007374657031206D
:073FA5006973206F6B0A0035
:06325700C104C105C1061F
:102CBF0030046D30051F300607C204C205C206225C
:102CCF007F0112444BE4FF12444BD2067BFF7A3F45
:102CDF007985022D8A7D887C137F01123FF87F0151
:102CEF0012420450329003B3120EB93C23D70A7F1D
:102CFF00011234D59003B3120EB93F7D70A4E4FFD7
:102D0F001234D5E4FF12444B7F0112444BD2057BA2
:102D1F00FF7A3F799280647F01124223506C806565
:102D2F00900516120EB942C80000E4FF1241057D4E
:102D3F00887C137F01123FF87F01124360E4FF127A
:102D4F004360E4FF124581E4FF124395120B4912D1
:102D5F004695AC06AD07EC120B10E4FBFAF9784080
:102D6F00120A9E602540237F0112420450107F01FA
:102D7F00124500D2047BFF7A3F799F0245317F01D4
:0A2D8F0012422350057F0112418615
:012D99002217
:014726002270
:01472700226F
:01472800226E
:01472900226D
:03000B000220933D
:10208E00C2AF80FE3212209285D00B75D008AAE026
:10209E00C28CE58A243DF58AE58C34F7F58CD28C1A
:1020AE00EC2419F8E6BC040274FFC39581B4140045
:1020BE0040CE7905780E16E608700BC2AFE630E119
:1020CE00034418F6D2AF08D9EDEA8BD0300A0122BC
:1020DE00D50DFCC0E0C0D0C0F0C083C082C000C02F
:1020EE0001C002C003C004C005C006C007E50C2332
:1020FE00240FF87440C2AF46F6D2AFD20AE50CFFF9
:10210E0023240FF80F0808BF05047F00780FE63070
:10211E00E4F200E50CC39F5020050C7418250CF852
:10212E00E6FDA68108E6AE0CBE040274FFCDF8E80B
:10213E006D60E008E6C0E080F6E50CD39F4027E531
:10214E000C2419F8E6AE0CBE040274FFFD18E6CDA1
:10215E00F8E5816D6006D0E0F61880F5E50C2418E0
:10216E00C8F6150C80D3750D0AE50C23240FF87FE5
:10217E0004C2AFE610E61E30E00310E20C7F003022
:10218E00E10730E3047F0854F4547CC6D2AF548088
:10219E004207C20A22F6D2AFD007D006D005D0042D
:1021AE00D003D002D001D000D082D083D0F0D0D0D6
:0E21BE00D0E0C20A227818A68174046006FFE1
:1021CC000876FFDFFB7F05E4780EF608F608DFFAE9
:1021DC00780F76309046A1740193C0E0E493C0E090
:1021EC00750D0A438901758A36758CF7D28CD2AF7E
:0421FC00D2A922043E
:10296900AB07EB75F039A42494F582E43402F583BE
:10297900120EB900000000EB75F039A42498F58215
:10298900E43402F583120EB900000000EB75F0394A
:10299900A424ACF582E43402F583120EB9000000D8
:1029A90000EB75F039A424A8F582E43402F583120A
:1029B9000EB90000000090049DE0FCA3E0FDA3E037
:1029C900FEA3E0FFEB75F039A4249CF582E4340200
:1029D900F583120EAD9004A1E0FCA3E0FDA3E0FE97
:1029E900A3E0FFEB75F039A424A0F582E43402F5E5
:1029F90083120EAD9004A5E0FCA3E0FDA3E0FEA3C5
:102A0900E0FFEB75F039A424A4F582E43402F583E0
:102A1900120EADEB75F039A4249CF582E43402F56D
:102A290083E0FCA3E0FDA3E0FEA3E0FFEB75F03932
:102A3900A424B4F582E43402F583120EADEB75F0EB
:102A490039A424A0F582E43402F583E0FCA3E0FD77
:102A5900A3E0FEA3E0FFEB75F039A424B0F582E40E
:102A69003402F583120EADEB75F039A424A4F58276
:102A7900E43402F583E0FCA3E0FDA3E0FEA3E0FF5C
:102A8900EB75F039A424B8F582E43402F583020E1B
:012A9900AD8F
:10458100EF75F039A424C4F582E43402F583740193
:02459100F02216
:1045DB00EF75F039A424C4F582E43402F583E4F0DA
:0145EB0022AD
:10199A009003AEEFF0E0FF75F039A42490F582E4ED
:1019AA003402F583E0F8A3E0F9A3E0FAA3E0FBEF41
:1019BA0075F039A4248CF582E43402F583E0FCA3A3
:1019CA00E0FDA3E0FEA3E0FF1208039003AEE0FBF4
:1019DA0075F039A42494F582E43402F583120EAD2D
:1019EA00EB75F039A42494F582E43402F583E0FC23
:1019FA00A3E0FDA3E0FEA3E0FF120B49124695AC5B
:101A0A0006AD07EC120B10E4FBFA79707841120A62
:101A1A009E9003AE60025003021AF2E0FB75F039A1
:101A2A00A424B0F582E43402F583E0FCA3E0FDA32C
:101A3A00E0FEA3E0FFEB75F039A424A0F582E434BC
:101A4A0002F583120EAD9003AEE075F039A424A816
:101A5A00F582E43402F583C083C082E0FCA3E0FD92
:101A6A00A3E0FEA3E0FF9003AEE075F039A424944E
:101A7A00F582E43402F583E0F8A3E0F9A3E0FAA3DF
:101A8A00E0FB120807D082D083120EAD9003AEE0BD
:101A9A0075F039A424B4F582E43402F583E0FCA39A
:101AAA00E0FDA3E0FEA3E0FF7433FBFAF978BF126E
:101ABA0008079003AEE0FB75F039A4249CF582E494
:101ACA003402F583120EADEB75F039A424B8F58211
:101ADA00E43402F583E0FCA3E0FDA3E0FEA3E0FF0B
:101AEA00E4FBFAF978BF804DE0FB75F039A424A035
:101AFA00F582E43402F583120EB900000000EB759A
:101B0A00F039A424A8F582E43402F583120EB90050
:101B1A000000009003AEE075F039A424B8F582E421
:101B2A003402F583E0FCA3E0FDA3E0FEA3E0FFE4BA
:101B3A00FBFAF9783F1208079003AEE075F039A472
:101B4A0024A4F582E43402F583120EAD9003AEE0CC
:101B5A00FF75F039A424A8F582E43402F583E0F88D
:101B6A00A3E0F9A3E0FAA3E0FBEF75F039A424A0FF
:101B7A00F582E43402F583E0FCA3E0FDA3E0FEA3D2
:101B8A00E0FF1208F8C004C005C006C0079003AE03
:101B9A00E0FF75F039A42494F582E43402F583E079
:101BAA00F8A3E0F9A3E0FAA3E0FBEF75F039A42467
:101BBA009CF582E43402F583E0FCA3E0FDA3E0FE99
:101BCA00A3E0FF1208F8D003D002D001D000120817
:101BDA0007C004C005C006C0079003AEE0FF75F059
:101BEA0039A42498F582E43402F583E0F8A3E0F9F5
:101BFA00A3E0FAA3E0FBEF75F039A42494F582E49C
:101C0A003402F583E0FCA3E0FDA3E0FEA3E0FF12AB
:101C1A0008039003AEE075F039A424A4F582E434F5
:101C2A0002F583E0F8A3E0F9A3E0FAA3E0FB1208C7
:101C3A00F8D003D002D001D0001208079003AEE01A
:101C4A00FB75F039A424ACF582E43402F583120E54
:101C5A00ADEB75F039A42494F582E43402F583E0FF
:101C6A00FCA3E0FDA3E0FEA3E0FFEB75F039A4249A
:0D1C7A0098F582E43402F583120EADD322FA
:10403F00AB079004FDE0FCA3E0FDA3E0FEA3E0FFCF
:10404F00EB75F039A424C0F582E43402F583020E37
:01405F00ADB3
:10406000AB07900502E0FCA3E0FDA3E0FEA3E0FFA8
:10407000EB75F039A424BCF582E43402F583020E1A
:01408000AD92
:10408100AB079003AFE0FCA3E0FDA3E0FEA3E0FFDC
:10409100EB75F039A42490F582E43402F583020E25
:0140A100AD71
:1040A200AB07900507E0FCA3E0FDA3E0FEA3E0FF61
:1040B200EB75F039A424A0F582E43402F583020EF4
:0140C200AD50
:1040C300AB0790050CE0FCA3E0FDA3E0FEA3E0FF3B
:1040D300EB75F039A4249CF582E43402F583020ED7
:0140E300AD2F
:1040E400AB07900511E0FCA3E0FDA3E0FEA3E0FF15
:1040F400EB75F039A424A4F582E43402F583020EAE
:01410400AD0D
:10410500AB07900516E0FCA3E0FDA3E0FEA3E0FFEE
:10411500EB75F039A4248CF582E43402F583020EA4
:01412500ADEC
:10437B00EF75F039A4248CF582E43402F583E0FC6C
:0A438B00A3E0FDA3E0FEA3E0FF2283
:10439500EF75F039A42494F582E43402F583E0FC4A
:0A43A500A3E0FDA3E0FEA3E0FF2269
:1043AF00EF75F039A42498F582E43402F583E0FC2C
:0A43BF00A3E0FDA3E0FEA3E0FF224F
:1043C900EF75F039A4249CF582E43402F583E0FC0E
:0A43D900A3E0FDA3E0FEA3E0FF2235
:1043E300EF75F039A424A0F582E43402F583E0FCF0
:0A43F300A3E0FDA3E0FEA3E0FF221B
:1043FD00EF75F039A424A4F582E43402F583E0FCD2
:0A440D00A3E0FDA3E0FEA3E0FF2200
:10441700EF75F039A424ACF582E43402F583E0FCAF
:0A442700A3E0FDA3E0FEA3E0FF22E6
:10443100EF75F039A424A8F582E43402F583E0FC99
:0A444100A3E0FDA3E0FEA3E0FF22CC
:10459300EF75F039A424C4F582E43402F583E024F2
:0245A300FF22F5
:0526FF009003C6EDF0A0
:10270400E49003CDF0A3F09003C9E0FFA3E09003AD
:10271400CFCFF0A3EFF09003C7E0FFA3E09003D185
:10272400CFF0A3EFF0E49003CBF0A3F09003C6E066
:10273400FF9003CBE0FCA3E0FDC39F7480F8EC643E
:10274400809840030227F9ED25E0FFEC338F82F5F2
:1027540083120CC1FFC39003D0E09F9003CFE09598
:10276400F0501D9003CCE025E0FF9003CBE0338FC5
:1027740082F583120CC1FF9003CFE5F0F0A3EFF0D4
:102784009003CCE025E0FF9003CBE0338F82F58308
:10279400120CC1FFD39003D2E09F9003D1E095F0D7
:1027A400401D9003CCE025E0FF9003CBE0338F8203
:1027B400F583120CC1FF9003D1E5F0F0A3EFF09084
:1027C40003CCE025E0FF9003CBE0338F82F5831246
:1027D4000CC1FFAEF09003CEE02FF09003CDE03EAD
:1027E400F09003CCE004F060030227309003CBE0C8
:1027F40004F00227309003D1E0FEA3E0FF9003D061
:10280400E02FFF9003CFE03EFEC39003CEE09FFF96
:102814009003CDE09EFEF0A3EFF09003C6E024FE0B
:10282400FDE434FFFC120C569003CDEEF0A3EFF060
:012834002281
:10325D00602A038400000000000000000000000050
:10326D000000000000000000000000000000000051
:0E327D00000000000000000000000000000043
:10305F009004B0EBF0A3EAF0A3E9F0900003120B99
:10306F00E3FF9004ACE0FBA3E0FAA3E0F9A3E0FEDA
:10307F00F582758300EF120C229004B0E0FBA3E001
:10308F00FAA3E0F9900002120BE3FFEE2401FDE436
:10309F0033FC9004ACE0FBA3E0FAA3E0F98D828C43
:1030AF0083EF120C229004B0E0FBA3E0FAA3E0F947
:1030BF00900001120BE3FFEE2402FDE433FC9004B9
:1030CF00ACE0FBA3E0FAA3E0F98D828C83EF120C46
:1030DF00229004B0E0FBA3E0FAA3E0F9120BCAFFC1
:1030EF00EE2403FDE433FC9004ACE0FBA3E0FAA371
:0A30FF00E0F98D828C83EF020C22B1
:103DFA009004EEE090051EF0122835E49004EFF0EE
:103E0A009004EEE0FF1231B29004EFE0FEC39F503F
:103E1A001774842EF582E43403F583E0FF123FAC75
:083E2A009004EFE004F080D8E1
:013E3200226D
:1028350090051A120EAD90051EE0FFD3940A4003D1
:10284500022968EF7003022968EF14B40A004003F7
:1028550002296890286675F003A4C58325F0C58311
:102865007302288402289A0228B10228C80228DFA8
:102875000228F502290B02292102293702294D9048
:1028850004AC7401F0A37403F0A37484F0A3740181
:10289500F0FB0229619004AC7401F0A37403F0A36A
:1028A5007484F0A37405F07B010229619004AC7473
:1028B50001F0A37403F0A37484F0A37409F07B0101
:1028C5000229619004AC7401F0A37403F0A374842D
:1028D500F0A3740DF07B010229619004AC7401F042
:1028E500A37403F0A37484F0A37411F07B01806CCE
:1028F5009004AC7401F0A37403F0A37484F0A37482
:1029050015F07B0180569004AC7401F0A37403F0BC
:10291500A37484F0A37419F07B0180409004AC7417
:1029250001F0A37403F0A37484F0A3741DF07B017C
:10293500802A9004AC7401F0A37403F0A37484F0AE
:10294500A37421F07B0180149004AC7401F0A3748E
:1029550003F0A37484F0A37425F07B017A05791A3A
:0429650012305F22AB
:1031B200EFD3940A5003EF70037F002290038474CC
:1031C20024F0EF14B40A0040030232549031DC754B
:1031D200F003A4C58325F0C583730231FA023203DA
:1031E20002320C02321502321E0232270232300241
:1031F200323902324202324B9003897405F07F0663
:103202002290038D7409F07F0A22900391740DF0CD
:103212007F0E229003957411F07F1222900399740D
:1032220015F07F162290039D7419F07F1A229003E5
:10323200A1741DF07F1E229003A57421F07F22222B
:103242009003A97425F07F26229003AD7429F07FA4
:053252002A227F00228A
:1045A50090051FEEF0A3EFF0A3EBF0A3EAF0A3E96B
:0245B500F022F2
:08328B00C100C101C102C10331
:1041C6009005397478F0E4900538F07B017A05792A
:0E41D600387F0212225FD2A3D2A4D2A5D2A6B5
:0141E40022B8
:0A46AB00EF4E7005EE4F24FFB3221E
:10426000EF24F0600F24F0600E24E0600D2438701D
:0D4270000BA20022A20122A20222A2032220
:103BAB00A2A3E4FE33FF1246AB500EA2A3E433FFF5
:103BBB001246AB5006D2008002C200A2A4E4FE3330
:103BCB00FF1246AB5007200106D2018002C201A2B0
:103BDB00A5E4FE33FF1246AB5007200206D202804B
:103BEB0002C202A2A6E4FE33FF1246AB500620032C
:073BFB0005D20322C20322E0
:02329300C10B6D
:103EBD0090053B7405F0E490053AF07B017A0579A5
:103ECD003A7F0512225F12470E7FC81246401247F5
:073EDD00137FC8124640D319
:013EE40022BB
:05470E00C2CDD20B2218
:05471300D2CDC20B2213
:10401D00900540EFF0900540E0FF14F0EF601212B4
:10402D00470E7FC81246401247137FC81246408084
:02403D00E4227B
:03471C00A20B22CB
:0646F000900541EFF022ED
:1034D5009003B2EFF07F337E337D737C3FA3E0F83A
:1034E500A3E0F9A3E0FAA3E0FB120A9E600C400AF0
:1034F5009003B3120EB93F7333337FCD7ECC7D4C31
:103505007C3D9003B3E0F8A3E0F9A3E0FAA3E0FB68
:10351500120A9E500A9003B3120EB93D4CCCCD90C1
:1035250003B3E0FCA3E0FDA3E0FEA3E0FF9003B836
:10353500120EAD9003B2E0FF122BB09003B3E0FC86
:10354500A3E0FDA3E0FEA3E0FF120B499003B2E068
:0E35550025E02425F582E43405F583EFF0220D
:10436000900542EFF0123EE5900542E025E024245E
:0B437000F582E43405F5837401F022AF
:10444B00900543EFF0123FD3900543E025E0242481
:0A445B00F582E43405F583E4F02255
:10463000EF25E02424F582E43405F583E024FF220D
:10390100E490045AF0A37408F07B017A04795A7F99
:103911000212225F90045B7404F07B017A04795AED
:103921007F0212225FD2A2D2A343BA80E490045C48
:10393100F0A3F0A3F0A304F0E4A3F0A3F0A3F0A399
:10394100F0A3F0A3F0A3F0A3F0A3F0A3F0A3F0A3DE
:10395100F07B017A04795CFF1216007B017A04790D
:093961005C7F0112160053BA7FCD
:01396A00223A
:051EBA009003D3EFF0DE
:101EBF00E49003E2F0A37480F07B017A0379E27F70
:101ECF000312225FD2B743BA80E49003E4F0A3F089
:101EDF00A3F0A304F0E4A3F0A3F0A3F0A3F0A3F006
:101EEF00A3F0A3740FF0E4A3F0A3F0A3F0A3F0A367
:101EFF00F09003D3E0FF7B017A0379E412160053CD
:101F0F00BA7F9003D3E0FF7D1012460E9003D3E00B
:101F1F00FF7D327C00123A399003D4E0FCA3E0FD40
:101F2F00A3E0FEA3E0FF9003D3E0FB75F025A4240C
:101F3F0003F582E43403F583120EAD9003D8E0FC71
:101F4F00A3E0FDA3E0FEA3E0FFEB75F025A42407BB
:101F5F00F582E43403F583120EAD9003DCE0FCA3AD
:101F6F00E0FDA3E0FEA3E0FFEB75F025A42415F53B
:101F7F0082E43403F583120EAD9003E0E0FEA3E09C
:101F8F00FFEB75F025A4240FF582E43403F583EEFF
:101F9F00F0A3EFF0EB75F025A42403F582E43403EE
:101FAF00F583E0F8A3E0F9A3E0FAA3E0FB9003D3F5
:101FBF00E075F025A42407F582E43403F583E0FCF3
:101FCF00A3E0FDA3E0FEA3E0FF120803C004C005D9
:101FDF00C006C0079003D3E075F025A4240FF58247
:101FEF00E43403F583E0FCA3E0FDE4120B10A80436
:101FFF00A905AA06AB07D007D006D005D004120A50
:10200F00019003D3E0FB75F025A4240BF582E43493
:10201F0003F583120EADEB75F025A4240FF582E4C2
:10202F003403F583E0FCA3E0FDE4120B10A804A930
:10203F0005AA06AB079003D3E075F025A42415F588
:10204F0082E43403F583E0FCA3E0FDA3E0FEA3E00C
:10205F00FF120A019003D3E0FB75F025A42419F5B4
:10206F0082E43403F583120EADEB75F025A4241131
:0E207F00F582E43403F583120EB90000000070
:01208D002230
:052A9A009004B3EFF011
:102A9F00A3E0FCA3E0FDA3E0FEA3E0FF9004B3E0FE
:102AAF00FB75F025A424FEF582E43402F583120EA3
:102ABF00ADEB75F025A42419F582E43403F583E01A
:102ACF00F8A3E0F9A3E0FAA3E0FB9004B4E0FCA3C1
:102ADF00E0FDA3E0FEA3E0FF120A019004B3E0754E
:102AEF00F025A4240BF582E43403F583E0F8A3E08A
:102AFF00F9A3E0FAA3E0FB1208F89004B3E075F035
:102B0F0025A42403F582E43403F583E0F8A3E0F968
:102B1F00A3E0FAA3E0FB1208079004B3E0FB75F003
:102B2F0025A4241FF582E43403F583120EADEB7553
:102B3F00F025A4241FF582E43403F583E0FCA3E021
:102B4F00FDA3E0FEA3E0FFE4FBFA79A07841120AAF
:102B5F00019004B8120EAD9004B8E0FCA3E0FDA301
:102B6F00E0FEA3E0FF9003B8120EAD9004B3E0FFB8
:102B7F00122BB09004B3E0FB75F025A424FEF58270
:102B8F00E43402F583E0FCA3E0FDA3E0FEA3E0FF45
:102B9F00EB75F025A42411F582E43403F583020EBE
:012BAF00AD78
:10446500EF75F025A42411F582E43403F583E0FC0F
:0A447500A3E0FDA3E0FEA3E0FF2298
:10412600900544EFF0123EE5900544E075F025A4B5
:10413600241DF582E43403F583E4F0A304F0D322CE
:1041E500900545EFF0123FD3900545E075F025A405
:0F41F500241DF582E43403F583E4F0A3F0D32214
:10339D009004F0EFF075F00EA4241EF582E43404D1
:1033AD00F583E0FEA3E0FF7C007D63120C56EF2455
:1033BD0001FFE43EFE9004F5E0FD7C00120C44AAF2
:1033CD0006AB079004F0E075F00EA4241EF582E420
:1033DD003404F583E0FEA3E0FF7D63120C56C3EBCE
:1033ED009FFDEA9EFCC004C00590041DE0FCE412A4
:1033FD000B159004F1E0F8A3E0F9A3E0FAA3E0FBCC
:10340D001208F8900419E0F8A3E0F9A3E0FAA3E09C
:10341D00FB120A01120B49E4FCFD9004D8120EAD0B
:0E342D009004F0E0FFD005D004123B53D322F0
:103E3300900546EBF0C007AE04AF057C017D681228
:103E43000C44AC06AD07E4120B109004F1120EAD56
:0F3E5300900546E09004F5F0D00712339DD3227E
:1045EC00EF75F00EA42415F582E43404F583E0FF96
:0145FC00229C
:0746DB00900547EFF0D32228
:1042D400900548EFF0124166900548E075F00EA491
:0C42E4002415F582E43404F583E4F02294
:10427D00900549EFF0124146900549E075F00EA406
:0D428D002415F582E43404F5837401F02259
:0746E20090054AEFF0D3221E
:0746E90090054BEFF0D32216
:103C0200AB079004C6E0FCA3E0FDA3E0FEA3E0FF47
:103C1200EB75F00EA42419F582E43404F583120E38
:103C2200AD9004CAE0FFEB75F00EA4241DF582E40A
:103C32003404F583EFF09004CBE0FEA3E0FFEB75D4
:103C4200F00EA4241EF582E43404F583EEF0A3EF13
:043C5200F002396BD8
:0F465000742C2FF582E43405F5837401F0D32226
:0E465F00742C2FF582E43405F583E4F0D322A9
:01472A00226C
:1042F0009004F6EFF0A3EDF0A37401F0E4A3F0A3B3
:0C430000F0A3F07B017A0479F6023C5631
:10388700E49003C2F0300D63F0E4FF123A9A90031C
:10389700C2E025E024AEF582E43403F583EEF0A31D
:1038A700EFF09003C2E004F0E0C3940A40DB7B0131
:1038B7007A0379AE9003C77404F0A3E4F0A3F0A3EE
:1038C700F07D0A1226FFAC06AD07E4120B10900438
:1038D700CD120EAD9004CDE0FCA3E0FDA3E0FEA366
:1038E700E0FFA3120EAD9004CD80039004D1E0FC5D
:0938F700A3E0FDA3E0FEA3E0FF45
:0139000022A4
:10430C0090054CEFF0D2C87F0112464090054CE06E
:0C431C00F5C0D2CA7F01124640C2CA227E
:103E620090052FEBF0A3EAF0A3E9F090052FE0FB19
:103E7200A3E0FAA3E0F9120BCAFFD39400400F1299
:0F3E8200430C900530E475F001120CAB80DD228B
:10429A00124242D2CCC2CAC2C97F381243287F0C0A
:0D42AA001243287F061243287F010243289B
:1043280090054DEFF0C2C87F01124640D2CA9005F1
:0C4338004DE0F5C07F01124640C2CA22D1
:1042420053C9EF43CA1053C9FE53CAFE53C9FD53A3
:0E425200CAFD53C9FB53CAFBE4F5B3F5B42211
:0844E700900528ECF0A3EDF0B4
:1044EF00E4A3F0A3EFF07B017A05792AE4FF02221F
:0144FF005F5D
:0545FD0090054EEFF0F7
:0B460200E4FF00000FEFB408F9000017
:01460D00228A
:103295004404080000000044040400000000440445
:1032A50000000000004403FC000000004403F80097
:0A32B5000000004403F400000000D4
:103B53009004D5EFF0A3ECF0A3EDF09004D6E0FCD5
:103B6300A3E0FD7F05123A399004D6E0FEA3E0FFFF
:103B73009004D5E0FB75F007A42410F582E4340427
:103B8300F583EEF0A3EFF09004D8E0FCA3E0FDA3EF
:103B9300E0FEA3E0FFEB75F007A4240CF582E43408
:083BA30004F583120EADD322DC
:1041460090054FEFF07F05123EE590054FE075F0C4
:1041560007A42412F582E43404F5837401F0D32213
:10416600900550EFF02405FF123FD3900550E075FF
:10417600F007A42412F582E43404F583E4F0D32294
:1045B700EF75F007A42412F582E43404F583E024B0
:0245C700FF22D1
:10396B00E490046CF0A37480F07B017A04796C7F93
:10397B000112225FD2979003B8120EB93F000000DC
:10398B007F05122BB043BA80E490046EF0A3F0A332
:10399B00F0A304F0E4A3F0A3F0A3F0A3F0A3F0A32F
:1039AB00F0A3740FF0E4A3F0A304F0E4A3F0A304DA
:1039BB00F0E4A3F07B017A04796E7F0512160053B5
:0939CB00BA7F7D107F0502460E53
:0300B300022D9A81
:102D9A00C0E0C0F0C083C082C0D075D000C000C0FF
:102DAA0001C002C003C004C005C006C007E5F66042
:102DBA002B53F6DF900408120E7890040CE0F8A367
:102DCA00E0F9A3E0FAA3E0FBD3120E2450619004C9
:102DDA000C120EB9000000007F05802DE5F6602E6A
:102DEA0053F6EF900404120E78900413E0F8A3E06F
:102DFA00F9A3E0FAA3E0FBD3120E24503290041395
:102E0A00120EB9000000007F04123FD38021E5F6BC
:102E1A00600553F6F78018E5F6600553F6FB800F58
:102E2A00E5F6640160028004E5F6600353F6FDD01E
:102E3A0007D006D005D004D003D002D001D000D0EC
:0A2E4A00D0D082D083D0F0D0E03267
:103C5600120BCAF59D900001120BE3FFE5BC549FC1
:103C66004FF5BC900002120BE3B4010543BC808003
:103C76000353BC7F900003120BE3B4010543972066
:103C860080035397DF900005120BE3B40104D2AD15
:103C96008002C2AD900004120BE3B40103D2BD2230
:033CA600C2BD227A
:0C468900EFB4010443BC802253BC7F222C
:103A9A00EFD3940740028051E4F5BDF5BEE5BC546E
:103AAA00E044084FF5BC00000000E4FBE5BC30E44C
:103ABA003353BCEFE59730E509E5BD5403ADBEFCD1
:103ACA00801DAFBD7C00AD07ED7E007802C333CE0A
:103ADA0033CED8F9FFE5BE5403FDEEFCEF4DFDAF42
:0D3AEA0005AE04220BEBB4FAC37E047F008E
:013AF70022AC
:03002B0002471871
:0447180053BCEF326D
:0F4640007D367C07ED1D70011C144C70F7DFF107
:01464F002248
:03471F00A20C22C7
:10225F00EFD3940540037F0122120BCAFED39403E0
:10226F0040037F0222EF7041EE700B900001120BC2
:10227F00E3F452935294120BCAB4010B9000011263
:10228F000BE34293F45294120BCAFEB4020A90006D
:10229F0001120BE342934294EEB4030D900001122E
:1022AF000BE3FEF45293EE4294EF64017043120B72
:1022BF00CAFE700B900001120BE3F452915292EE92
:1022CF00B4010B900001120BE34291F45292120BE6
:1022DF00CAB4020A900001120BE342914292120B10
:1022EF00CAB4030D900001120BE3FEF45291EE42BB
:1022FF0092EF64027043120BCAFE700B9000011232
:10230F000BE3F452955296EEB4010B900001120BB1
:10231F00E34295F45296120BCAB4020A90000112CE
:10232F000BE342954296120BCAB4030D90000112B3
:10233F000BE3FEF45295EE4296EF64037043120BDB
:10234F00CAFE700B900001120BE3F452B152B2EEC1
:10235F00B4010B900001120BE342B1F452B2120B15
:10236F00CAB4020A900001120BE342B142B2120B3F
:10237F00CAB4030D900001120BE3FEF452B1EE420A
:10238F00B2EF64047043120BCAFE700B900001127F
:10239F000BE3F452B352B4EEB4010B900001120BE5
:1023AF00E342B3F452B4120BCAB4020A9000011202
:1023BF000BE342B342B4120BCAB4030D90000112E7
:1023CF000BE3FEF452B3EE42B4EF64057043120B0D
:1023DF00CAFF700B900001120BE3F452C952CAEFFF
:1023EF00B4010B900001120BE342C9F452CA120B55
:1023FF00CAB4020A900001120BE342C942CA120B7F
:10240F00CAB4030D900001120BE3FFF452C9EF425F
:04241F00CA7F00224E
:102F0500EF7034D3ED9498EC940340047C037D98E2
:102F1500C3ED9450EC940050047C007D50C2DE90CB
:102F2500044EECF0A3EDF0C374E89D900449F074F1
:102F3500039C9004488073EF64017034D3ED94686A
:102F4500EC940B40047C0B7D68C3ED9450EC94002D
:102F550050047C007D50C2DE900450ECF0A3EDF0EF
:102F6500C374B89D90044BF0740B9C90044A803A4E
:102F7500EF64027038D3ED9480EC940740047C072D
:102F85007D80C3ED9450EC940050047C007D50C2CC
:102F9500DE900452ECF0A3EDF0AE04FFC374D09FB5
:0E2FA50090044DF074079E90044CF0D2DE2292
:10242300900532EBF0A3EAF0A3E9F0AD07EDD39406
:102433000340030225C1ED6403704CC2DEF5F9F5D8
:10244300E9900532E0FBA3E0FAA3E0F9120BCAFF1F
:10245300E5A254CF4FF5A2900001120BE3FFE5D99B
:1024630054F14FF5D9900004120BE35401FFE5D961
:1024730054FE4FF5D9900005120BE3B40104D2BF0B
:102483008002C2BFD2DE22900532E0FBA3E0FAA3B2
:10249300E02404F9E43AFA120BCA5431120C1090F6
:1024A3000532E0FBA3E0FAA3E0F9900002120BE38C
:1024B300C39448400FE92404F9E43AFA120BCA54CE
:1024C300CF120C10ED704F900532E0FBA3E0FAA39E
:1024D300E0F9900004120BE3FF900002120BE3FEFD
:1024E3004FF5DA900003120BE3FFE5F2543F4FF58B
:1024F300F2900006120CC1FBAAF090044EEAF0A37E
:10250300EBF0C207900445EEF0900454EAF0A3EB1D
:10251300F0F5EAEAF5FAED6401704F900532E0FB5D
:10252300A3E0FAA3E0F9900004120BE3FF9000028A
:10253300120BE3FE4FF5DB900003120BE3FFE5F311
:10254300543F4FF5F3900006120CC1FBAAF0900420
:1025530050EAF0A3EBF0C208900446EEF090045664
:10256300EAF0A3EBF0F5EBEAF5FBED6402704F90B4
:102573000532E0FBA3E0FAA3E0F9900004120BE3B9
:10258300FF900002120BE3FE4FF5DC900003120BE9
:10259300E3FFE5F4543F4FF5F4900006120CC1FD40
:1025A300ACF0900452ECF0A3EDF0C209900447EEB6
:0F25B300F0900458ECF0A3EDF0F5ECECF5FC2201
:1025C200900536ECF0A3EDF0900535EFF0705ED398
:1025D200EB9464EA940040047A007B64C3EB9401B8
:1025E200EA940050047A007B01C2DE900536E0FED8
:1025F200A3E0FFAD03AC02120C447C007D64120C1C
:102602005690044EEEF0A3EFF07C007D64AF03AE73
:1026120002120C56C374019FFFE49EFE900536E041
:10262200FCA3E0FD120C449004480226F790053505
:10263200E06401705DD3EB9464EA940040047A0094
:102642007B64C3EB9401EA940050047A007B01C2DC
:10265200DE7C007D64AF03AE02120C56900536E0BC
:10266200FCA3E0FD120C44900450EEF0A3EFF07CCA
:10267200007D64AF03AE02120C56C374019FFFE4E7
:102682009EFE900536E0FCA3E0FD120C4490044A45
:102692008063900535E064027062D3EB9464EA943F
:1026A2000040047A007B64C3EB9401EA9400500476
:1026B2007A007B01C2DE7C007D64AF03AE02120CA5
:1026C20056900536E0FCA3E0FD120C44900452EE55
:1026D200F0A3EFF0AE02AF037C007D64120C56C390
:1026E20074019FFFE49EFE900536E0FCA3E0FD121C
:0D26F2000C4490044CEEF0A3EFF0D2DE2279
:03003B000232FA94
:1032FA00C0E0C083C082C0D075D000C006C007300D
:10330A00D82AC2D830A50590044E8003900448E01C
:10331A00FEA3E0FF900455E02FF0900454E03EF045
:10332A00900454E0FEA3E0F5EAEEF5FA30D92AC299
:10333A00D930A605900450800390044AE0FEA3E029
:10334A00FF900457E02FF0900456E03EF0900456A8
:10335A00E0FEA3E0F5EBEEF5FB30DA2AC2DA30A79D
:10336A0005900452800390044CE0FEA3E0FF900411
:10337A0059E02FF0900458E03EF0900458E0FEA384
:10338A00E0F5ECEEF5FCD007D006D0D0D082D083A1
:03339A00D0E0324E
:0516000090053CEFF035
:10160500E4A3F090053DE0FFC39406505AEF75F052
:101615000AA42448F582E43403F583120EB90000C8
:10162500000090053DE0FF75F00AA4244CF582E426
:101635003403F583E4F0EF75F00AA4244DF582E454
:101645003403F583120EB90000000090053DE075E6
:10165500F00AA42451F582E43403F5837401F09073
:10166500053DE004F0809C43BA80120BCAB4010525
:1016750043F180800353F17F900001120BE3B40125
:101685001490053CE0FF7401A807088002C333D815
:10169500FC42F1801390053CE0FF7401A807088027
:1016A50002C333D8FCF452F1900002120BE3B401EB
:1016B5000543F540800353F5BF900003120BE3B4D7
:1016C500011490053CE0FF7401A807088002C333AC
:1016D500D8FC42F5801390053CE0FF7401A807088B
:1016E5008002C333D8FCF452F5900004120BE3B426
:1016F500010575F720800353F7DF900005120BE312
:10170500B4010575F710800353F7EF900006120B2F
:10171500E3B4010575F708800353F7F79000071246
:101725000BE3B4010575F704800353F7FB9000083C
:10173500120BE3B4010575F702800353F7FD900022
:1017450009120BE390FFF27006E054EFF08004E01D
:101755004410F090FFF2C083C082E0FF90000A12AF
:101765000BE3FEEF4ED082D083F090053CE0146091
:101775007214700302183B14700302188E14700360
:101785000218E11470030219322405600302198955
:1017950090000B120BE390FF047006E054F7F08005
:1017A50004E04408F090000C120BE390FF04B40130
:1017B50006E04404F08004E054FBF090000D120BA9
:1017C500E390FF04B40106E04402F08004E054FD18
:1017D500F090000E120BE390FF04B4010302197F91
:1017E50002198590000B120BE390FF147006E0546C
:1017F500F7F08004E04408F090000C120BE390FF32
:1018050014B40106E04404F08004E054FBF09000B9
:101815000D120BE390FF14B40106E04402F08004BE
:10182500E054FDF090000E120BE390FF14B4010399
:1018350002197F02198590000B120BE390FF2470AB
:1018450006E054F7F08004E04408F090000C120B19
:10185500E390FF24B40106E04404F08004E054FB67
:10186500F090000D120BE390FF24B40106E0440252
:10187500F08004E054FDF090000E120BE390FF247D
:10188500B4010302197F02198590000B120BE39036
:10189500FF347006E054F7F08004E04408F090004F
:1018A5000C120BE390FF34B40106E04404F080040D
:1018B500E054FBF090000D120BE390FF34B40106E9
:1018C500E04402F08004E054FDF090000E120BE3BA
:1018D50090FF34B4010302197F02198590000B12A1
:1018E5000BE390FF447006E054F7F08004E04408F1
:1018F500F090000C120BE390FF44B40106E04404A1
:10190500F08004E054FBF090000D120BE390FF44CF
:10191500B40106E04402F08004E054FDF090000EAE
:10192500120BE390FF44B40102804F805390000BEB
:10193500120BE390FF547006E054F7F08004E04486
:1019450008F090000C120BE390FF54B40106E0443C
:1019550004F08004E054FBF090000D120BE390FFBF
:1019650054B40106E04402F08004E054FDF0900018
:101975000E120BE390FF54B40106E04401F080041D
:10198500E054FEF090000F120BE3B4010443F58020
:041995002253F57F65
:01199900222B
:10447F00EF75F00AA42448F582E43403F583E0FCD9
:0A448F00A3E0FDA3E0FEA3E0FF227E
:10449900EF75F00AA4244DF582E43403F583E0FCBA
:0A44A900A3E0FDA3E0FEA3E0FF2264
:103A390090053EECF0A3EDF0AB0790053EE0FEA348
:103A4900E0FFE4FCFDEB75F00AA42448F582E434B8
:103A590003F583120EAD43BA8053F57FEB75F00A77
:103A6900A42451F582E43403F583E0FF7E00900538
:103A79003EE0FCA3E0FD120C44AB07AA06E4F9F80A
:103A8900FF7E367D6E7C01123D3812451953BA7F8F
:013A9900220A
:102BB0009003B7EFF07F337E337D737C3FA3E0F863
:102BC000A3E0F9A3E0FAA3E0FB120A9E600C400A1E
:102BD0009003B8120EB93F7333337FCD7ECC7DCCDA
:102BE0007C3C9003B8E0F8A3E0F9A3E0FAA3E0FB93
:102BF000120A9E500A9003B8120EB93CCCCCCD906C
:102C000003B8E0FCA3E0FDA3E0FEA3E0FF9003B760
:102C1000E0FB75F00AA4244DF582E43403F5831239
:102C20000EAD43BA80EB75F00AA42451F582E4346A
:102C300003F583E0FFE4FCFDFEEB75F00AA42448F5
:102C4000F582E43403F583E0F8A3E0F9A3E0FAA306
:102C5000E0FB120CF9A804A905AA06AB077F007EC9
:102C6000367D6E7C01120D84E4120B0B9003B7E0ED
:102C700075F00AA4244DF582E43403F583E0F8A34B
:102C8000E0F9A3E0FAA3E0FB1208F8E4FBFA7920EC
:102C900078411208F8E4FBFA79A07840120807E4BA
:102CA000FBFA79207841120A01120B49AB07AA06F8
:0F2CB0009003B7E0FFE4FDFC12343B53BA7F22E0
:10460E00EF75F00AA42451F582E43403F583EDF03E
:01461E002279
:10461F00EF75F00AA42451F582E43403F583E0FF2B
:01462F002268
:0A46B50043BA8043F58053BA7F2218
:0A46BF0043BA8053F57F53BA7F22FF
:103EE50043BA807401A807088002C333D8FC42F5A1
:103EF500EF75F00AA4244CF582E43403F5837401CC
:083F0500F043F58053BA7F225E
:103FD30043BA807401A807088002C333D8FCF452A3
:103FE300F5EF75F00AA4244CF582E43403F583E479
:053FF300F053BA7F222B
:1045C900EF75F00AA4244CF582E43403F583E02462
:0245D900FF22BF
:10451900D3E49F74809E400D90FFF1EFF0EE90FF81
:08452900F0F07F00227F012267
:10343B00EF14602814603A14604C14605E146070D2
:10344B00240560030234D290FF01EDF0EC90FF00F5
:10345B00F090FF03EBF0EA90FF02806790FF11ED15
:10346B00F0EC90FF10F090FF13EBF0EA90FF12805E
:10347B005290FF21EDF0EC90FF20F090FF23EBF04A
:10348B00EA90FF22803D90FF31EDF0EC90FF30F0A1
:10349B0090FF33EBF0EA90FF32802890FF41EDF084
:1034AB00EC90FF40F090FF43EBF0EA90FF4280136B
:1034BB0090FF51EDF0EC90FF50F090FF53EBF0EAE2
:0A34CB0090FF52F07F00227F0122E3
:102E540054696D65723120696E697469616C697A4F
:102E6400696E672073756363656564200A0054693D
:102E74006D65723120696E697469616C697A696E15
:102E840067206661696C6564200A0054696D657227
:102E94003320696E697469616C697A696E6720733D
:102EA400756363656564200A0054696D6572332037
:102EB400696E697469616C697A696E6720666169B3
:102EC4006C6564200A0054696D65723420696E690A
:102ED4007469616C697A696E67207375636365658B
:102EE40064200A0054696D65723420696E697469DE
:102EF400616C697A696E67206661696C6564200A31
:012F040000CC
:1032BF004104360241043702420438000042043A06
:1032CF000000420432000042043000004104440078
:1032DF0041042F00410435004104340044043C00F4
:0A32EF00000000440440000000004D
:10310900E490048EF090047EF0A3F0A304F0E4A30D
:10311900F0A3F0900485F090048374A2F0A37440A6
:10312900F0E4900486F0A3F0A304F0E4A3F0A3F084
:1031390090048D04F090048B74FFF0A37410F07F59
:1031490001121C8790048EEFF070087BFF7A2E79AC
:1031590054800A90048EE07BFF7A2E7972124531F1
:103169007F03121C8790048EEFF070087BFF7A2E84
:10317900798F800A90048EE07BFF7A2E79AD124513
:10318900317B017A0479867F04121C8D90048EEFBD
:10319900F070087BFF7A2E79CA800A90048EE07B52
:0831A900FF7A2E79E81245318E
:0131B10022FB
:103FF800900436E0601EA3E0601AEF24FE600B0414
:10400800701290043CECF0A3EDF0AF05900440EC86
:05401800F0A3EFF0220F
:1044B300EF24FE600804700E90043C8003900440D7
:0A44C300E0FEA3E0FF22E4FEFF226A
:10434400EF24FE600C04701390043EECF0A3EDF037
:0C43540022AF05900442ECF0A3EFF02231
:1044CD00EF24FE600804700E90043E8003900442B9
:0A44DD00E0FEA3E0FF22E4FEFF2250
:10450000EF24FE600A047010C28E900436800653B9
:09451000D1F79004377402F02287
:1042B700EF24FE600D047014900436E07002D322E0
:0D42C700C322900437E07003D38001C322AE
:10420400EF24FE600E047016900436E0B40102D36D
:0F42140022C322900437E0B40103D38001C322F8
:10422300EF24FE600E047016900436E0B40202D34D
:0F42330022C322900437E0B40203D38001C322D8
:10418600AE071242B74018EF24FE600B047010D23F
:104196008EE4900436F02243D108E4900437F022EE
:0E466D00AE071242045005124186D322C3222A
:0946C900900432E0FEA3E0FF22A0
:0946D200900430E0FEA3E0FF2299
:0646F600900444E0FF22E5
:0646FC0090042FE0FF22F4
:06470200900435E0FF22E7
:06470800900434E0FF22E2
:03001B00023CF1B3
:103CF100C0E0C0F0C083C082C0D075D000C000C099
:103D010006900438E475F001120CABFED390043D2B
:103D1100E095F090043CE09E500EC28E900438E491
:103D2100F0A3F090043604F0D006D000D0D0D082B9
:073D3100D083D0F0D0E03296
:03009B00023CA97B
:103CA900C0E0C0F0C083C082C0D075D000C000C0E1
:103CB9000690043AE475F001120CABFED39004416E
:103CC900E095F0900440E09E500F53D1F790043AEC
:103CD900E4F0A3F090043704F0D006D000D0D0D09F
:083CE90082D083D0F0D0E0325C
:0300A3000235EF34
:1035EF00C0E0C0F0C083C082C0D075D000C000C0A2
:1035FF0006C2AF900432E475F00A120CABFEC3E5BD
:10360F00F094E8EE94034051900432E4F0A3F0906C
:10361F00043075F001120CABFEC3E5F094E8EE94A4
:10362F00034036900430E4F0A3F0900444E004F03B
:10363F00943C4025E4F090042FE004F0943C4019B2
:10364F00E4F0900435E004F09418400DE4F0900499
:10365F0034E004F0B4FF02E4F0D2AFD006D000D0D3
:0A366F00D0D082D083D0F0D0E0323A
:061C87007B017A04797E66
:101C8D00AD07EDD3940440037F0122ED7073120B69
:101C9D00CAFED3940340037F0222C28CC2A9C2B9EB
:101CAD005389F0538E7F538FFE900002120BE3B4D5
:101CBD000102D2A9900001120BE3B40102D2B9EED8
:101CCD004289900003120BE3FF7003438E80EFB443
:101CDD000203438904900004120BE3B40103438F04
:101CED0001900005120CC1E5F0F58C900005120C69
:101CFD00C1F58A900007120BE3B40102D28C7F006C
:101D0D0022ED64017076120BCAFEC3940340037F6B
:101D1D000222C28EC2ABC2BB53890F538EBF538FEB
:101D2D00FD900002120BE3B40102D2AB9000011240
:101D3D000BE3B40102D2BBEEC454F0428990000310
:101D4D00120BE3FF7003438E40EFB402034389404F
:101D5D00900004120BE3B40103438F0290000512AF
:101D6D000CC1E5F0F58D900005120CC1F58B9000BE
:101D7D0007120BE3B40102D28E7F0022ED640270D4
:101D8D0063900003120BE3FED3940240037F022203
:101D9D00538EE353AFFB538FFB900002120BE3B452
:101DAD00010343AF04EE7003438E04900003120B46
:101DBD00E3B40203438E08900004120BE3B4010355
:101DCD00438F04900005120CC1E5F0F5D690000587
:101DDD00120CC1F5D7900007120BE3B40103438E2B
:101DED00107F0022ED64037060900003120BE3FE80
:101DFD00D3940240037F022253D1F053AFDF900002
:101E0D0002120BE3B4010343AF20EE700343D10282
:101E1D00900003120BE3B4020343D10690000412A9
:101E2D000BE3B4010343D101900005120CC1E5F0A1
:101E3D00F5D4900005120CC1F5D5900007120BE3F7
:101E4D00B4010343D1087F0022ED6404705C90005F
:101E5D0003120BE3FED3940240037F022253D10FF2
:101E6D0053AFBF900002120BE3B4010343AF40EE3A
:101E7D00700343D120900003120BE3B4020343D14E
:101E8D0060900004120BE3B4010343D110900005E0
:101E9D00120CC1FDACF0ECF5D28DD3900007120BF6
:0D1EAD00E3B4010343D1807F00227F0222B5
:100F20009004BDEBF0A3EAF0A3E9F09004BCEFF06D
:100F30006401600302113290000004F0E4A3F0A306
:100F4000F0A3F0A3F0A3F0A3F09004C0F09004C0CD
:100F5000E0FFC39480501474382FF582E43401F517
:100F600083E4F09004C0E004F080E2E49004C0F078
:100F70009004C0E0FFC394805014741C2FF582E4E9
:100F80003400F583E4F09004C0E004F080E29004C3
:100F9000BDE0FBA3E0FAA3E0F9120BCAD394C04072
:100FA000037F022290000A120BE3B40104D2BC803A
:100FB00002C2BC120BCAFFE598543F4FF598EF648C
:100FC000C06008EF644060030210AC900002120E93
:100FD000487F807E8D7D5B7C00120D849004C11261
:100FE0000EADE4FFFE7D01FC9004C1E0F8A3E0F942
:100FF000A3E0FAA3E0FBC3120E2440037F02229079
:1010000004C1E0F8A3E0F9A3E0FAA3E0FBC3E49B8A
:10101000FFE49AFE740199FDE498FC9004C1120E5D
:10102000AD9004BDE0FBA3E0FAA3E0F9900001124B
:101030000BE3FB64017038C28E538EFE5389BF539D
:1010400089CF438E409004C1E0FCA3E0FDA3E0FE05
:10105000A3E0FF7808120E358F8D9004C1A3A3A3DF
:10106000E0F58BC2AB5389BF538FFDD28E8076EBF8
:1010700064027035538EEF438E01538EF7438E0416
:101080009004C1E0FCA3E0FDA3E0FEA3E0FF78082C
:10109000120E358FD69004C1A3A3A3E0F5D753AFAA
:1010A000FB538EF7438E10803C7F02229004BDE0FC
:1010B000FBA3E0FAA3E0F9120BCAFF70139000083B
:1010C000120BE3B40105438E20801A538EDF801586
:1010D000EFB48011900008120BE3B4010543878040
:1010E000800353877F9004BDE0FBA3E0FAA3E0F9FF
:1010F000900009120BE3B40104D2AC8002C2AC90A0
:101100000007120BE3B40104D29C8002C29C900041
:101110000B120BE354C0FFE5A2543F4FF5A2900021
:101120000C120BE3B4010543971080035397EF7F34
:1011300000229004BCE06402600302129490000755
:101140007402F0E4A3F0A3F0A3F0A3F0A3F0A3F0E3
:101150009004C0F09004C0E0FFC39480501474D495
:101160002FF582E43401F583E4F09004C0E004F04C
:1011700080E2E49004C0F09004C0E0FFC39480508B
:1011800014749C2FF582E43400F583E4F09004C0DD
:10119000E004F080E29004BDE0FBA3E0FAA3E0F9F4
:1011A000120BCAFF64C06008EF644060030212546F
:1011B00090000A120BE3B4010543B501800353B557
:1011C000FE120BCAB4C005439A808003539A7F90E5
:1011D0000002120E487F807E8D7D5B7C00120D84A4
:1011E0009004C1120EADE4FFFE7D01FC9004C1E04D
:1011F000F8A3E0F9A3E0FAA3E0FBC3120E24400336
:101200007F02229004C1E0F8A3E0F9A3E0FAA3E092
:10121000FBC3E49BFFE49AFE740199FDE498FC9003
:1012200004C1120EAD538EEF538EF7438E0490041B
:10123000C1E0FCA3E0FDA3E0FEA3E0FF7808120EEE
:10124000358FD69004C1A3A3A3E0F5D753AFFB43DA
:101250008E1080037F02229004BDE0FBA3E0FAA37E
:10126000E0F9900009120BE3B4010543AF018003DC
:1012700053AFFE900007120BE3B40105439A1080B0
:1012800003539AEF90000B120BE35401FFE5BA549D
:10129000FE4FF5BA9004BCE064036003021447906B
:1012A000000E7402F0E4A3F0A3F0A3F0A3F0A3F007
:1012B000A3F09004C0F09004C0E0FFC3941C50144D
:1012C00074542FF582E43402F583E4F09004C0E016
:1012D00004F080E2E49004C0F09004C0E0FFC39406
:1012E0001C5014741C2FF582E43401F583E4F09053
:1012F00004C0E004F080E29004BDE0FBA3E0FAA3A8
:10130000E0F9120BCAFF64C06008EF64406003029A
:10131000140753ACDFEFB4C00543AC80800353AC7B
:101320007F9004BDE0FBA3E0FAA3E0F99000021275
:101330000E487F807E8D7D5B7C00120D849004C101
:10134000120EADE4FFFE7D01FC9004C1E0F8A3E0C5
:10135000F9A3E0FAA3E0FBC3120E2440037F0222AC
:101360009004C1E0F8A3E0F9A3E0FAA3E0FBC3E432
:101370009BFFE49AFE740199FDE498FC9004C1126D
:101380000EAD9004BDE0FBA3E0FAA3E0F9900001EC
:10139000120BE3FB6402703253ACBF538EEF538EDB
:1013A000F7438E049004C1E0FCA3E0FDA3E0FEA39C
:1013B000E0FF7808120E358FD69004C1A3A3A3E0F6
:1013C000F5D753AFFB438E108040EB64017035437B
:1013D000AC4053D1F053AFDF43D10253D1FB53D1D3
:1013E000FE9004C1E0FCA3E0FDA3E0FEA3E0FF78D3
:1013F00008120E358FD49004C1A3A3A3E0F5D54302
:10140000D10880067F02227F02229004BDE0FBA368
:10141000E0FAA3E0F9900009120BE3B4010543AF31
:1014200008800353AFF7900007120BE3B4010543A4
:10143000AC10800353ACEF90000B120BE35402FF8F
:10144000E5BA54FD0215F79004BCE06404600302A1
:1014500015FD9000157402F0E4A3F0A3F0A3F0A32F
:10146000F0A3F0A3F09004C0F09004C0E0FFC39498
:101470001C501474702FF582E43402F583E4F0906C
:1014800004C0E004F080E2E49004C0F09004C0E006
:10149000FFC3941C501474B82FF582E43401F58313
:1014A000E4F09004C0E004F080E29004BDE0FBA30F
:1014B000E0FAA3E0F9120BCAFF64C06008EF6440D1
:1014C00060030215BA5384DFEFB4C0054384808003
:1014D0000353847F9004BDE0FBA3E0FAA3E0F990FE
:1014E0000002120E487F807E8D7D5B7C00120D8491
:1014F0009004C1120EADE4FFFE7D01FC9004C1E03A
:10150000F8A3E0F9A3E0FAA3E0FBC3120E24400322
:101510007F02229004C1E0F8A3E0F9A3E0FAA3E07F
:10152000FBC3E49BFFE49AFE740199FDE498FC90F0
:1015300004C1120EAD9004BDE0FBA3E0FAA3E0F9F4
:10154000900001120BE3FB640270325384BF538E90
:10155000EF538EF7438E049004C1E0FCA3E0FDA39B
:10156000E0FEA3E0FF7808120E358FD69004C1A3E9
:10157000A3A3E0F5D753AFFB438E108040EB64028A
:10158000703543844053D10F53AFBF43D12053D163
:10159000BF53D1EF9004C1E0FCA3E0FDA3E0FEA3A4
:1015A000E0FF7808120E358FD29004C1A3A3A3E008
:1015B000F5D343D18080067F02227F02229004BDB2
:1015C000E0FBA3E0FAA3E0F9900009120BE3B401F9
:1015D0000543AF10800353AFEF900007120BE3B445
:1015E000010543841080035384EF90000B120BE33A
:0F15F0005404FFE5BA54FB4FF5BA7F00227F0386
:0115FF0022C9
:103FAC00900002E02438F582E43401F583EFF090C0
:103FBC000002E004F0C394804002E4F0900003E0BF
:073FCC00700404F0D29922F9
:103F0D00900009E024D4F582E43401F583EFF090BC
:103F1D000009E004F0C394804002E4F090000AE050
:083F2D00700504F0439A022222
:103F3500900010E02454F582E43402F583EFF0900C
:103F45000010E004F0C3941C4002E4F0900011E07E
:083F5500700504F043AC0222E8
:103F5D00900017E02470F582E43402F583EFF090C1
:103F6D000017E004F0C3941C4002E4F0900018E048
:083F7D00700504F043840222E8
:10453100C2AF120BCAFF600C123FAC740129F9E43F
:074541003AFA80EED2AF222E
:10454800120BCAFF600C123F0D740129F9E43AFA04
:0345580080EE22D0
:10455B00120BCAFF600C123F35740129F9E43AFAC9
:03456B0080EE22BD
:10456E00120BCAFF600C123F5D740129F9E43AFA8E
:03457E0080EE22AA
:0300230002380898
:10380800C0E0C083C082C0D075D000C006C00730F9
:10381800982DC298900006E07025900004E0C394AB
:10382800804002E4F0900004E0FF04F0741C2FF5DF
:1038380082E43400F583E599F09000057405F030D2
:103848009930C299900002E0FF900001E0FE6F609D
:103858001C74382EF582E43401F583E0F599900064
:1038680001E004F0C394804009E4F080059000036F
:0F387800E4F0D007D006D0D0D082D083D0E03299
:0300430002367909
:10367900C0E0C083C082C0D075D000C006C007E5D5
:103689009A30E02E539AFE90000DE0702590000BC1
:10369900E0C394804002E4F090000BE0FF04F07472
:1036A9009C2FF582E43400F583E59BF090000C74BF
:1036B90005F0E59A30E131539AFD900009E0FF9059
:1036C9000008E0FE6F601C74D42EF582E43401F525
:1036D90083E0F59B900008E004F0C394804009E47E
:1036E900F0800590000AE4F0D007D006D0D0D0824F
:0536F900D083D0E03297
:03008B000236FE3C
:1036FE00C0E0C083C082C0D075D000C006C007E550
:10370E00AC30E02E53ACFE900014E0702590001209
:10371E00E0C3941C4002E4F0900012E0FF04F07449
:10372E001C2FF582E43401F583E5ADF0900013749F
:10373E0005F0E5AC30E13153ACFD900010E0FF90A8
:10374E00000FE0FE6F601C74542EF582E43402F517
:10375E0083E0F5AD90000FE004F0C3941C4009E443
:10376E00F08005900011E4F0D007D006D0D0D082C2
:05377E00D083D0E03211
:03009300023783AE
:10378300C0E0C083C082C0D075D000C006C007E5CA
:103793008430E02E5384FE90001BE07025900019C6
:1037A300E0C3941C4002E4F0900019E0FF04F074BD
:1037B300B82FF582E43401F583E585F090001A749F
:1037C30005F0E58430E1315384FD900017E0FF906C
:1037D3000016E0FE6F601C74542EF582E43402F58B
:1037E30083E0F585900016E004F0C3941C4009E4DF
:1037F300F08005900018E4F0D007D006D0D0D08236
:05380300D083D0E0328B
:0E467B00E4F5C7F5C5F5C675C3FF75C4FF228B
:103D7C00AD07AC06C2AF75C78075C501ECF5C3AF16
:103D8C00058FC475C65A75C6A500E5C2120C100D78
:103D9C00BD00010C740129F9E43AFA9004E174FFB6
:0F3DAC00F5F0120CAB45F070D312467BD2AF226C
:1041A600AD07AC06C2AFECF5C3AF058FC475C780CB
:1041B60075C50375C65A75C6A50012467BD2AF22D1
:103DBB00AD07AC06C2AF75C78075C502ECF5C3AFD6
:103DCB00058FC4120BCAF5C275C65A75C6A5000D70
:103DDB00BD00010C740129F9E43AFA9004E874FF70
:0F3DEB00F5F0120CAB45F070D312467BD2AF222D
:102200008FF0E4FFFEE50C23240EF8C2A930F70D91
:102210007F08E6600B2DF660325030800730F10603
:10222000EDF660277E020830F010C2AFE610E72519
:102230000E30E20CD2AF7F048014C2AFE610E71577
:1022400054EC4EF6D2AFD2A90221097F0808EF4420
:0F22500083F4C2AF56C6D2AFD2A954804FFF223B
:10080000020BB5E86480F8E933E83360110460F066
:10081000ED33EC337009E8FCE9FDEAFEEBFF22045E
:1008200060DED3EB9FEA9EE99DE8C2E78CF0C2F759
:1008300095F0400CE8CCF8E9CDF9EACEFAEBCFFB25
:10084000120B8085D0F05804700320D5B3E80470F3
:10085000075002B2D5020BBF92D5EC0460F7E4CC8E
:10086000C0E0C398F8603B94186008400DD0E0FBEE
:10087000020B97E4FBFAC9FC8028E830E406E4C9DF
:10088000FBE4CAFCE830E305E4C9CACBFCE8540742
:100890006010F8C3E913F9EA13FAEB13FBEC13FC4D
:1008A000D8F130F52FC3E49CFCEF9BFFEE9AFEEDF0
:1008B00099FDD0E0FBEF4E4D4C701222DB03020B92
:1008C000BCEC2CFCEF33FFEE33FEED33FDED30E7F7
:1008D000EB020B97EF2BFFEE3AFEED39FDD0E0FB7C
:1008E00050130BBB0003020BBFED13FDEE13FEEF25
:0808F00013FFEC13FC020B974F
:1008F800EC4D6011E8497017ED33EC3304600DE4FA
:10090800FCFFFEFD22E933E8330470F8020BB51250
:100918000B8058046009E4CC248150062850090251
:100928000BBF284003020BBCC0E0EB4A7044B980FF
:1009380006D0E0FB020BABEF4E701CBD8008EBFF4E
:10094800EAFEE9FD80EBE98DF0A4FEE5F00209E19D
:10095800E9CDF9EAFEEBFFEF89F0A4FCE5F0CE89DA
:10096800F0A42EFFE435F0CD89F0A42DFEE435F097
:100978008067EF4E7005BD80D780C3EF8BF0A4ACC5
:10098800F0EE8BF0A42CFCE435F0F8EF8AF0A42C00
:10099800E5F038FCE433CB8DF0A42CFCE5F03BF813
:1009A800EE8AF0A42CFCE5F038F8E433CF89F0A403
:1009B8002CFCE5F038CF3400CE89F0A42FFFE5F009
:1009C8003EFEE433C98DF0A42EFEE5F039CD8AF061
:1009D800A42FFFE5F03EFEE43DFD33D0E0FB5007D9
:1009E8000BBB000F020BBFEC2CFCEF33FFEE33FE0A
:0609F800ED33FD020B9738
:1009FE00020BBFEC5D046005E859047003020BB5F1
:100A0E00120B80580460F6EC4860F2EC7004FDFEA8
:100A1E00FF22C860DB2481C85009C39860025006CB
:100A2E00020BBC9850CAF582E9294B4A7005AB827D
:100A3E00020BAB75F0007C1A7880C3EF9BEE9AED3B
:100A4E0099400DC3EF9BFFEE9AFEED99FDE842F043
:100A5E00DC23ACF0D0E0FFD0E0FED0E0FDAB822096
:100A6E00E7101BEB60BAEC2CFCEF33FFEE33FEED20
:100A7E0033FD020B97E803F830E705C0F075F00080
:100A8E00EF2FFFEE33FEED33FD40B830E7C280AA04
:100A9E0074F8CC6480CCC86480C8F582046043C30B
:100AAE00EB9FF5F0EA9E42F0E99D42F0E89C45F09E
:100ABE0060305018E5825FFFE582F42B5582FB50C3
:100ACE00210ABA001D09B90019088016E5825BFBE0
:100ADE00E582F42F5582FF50090EBE00050DBD00B4
:100AEE00010CC3EB9FF5F0EA9E42F0E99D42F0E85F
:0D0AFE009C45F06007CC4820E701B3EC22D6
:100B0B0075F020800E75F010800575F0087D007E65
:100B1B00007F003392D530D503120E16EC33401004
:100B2B00EF33FFEE33FEED33FDEC33FCD5F0ED226E
:0E0B3B00E5F0247EA2D513CC92E7CDCEFF22AA
:100B4900EDD2E7CD33EC3392D524814006E4FFFEA4
:100B5900FDFC22FCE4CFCECDCC24E0501174FF8003
:100B6900EDC3CC13CCCD13CDCE13CECF13CF0470A0
:070B7900F030D5DE020E167C
:100B8000E9D2E7C933E833F892D5EDD2E7CD33ECBB
:070B900033FC5002B2D52234
:100B9700EC30E7100FBF000C0EBE00080DBD0004BF
:100BA7000BEB6014A2D5EB13FCED92E7FD2274FF6B
:100BB700FCFDFEFF22E480F8A2D574FF13FC7D80C4
:030BC700E480EFD8
:0300000002356363
:0C356300787FE4F6D8FD7581210235AABE
:100BCA00BB010689828A83E0225002E722BBFE0229
:090BDA00E32289828A83E493225C
:100BE300BB010CE58229F582E5833AF583E02250C7
:100BF30006E92582F8E622BBFE06E92582F8E22211
:0D0C0300E58229F582E5833AF583E493222A
:100C1000BB010689828A83F0225002F722BBFE01C3
:020C2000F322BD
:100C2200F8BB010DE58229F582E5833AF583E8F008
:100C3200225006E92582C8F622BBFE05E92582C8B4
:020C4200F2229C
:100C4400EF8DF0A4A8F0CF8CF0A428CE8DF0A42EC4
:020C5400FE227E
:100C5600BC000BBE0029EF8DF084FFADF022E4CC82
:100C6600F875F008EF2FFFEE33FEEC33FCEE9DEC4B
:100C7600984005FCEE9DFE0FD5F0E9E4CEFD22ED91
:100C8600F8F5F0EE8420D21CFEADF075F008EF2FDB
:100C9600FFED33FD4007985006D5F0F222C398FDCC
:050CA6000FD5F0EA2269
:100CAB00C5F0F8A3E028F0C5F0F8E58215827002D4
:060CBB001583E038F02271
:100CC100BB0110E58229F582E5833AF583E0F5F071
:100CD100A3E0225009E92582F886F008E622BBFE4E
:100CE1000AE92582F8E2F5F008E222E5832AF58394
:080CF100E993F5F0A3E9932259
:100CF900E88FF0A4CC8BF0A42CFCE98EF0A42CFC9A
:100D09008AF0EDA42CFCEA8EF0A4CDA8F08BF0A417
:100D19002DCC3825F0FDE98FF0A42CCD35F0FCEB76
:100D29008EF0A4FEA9F0EB8FF0A4CFC5F02ECD393B
:0F0D3900FEE43CFCEAA42DCE35F0FDE43CFC22A8
:100D480075F008758200EF2FFFEE33FECD33CDCC62
:100D580033CCC58233C5829BED9AEC99E5829840E5
:100D68000CF582EE9BFEED9AFDEC99FC0FD5F0D6C2
:100D7800E4CEFBE4CDFAE4CCF9A88222B800C1B9EC
:100D88000059BA002DEC8BF084CFCECDFCE5F0CB2A
:100D9800F97818EF2FFFEE33FEED33FDEC33FCEB63
:100DA80033FB10D703994004EB99FB0FD8E5E4F91E
:100DB800FA227818EF2FFFEE33FEED33FDEC33FC0B
:100DC800C933C910D7059BE99A4007EC9BFCE99AFF
:100DD800F90FD8E0E4C9FAE4CCFB2275F010EF2F44
:100DE800FFEE33FEED33FDCC33CCC833C810D70744
:100DF8009BEC9AE899400AED9BFDEC9AFCE899F87F
:0E0E08000FD5F0DAE4CDFBE4CCFAE4C8F92211
:103D3800C2D5E830E70FB2D5E4C39BFBE49AFAE4B6
:103D480099F9E498F8EC30E717B2D5123D6E120DE8
:103D580084E4C39BFBE49AFAE499F9E498F88003B5
:103D6800120D8430D50DE4C39FFFE49EFEE49DFD53
:043D7800E49CFC22A9
:0E0E1600C3E49FFFE49EFEE49DFDE49CFC22ED
:100E2400EB9FF5F0EA9E42F0E99D42F0E89C45F024
:010E3400229B
:100E3500E8600FECC313FCED13FDEE13FEEF13FF9B
:030E4500D8F122BF
:100E4800BB010DE58229F582E5833AF583020EF7A9
:100E58005007E92582F8020EEABBFE07E92582F869
:100E6800020F03E58229F582E5833AF583020F1024
:100E78007401FF3395E0FEFDFCA3A3A3E0CF2FF0A0
:100E8800E582158270021583E0CE3EF0E582158278
:100E980070021583E0CD3DF0E5821582700215835E
:050EA800E0CC3CF0224B
:0C0EAD00ECF0A3EDF0A3EEF0A3EFF022B8
:100EB900A8828583F0D083D082120ED0120ED01270
:100EC9000ED0120ED0E473E493A3C583C5F0C58395
:100ED900C8C582C8F0A3C583C5F0C583C8C582C883
:010EE90022E6
:0C469500EE30E707C3E49FFFE49EFE2226
:10356F000221C3E493A3F8E493A34003F68001F28E
:10357F0008DFF48029E493A3F85407240CC8C3335D
:10358F00C4540F4420C8834004F456800146F6DF2C
:10359F00E4800B0102040810204080903257E47E33
:1035AF00019360BCA3FF543F30E509541FFEE49321
:1035BF00A360010ECF54C025E060A840B8E493A3E8
:1035CF00FAE493A3F8E493A3C8C582C8CAC583CA13
:1035DF00F0A3C8C582C8CAC583CADFE9DEE780BECB
:0132F90000D4
:0D0EEA00E6FB08E6F908E6FA08E6CBF82278
:0C0EF700E0F8A3E0F9A3E0FAA3E0FB227E
:0D0F0300E2FB08E2F908E2FA08E2CBF8226E
:100F1000E493F8740193F9740293FA740393FB2237
:00000001FF
